{
  "contractName": "Bearcontract",
  "abi": [
    {
      "anonymous": false,
      "inputs": [
        {
          "indexed": true,
          "internalType": "address",
          "name": "owner",
          "type": "address"
        },
        {
          "indexed": true,
          "internalType": "address",
          "name": "approved",
          "type": "address"
        },
        {
          "indexed": true,
          "internalType": "uint256",
          "name": "tokenId",
          "type": "uint256"
        }
      ],
      "name": "Approval",
      "type": "event"
    },
    {
      "anonymous": false,
      "inputs": [
        {
          "indexed": true,
          "internalType": "address",
          "name": "owner",
          "type": "address"
        },
        {
          "indexed": true,
          "internalType": "address",
          "name": "operator",
          "type": "address"
        },
        {
          "indexed": false,
          "internalType": "bool",
          "name": "approved",
          "type": "bool"
        }
      ],
      "name": "ApprovalForAll",
      "type": "event"
    },
    {
      "anonymous": false,
      "inputs": [
        {
          "indexed": false,
          "internalType": "address",
          "name": "owner",
          "type": "address"
        },
        {
          "indexed": false,
          "internalType": "uint256",
          "name": "bearId",
          "type": "uint256"
        },
        {
          "indexed": false,
          "internalType": "uint256",
          "name": "mumId",
          "type": "uint256"
        },
        {
          "indexed": false,
          "internalType": "uint256",
          "name": "dadId",
          "type": "uint256"
        },
        {
          "indexed": false,
          "internalType": "uint256",
          "name": "genes",
          "type": "uint256"
        }
      ],
      "name": "Birth",
      "type": "event"
    },
    {
      "anonymous": false,
      "inputs": [
        {
          "indexed": true,
          "internalType": "address",
          "name": "from",
          "type": "address"
        },
        {
          "indexed": true,
          "internalType": "address",
          "name": "to",
          "type": "address"
        },
        {
          "indexed": true,
          "internalType": "uint256",
          "name": "tokenId",
          "type": "uint256"
        }
      ],
      "name": "Transfer",
      "type": "event"
    },
    {
      "inputs": [],
      "name": "CREATION_LIMIT_GEN0",
      "outputs": [
        {
          "internalType": "uint256",
          "name": "",
          "type": "uint256"
        }
      ],
      "stateMutability": "view",
      "type": "function"
    },
    {
      "inputs": [
        {
          "internalType": "uint256",
          "name": "",
          "type": "uint256"
        }
      ],
      "name": "bearIndexToApproved",
      "outputs": [
        {
          "internalType": "address",
          "name": "",
          "type": "address"
        }
      ],
      "stateMutability": "view",
      "type": "function"
    },
    {
      "inputs": [
        {
          "internalType": "uint256",
          "name": "",
          "type": "uint256"
        }
      ],
      "name": "bearIndexToOwner",
      "outputs": [
        {
          "internalType": "address",
          "name": "",
          "type": "address"
        }
      ],
      "stateMutability": "view",
      "type": "function"
    },
    {
      "inputs": [],
      "name": "bearSymbol",
      "outputs": [
        {
          "internalType": "string",
          "name": "",
          "type": "string"
        }
      ],
      "stateMutability": "view",
      "type": "function"
    },
    {
      "inputs": [],
      "name": "bearTicker",
      "outputs": [
        {
          "internalType": "string",
          "name": "",
          "type": "string"
        }
      ],
      "stateMutability": "view",
      "type": "function"
    },
    {
      "inputs": [],
      "name": "gen0Counter",
      "outputs": [
        {
          "internalType": "uint256",
          "name": "",
          "type": "uint256"
        }
      ],
      "stateMutability": "view",
      "type": "function"
    },
    {
      "inputs": [],
      "name": "owner",
      "outputs": [
        {
          "internalType": "address",
          "name": "",
          "type": "address"
        }
      ],
      "stateMutability": "view",
      "type": "function"
    },
    {
      "inputs": [
        {
          "internalType": "bytes4",
          "name": "_interfaceId",
          "type": "bytes4"
        }
      ],
      "name": "supportsInterface",
      "outputs": [
        {
          "internalType": "bool",
          "name": "",
          "type": "bool"
        }
      ],
      "stateMutability": "view",
      "type": "function"
    },
    {
      "inputs": [
        {
          "internalType": "uint256",
          "name": "dadId",
          "type": "uint256"
        },
        {
          "internalType": "uint256",
          "name": "mumId",
          "type": "uint256"
        }
      ],
      "name": "breed",
      "outputs": [
        {
          "internalType": "uint256",
          "name": "",
          "type": "uint256"
        }
      ],
      "stateMutability": "nonpayable",
      "type": "function"
    },
    {
      "inputs": [
        {
          "internalType": "uint256",
          "name": "genes",
          "type": "uint256"
        }
      ],
      "name": "createBearGen0",
      "outputs": [
        {
          "internalType": "uint256",
          "name": "",
          "type": "uint256"
        }
      ],
      "stateMutability": "nonpayable",
      "type": "function"
    },
    {
      "inputs": [
        {
          "internalType": "address",
          "name": "owner",
          "type": "address"
        }
      ],
      "name": "getBearByOwner",
      "outputs": [
        {
          "internalType": "uint256[]",
          "name": "",
          "type": "uint256[]"
        }
      ],
      "stateMutability": "view",
      "type": "function"
    },
    {
      "inputs": [
        {
          "internalType": "uint256",
          "name": "tokenId",
          "type": "uint256"
        }
      ],
      "name": "getBear",
      "outputs": [
        {
          "internalType": "uint256",
          "name": "genes",
          "type": "uint256"
        },
        {
          "internalType": "uint256",
          "name": "birthTime",
          "type": "uint256"
        },
        {
          "internalType": "uint256",
          "name": "mumId",
          "type": "uint256"
        },
        {
          "internalType": "uint256",
          "name": "dadId",
          "type": "uint256"
        },
        {
          "internalType": "uint256",
          "name": "generation",
          "type": "uint256"
        }
      ],
      "stateMutability": "view",
      "type": "function"
    },
    {
      "inputs": [
        {
          "internalType": "address",
          "name": "owner",
          "type": "address"
        }
      ],
      "name": "balanceOf",
      "outputs": [
        {
          "internalType": "uint256",
          "name": "balance",
          "type": "uint256"
        }
      ],
      "stateMutability": "view",
      "type": "function"
    },
    {
      "inputs": [],
      "name": "totalSupply",
      "outputs": [
        {
          "internalType": "uint256",
          "name": "",
          "type": "uint256"
        }
      ],
      "stateMutability": "view",
      "type": "function"
    },
    {
      "inputs": [],
      "name": "name",
      "outputs": [
        {
          "internalType": "string",
          "name": "tokenName",
          "type": "string"
        }
      ],
      "stateMutability": "view",
      "type": "function"
    },
    {
      "inputs": [],
      "name": "symbol",
      "outputs": [
        {
          "internalType": "string",
          "name": "tokenSymbol",
          "type": "string"
        }
      ],
      "stateMutability": "view",
      "type": "function"
    },
    {
      "inputs": [
        {
          "internalType": "uint256",
          "name": "tokenId",
          "type": "uint256"
        }
      ],
      "name": "ownerOf",
      "outputs": [
        {
          "internalType": "address",
          "name": "",
          "type": "address"
        }
      ],
      "stateMutability": "view",
      "type": "function"
    },
    {
      "inputs": [
        {
          "internalType": "address",
          "name": "to",
          "type": "address"
        },
        {
          "internalType": "uint256",
          "name": "tokenId",
          "type": "uint256"
        }
      ],
      "name": "transfer",
      "outputs": [],
      "stateMutability": "nonpayable",
      "type": "function"
    },
    {
      "inputs": [
        {
          "internalType": "address",
          "name": "_to",
          "type": "address"
        },
        {
          "internalType": "uint256",
          "name": "_tokenId",
          "type": "uint256"
        }
      ],
      "name": "approve",
      "outputs": [],
      "stateMutability": "nonpayable",
      "type": "function"
    },
    {
      "inputs": [
        {
          "internalType": "address",
          "name": "operator",
          "type": "address"
        },
        {
          "internalType": "bool",
          "name": "approved",
          "type": "bool"
        }
      ],
      "name": "setApprovalForAll",
      "outputs": [],
      "stateMutability": "nonpayable",
      "type": "function"
    },
    {
      "inputs": [
        {
          "internalType": "uint256",
          "name": "tokenId",
          "type": "uint256"
        }
      ],
      "name": "getApproved",
      "outputs": [
        {
          "internalType": "address",
          "name": "",
          "type": "address"
        }
      ],
      "stateMutability": "view",
      "type": "function"
    },
    {
      "inputs": [
        {
          "internalType": "address",
          "name": "owner",
          "type": "address"
        },
        {
          "internalType": "address",
          "name": "operator",
          "type": "address"
        }
      ],
      "name": "isApprovedForAll",
      "outputs": [
        {
          "internalType": "bool",
          "name": "",
          "type": "bool"
        }
      ],
      "stateMutability": "view",
      "type": "function"
    },
    {
      "inputs": [
        {
          "internalType": "address",
          "name": "from",
          "type": "address"
        },
        {
          "internalType": "address",
          "name": "to",
          "type": "address"
        },
        {
          "internalType": "uint256",
          "name": "tokenId",
          "type": "uint256"
        }
      ],
      "name": "safeTransferFrom",
      "outputs": [],
      "stateMutability": "nonpayable",
      "type": "function"
    },
    {
      "inputs": [
        {
          "internalType": "address",
          "name": "from",
          "type": "address"
        },
        {
          "internalType": "address",
          "name": "to",
          "type": "address"
        },
        {
          "internalType": "uint256",
          "name": "tokenId",
          "type": "uint256"
        },
        {
          "internalType": "bytes",
          "name": "data",
          "type": "bytes"
        }
      ],
      "name": "safeTransferFrom",
      "outputs": [],
      "stateMutability": "nonpayable",
      "type": "function"
    },
    {
      "inputs": [
        {
          "internalType": "address",
          "name": "from",
          "type": "address"
        },
        {
          "internalType": "address",
          "name": "to",
          "type": "address"
        },
        {
          "internalType": "uint256",
          "name": "tokenId",
          "type": "uint256"
        }
      ],
      "name": "transferFrom",
      "outputs": [],
      "stateMutability": "nonpayable",
      "type": "function"
    }
  ],
  "bytecode": "0x6080604052336000806101000a81548173ffffffffffffffffffffffffffffffffffffffff021916908373ffffffffffffffffffffffffffffffffffffffff16021790555034801561005057600080fd5b50612d0e806100606000396000f3fe608060405234801561001057600080fd5b50600436106101735760003560e01c806395d89b41116100de578063b88d4fde11610097578063de636fa311610071578063de636fa314610488578063e985e9c5146104a6578063ef5e94aa146104d6578063f3feace3146104f457610173565b8063b88d4fde1461041e578063cb2839dc1461043a578063d9ecad7b1461045857610173565b806395d89b411461034a578063a22cb46514610368578063a43a745914610384578063a9059cbb146103b4578063b4834330146103d0578063b7967374146103ee57610173565b806342842e0e1161013057806342842e0e1461024c5780634f9dc353146102685780636352211e1461029857806370a08231146102c85780638724d112146102f85780638da5cb5b1461032c57610173565b806301ffc9a71461017857806306fdde03146101a8578063081812fc146101c6578063095ea7b3146101f657806318160ddd1461021257806323b872dd14610230575b600080fd5b610192600480360381019061018d9190611c89565b610524565b60405161019f9190611cd1565b60405180910390f35b6101b06105c4565b6040516101bd9190611d7c565b60405180910390f35b6101e060048036038101906101db9190611dd4565b610601565b6040516101ed9190611e42565b60405180910390f35b610210600480360381019061020b9190611e89565b610685565b005b61021a610737565b6040516102279190611ed8565b60405180910390f35b61024a60048036038101906102459190611ef3565b610744565b005b61026660048036038101906102619190611ef3565b6108f2565b005b610282600480360381019061027d9190611dd4565b610ad5565b60405161028f9190611ed8565b60405180910390f35b6102b260048036038101906102ad9190611dd4565b610bc0565b6040516102bf9190611e42565b60405180910390f35b6102e260048036038101906102dd9190611f46565b610bfd565b6040516102ef9190611ed8565b60405180910390f35b610312600480360381019061030d9190611dd4565b610c46565b604051610323959493929190611f73565b60405180910390f35b610334610cfc565b6040516103419190611e42565b60405180910390f35b610352610d25565b60405161035f9190611d7c565b60405180910390f35b610382600480360381019061037d9190611ff2565b610d62565b005b61039e60048036038101906103999190611f46565b610ecd565b6040516103ab91906120f0565b60405180910390f35b6103ce60048036038101906103c99190611e89565b61101f565b005b6103d8611154565b6040516103e59190611ed8565b60405180910390f35b61040860048036038101906104039190611dd4565b611159565b6040516104159190611e42565b60405180910390f35b61043860048036038101906104339190612177565b61118c565b005b6104426113a6565b60405161044f9190611d7c565b60405180910390f35b610472600480360381019061046d91906121ff565b6113df565b60405161047f9190611ed8565b60405180910390f35b61049061156b565b60405161049d9190611d7c565b60405180910390f35b6104c060048036038101906104bb919061223f565b6115a4565b6040516104cd9190611cd1565b60405180910390f35b6104de611638565b6040516104eb9190611ed8565b60405180910390f35b61050e60048036038101906105099190611dd4565b61163e565b60405161051b9190611e42565b60405180910390f35b60006380ac58cd60e01b7bffffffffffffffffffffffffffffffffffffffffffffffffffffffff1916827bffffffffffffffffffffffffffffffffffffffffffffffffffffffff191614806105bd57506301ffc9a760e01b7bffffffffffffffffffffffffffffffffffffffffffffffffffffffff1916827bffffffffffffffffffffffffffffffffffffffffffffffffffffffff1916145b9050919050565b60606040518060400160405280600b81526020017f41636164656d7942656172000000000000000000000000000000000000000000815250905090565b6000600180549050821061064a576040517f08c379a0000000000000000000000000000000000000000000000000000000008152600401610641906122cb565b60405180910390fd5b6002600083815260200190815260200160002060009054906101000a900473ffffffffffffffffffffffffffffffffffffffff169050919050565b61068f3382611671565b6106ce576040517f08c379a00000000000000000000000000000000000000000000000000000000081526004016106c59061235d565b60405180910390fd5b6106d881836116dd565b808273ffffffffffffffffffffffffffffffffffffffff163373ffffffffffffffffffffffffffffffffffffffff167f8c5be1e5ebec7d5bd14f71427d1e84f3dd0314c0f7b2291e5b200ac8c7c3b92560405160405180910390a45050565b6000600180549050905090565b600073ffffffffffffffffffffffffffffffffffffffff168273ffffffffffffffffffffffffffffffffffffffff16036107b3576040517f08c379a00000000000000000000000000000000000000000000000000000000081526004016107aa906123c9565b60405180910390fd5b6107bd3382611671565b806107d55750600115156107d184336115a4565b1515145b8061081357503373ffffffffffffffffffffffffffffffffffffffff166107fb82610601565b73ffffffffffffffffffffffffffffffffffffffff16145b610852576040517f08c379a00000000000000000000000000000000000000000000000000000000081526004016108499061245b565b60405180910390fd5b61085c8382611671565b61089b576040517f08c379a0000000000000000000000000000000000000000000000000000000008152600401610892906124ed565b60405180910390fd5b60018054905081106108e2576040517f08c379a00000000000000000000000000000000000000000000000000000000081526004016108d9906122cb565b60405180910390fd5b6108ed838383611733565b505050565b600073ffffffffffffffffffffffffffffffffffffffff168273ffffffffffffffffffffffffffffffffffffffff1603610961576040517f08c379a0000000000000000000000000000000000000000000000000000000008152600401610958906123c9565b60405180910390fd5b8273ffffffffffffffffffffffffffffffffffffffff163373ffffffffffffffffffffffffffffffffffffffff1614806109a85750600115156109a484336115a4565b1515145b806109e657503373ffffffffffffffffffffffffffffffffffffffff166109ce82610601565b73ffffffffffffffffffffffffffffffffffffffff16145b610a25576040517f08c379a0000000000000000000000000000000000000000000000000000000008152600401610a1c9061245b565b60405180910390fd5b610a2f8382611671565b610a6e576040517f08c379a0000000000000000000000000000000000000000000000000000000008152600401610a65906124ed565b60405180910390fd5b6001805490508110610ab5576040517f08c379a0000000000000000000000000000000000000000000000000000000008152600401610aac906122cb565b60405180910390fd5b610ad0838383604051806020016040528060008152506118fa565b505050565b60003373ffffffffffffffffffffffffffffffffffffffff16610af6610cfc565b73ffffffffffffffffffffffffffffffffffffffff1614610b4c576040517f08c379a0000000000000000000000000000000000000000000000000000000008152600401610b4390612559565b60405180910390fd5b600a6006541115610b92576040517f08c379a0000000000000000000000000000000000000000000000000000000008152600401610b89906125eb565b60405180910390fd5b60066000815480929190610ba59061263a565b9190505550610bb982600080600080611920565b9050919050565b60006002600083815260200190815260200160002060009054906101000a900473ffffffffffffffffffffffffffffffffffffffff169050919050565b6000600360008373ffffffffffffffffffffffffffffffffffffffff1673ffffffffffffffffffffffffffffffffffffffff168152602001908152602001600020549050919050565b60008060008060008060018781548110610c6357610c62612682565b5b90600052602060002090600202019050806000015495508060010160009054906101000a900467ffffffffffffffff1667ffffffffffffffff1694508060010160089054906101000a900463ffffffff1663ffffffff16935080600101600c9054906101000a900463ffffffff1663ffffffff1692508060010160109054906101000a900461ffff1661ffff1691505091939590929450565b60008060009054906101000a900473ffffffffffffffffffffffffffffffffffffffff16905090565b60606040518060400160405280600381526020017f4142540000000000000000000000000000000000000000000000000000000000815250905090565b3373ffffffffffffffffffffffffffffffffffffffff168273ffffffffffffffffffffffffffffffffffffffff1603610dd0576040517f08c379a0000000000000000000000000000000000000000000000000000000008152600401610dc7906126fd565b60405180910390fd5b80600560003373ffffffffffffffffffffffffffffffffffffffff1673ffffffffffffffffffffffffffffffffffffffff16815260200190815260200160002060008473ffffffffffffffffffffffffffffffffffffffff1673ffffffffffffffffffffffffffffffffffffffff16815260200190815260200160002060006101000a81548160ff0219169083151502179055508173ffffffffffffffffffffffffffffffffffffffff163373ffffffffffffffffffffffffffffffffffffffff167f17307eab39ab6107e8899845ad3d59bd9653f200f220920489ca2b5937696c3183604051610ec19190611cd1565b60405180910390a35050565b60606000600360008473ffffffffffffffffffffffffffffffffffffffff1673ffffffffffffffffffffffffffffffffffffffff1681526020019081526020016000205467ffffffffffffffff811115610f2a57610f2961271d565b5b604051908082528060200260200182016040528015610f585781602001602082028036833780820191505090505b5090506000805b600180549050811015611014578473ffffffffffffffffffffffffffffffffffffffff166002600083815260200190815260200160002060009054906101000a900473ffffffffffffffffffffffffffffffffffffffff1673ffffffffffffffffffffffffffffffffffffffff16036110015780838381518110610fe657610fe5612682565b5b6020026020010181815250508180610ffd9061263a565b9250505b808061100c9061263a565b915050610f5f565b508192505050919050565b600073ffffffffffffffffffffffffffffffffffffffff168273ffffffffffffffffffffffffffffffffffffffff160361108e576040517f08c379a0000000000000000000000000000000000000000000000000000000008152600401611085906127be565b60405180910390fd5b3073ffffffffffffffffffffffffffffffffffffffff168273ffffffffffffffffffffffffffffffffffffffff16036110fc576040517f08c379a00000000000000000000000000000000000000000000000000000000081526004016110f390612850565b60405180910390fd5b6111063382611671565b611145576040517f08c379a000000000000000000000000000000000000000000000000000000000815260040161113c906128e2565b60405180910390fd5b611150338383611733565b5050565b600a81565b60026020528060005260406000206000915054906101000a900473ffffffffffffffffffffffffffffffffffffffff1681565b600073ffffffffffffffffffffffffffffffffffffffff168473ffffffffffffffffffffffffffffffffffffffff16036111fb576040517f08c379a00000000000000000000000000000000000000000000000000000000081526004016111f2906123c9565b60405180910390fd5b8473ffffffffffffffffffffffffffffffffffffffff163373ffffffffffffffffffffffffffffffffffffffff16148061124257506001151561123e86336115a4565b1515145b8061128057503373ffffffffffffffffffffffffffffffffffffffff1661126884610601565b73ffffffffffffffffffffffffffffffffffffffff16145b6112bf576040517f08c379a00000000000000000000000000000000000000000000000000000000081526004016112b69061245b565b60405180910390fd5b6112c98584611671565b611308576040517f08c379a00000000000000000000000000000000000000000000000000000000081526004016112ff906124ed565b60405180910390fd5b600180549050831061134f576040517f08c379a0000000000000000000000000000000000000000000000000000000008152600401611346906122cb565b60405180910390fd5b61139f85858585858080601f016020809104026020016040519081016040528093929190818152602001838380828437600081840152601f19601f820116905080830192505050505050506118fa565b5050505050565b6040518060400160405280600381526020017f414254000000000000000000000000000000000000000000000000000000000081525081565b60006113eb3384611671565b8061142957503373ffffffffffffffffffffffffffffffffffffffff1661141184610601565b73ffffffffffffffffffffffffffffffffffffffff16145b611468576040517f08c379a000000000000000000000000000000000000000000000000000000000815260040161145f90612974565b60405180910390fd5b6114723383611671565b806114b057503373ffffffffffffffffffffffffffffffffffffffff1661149883610601565b73ffffffffffffffffffffffffffffffffffffffff16145b6114ef576040517f08c379a00000000000000000000000000000000000000000000000000000000081526004016114e690612a06565b60405180910390fd5b6000806114fb85610c46565b9450505050915060008061150e86610c46565b9450505050915060008184111561153357838061152a9061263a565b94509050611543565b818061153e9061263a565b925090505b600061154f8685611aac565b905061155e81898b8533611920565b5050505050505092915050565b6040518060400160405280600b81526020017f41636164656d794265617200000000000000000000000000000000000000000081525081565b6000600560008473ffffffffffffffffffffffffffffffffffffffff1673ffffffffffffffffffffffffffffffffffffffff16815260200190815260200160002060008373ffffffffffffffffffffffffffffffffffffffff1673ffffffffffffffffffffffffffffffffffffffff16815260200190815260200160002060009054906101000a900460ff16905092915050565b60065481565b60046020528060005260406000206000915054906101000a900473ffffffffffffffffffffffffffffffffffffffff1681565b60008273ffffffffffffffffffffffffffffffffffffffff166002600084815260200190815260200160002060009054906101000a900473ffffffffffffffffffffffffffffffffffffffff1673ffffffffffffffffffffffffffffffffffffffff1614905092915050565b806004600084815260200190815260200160002060006101000a81548173ffffffffffffffffffffffffffffffffffffffff021916908373ffffffffffffffffffffffffffffffffffffffff1602179055505050565b600360008373ffffffffffffffffffffffffffffffffffffffff1673ffffffffffffffffffffffffffffffffffffffff16815260200190815260200160002060008154809291906117839061263a565b9190505550816002600083815260200190815260200160002060006101000a81548173ffffffffffffffffffffffffffffffffffffffff021916908373ffffffffffffffffffffffffffffffffffffffff160217905550600073ffffffffffffffffffffffffffffffffffffffff168373ffffffffffffffffffffffffffffffffffffffff161461189a57600360008473ffffffffffffffffffffffffffffffffffffffff1673ffffffffffffffffffffffffffffffffffffffff168152602001908152602001600020600081548092919061185e90612a26565b91905055506004600082815260200190815260200160002060006101000a81549073ffffffffffffffffffffffffffffffffffffffff02191690555b808273ffffffffffffffffffffffffffffffffffffffff168473ffffffffffffffffffffffffffffffffffffffff167fddf252ad1be2c89b69c2b068fc378daa952ba7f163c4a11628f55a4df523b3ef60405160405180910390a4505050565b611905848484611733565b61191184848484611b03565b61191a57600080fd5b50505050565b6000806040518060a001604052808881526020014267ffffffffffffffff1681526020018763ffffffff1681526020018663ffffffff1681526020018561ffff16815250905060018190806001815401808255809150506001900390600052602060002090600202016000909190919091506000820151816000015560208201518160010160006101000a81548167ffffffffffffffff021916908367ffffffffffffffff16021790555060408201518160010160086101000a81548163ffffffff021916908363ffffffff160217905550606082015181600101600c6101000a81548163ffffffff021916908363ffffffff16021790555060808201518160010160106101000a81548161ffff021916908361ffff1602179055505050600060018080549050611a519190612a4f565b90507f0a5311bd2a6608f08a180df2ee7c5946819a649b204b554bb8e39825b2c50ad5848289898c604051611a8a959493929190612a83565b60405180910390a1611a9e60008583611733565b809250505095945050505050565b6000806305f5e10084611abf9190612b05565b905060006305f5e10084611ad39190612b36565b905060006305f5e10083611ae79190612b67565b90508181611af59190612bc1565b905080935050505092915050565b6000611b0e84611c0e565b611b1b5760019050611c06565b60008473ffffffffffffffffffffffffffffffffffffffff1663150b7a02338887876040518563ffffffff1660e01b8152600401611b5c9493929190612c4a565b6020604051808303816000875af1158015611b7b573d6000803e3d6000fd5b505050506040513d601f19601f82011682018060405250810190611b9f9190612cab565b90507f150b7a023d4804d13e8c85fb27262cb750cf6ba9f9dd3bb30d90f482ceeb4b1f7bffffffffffffffffffffffffffffffffffffffffffffffffffffffff1916817bffffffffffffffffffffffffffffffffffffffffffffffffffffffff1916149150505b949350505050565b600080823b905060008163ffffffff1611915050919050565b600080fd5b600080fd5b60007fffffffff0000000000000000000000000000000000000000000000000000000082169050919050565b611c6681611c31565b8114611c7157600080fd5b50565b600081359050611c8381611c5d565b92915050565b600060208284031215611c9f57611c9e611c27565b5b6000611cad84828501611c74565b91505092915050565b60008115159050919050565b611ccb81611cb6565b82525050565b6000602082019050611ce66000830184611cc2565b92915050565b600081519050919050565b600082825260208201905092915050565b60005b83811015611d26578082015181840152602081019050611d0b565b60008484015250505050565b6000601f19601f8301169050919050565b6000611d4e82611cec565b611d588185611cf7565b9350611d68818560208601611d08565b611d7181611d32565b840191505092915050565b60006020820190508181036000830152611d968184611d43565b905092915050565b6000819050919050565b611db181611d9e565b8114611dbc57600080fd5b50565b600081359050611dce81611da8565b92915050565b600060208284031215611dea57611de9611c27565b5b6000611df884828501611dbf565b91505092915050565b600073ffffffffffffffffffffffffffffffffffffffff82169050919050565b6000611e2c82611e01565b9050919050565b611e3c81611e21565b82525050565b6000602082019050611e576000830184611e33565b92915050565b611e6681611e21565b8114611e7157600080fd5b50565b600081359050611e8381611e5d565b92915050565b60008060408385031215611ea057611e9f611c27565b5b6000611eae85828601611e74565b9250506020611ebf85828601611dbf565b9150509250929050565b611ed281611d9e565b82525050565b6000602082019050611eed6000830184611ec9565b92915050565b600080600060608486031215611f0c57611f0b611c27565b5b6000611f1a86828701611e74565b9350506020611f2b86828701611e74565b9250506040611f3c86828701611dbf565b9150509250925092565b600060208284031215611f5c57611f5b611c27565b5b6000611f6a84828501611e74565b91505092915050565b600060a082019050611f886000830188611ec9565b611f956020830187611ec9565b611fa26040830186611ec9565b611faf6060830185611ec9565b611fbc6080830184611ec9565b9695505050505050565b611fcf81611cb6565b8114611fda57600080fd5b50565b600081359050611fec81611fc6565b92915050565b6000806040838503121561200957612008611c27565b5b600061201785828601611e74565b925050602061202885828601611fdd565b9150509250929050565b600081519050919050565b600082825260208201905092915050565b6000819050602082019050919050565b61206781611d9e565b82525050565b6000612079838361205e565b60208301905092915050565b6000602082019050919050565b600061209d82612032565b6120a7818561203d565b93506120b28361204e565b8060005b838110156120e35781516120ca888261206d565b97506120d583612085565b9250506001810190506120b6565b5085935050505092915050565b6000602082019050818103600083015261210a8184612092565b905092915050565b600080fd5b600080fd5b600080fd5b60008083601f84011261213757612136612112565b5b8235905067ffffffffffffffff81111561215457612153612117565b5b6020830191508360018202830111156121705761216f61211c565b5b9250929050565b60008060008060006080868803121561219357612192611c27565b5b60006121a188828901611e74565b95505060206121b288828901611e74565b94505060406121c388828901611dbf565b935050606086013567ffffffffffffffff8111156121e4576121e3611c2c565b5b6121f088828901612121565b92509250509295509295909350565b6000806040838503121561221657612215611c27565b5b600061222485828601611dbf565b925050602061223585828601611dbf565b9150509250929050565b6000806040838503121561225657612255611c27565b5b600061226485828601611e74565b925050602061227585828601611e74565b9150509250929050565b7f746f6b656e496420646f6573206e6f7420657869737400000000000000000000600082015250565b60006122b5601683611cf7565b91506122c08261227f565b602082019050919050565b600060208201905081810360008301526122e4816122a8565b9050919050565b7f6d73672e73656e646572206973206e6f742074686520746f6b656e206f776e6560008201527f7221000000000000000000000000000000000000000000000000000000000000602082015250565b6000612347602283611cf7565b9150612352826122eb565b604082019050919050565b600060208201905081810360008301526123768161233a565b9050919050565b7f4d757374206e6f742062652073656e7420746f20302061646472657373000000600082015250565b60006123b3601d83611cf7565b91506123be8261237d565b602082019050919050565b600060208201905081810360008301526123e2816123a6565b9050919050565b7f4e6f7420617574686f72697a656420746f2073656e64207472616e736163746960008201527f6f6e000000000000000000000000000000000000000000000000000000000000602082015250565b6000612445602283611cf7565b9150612450826123e9565b604082019050919050565b6000602082019050818103600083015261247481612438565b9050919050565b7f46726f6d2d41646472657373206973206e6f742074686520746f6b656e206f7760008201527f6e65722100000000000000000000000000000000000000000000000000000000602082015250565b60006124d7602483611cf7565b91506124e28261247b565b604082019050919050565b60006020820190508181036000830152612506816124ca565b9050919050565b7f43616c6c6572206973206e6f7420746865206f776e6572000000000000000000600082015250565b6000612543601783611cf7565b915061254e8261250d565b602082019050919050565b6000602082019050818103600083015261257281612536565b9050919050565b7f47656e65726174696f6e203020737570706c7920616c72656164792066756c6c60008201527f79206d696e746564210000000000000000000000000000000000000000000000602082015250565b60006125d5602983611cf7565b91506125e082612579565b604082019050919050565b60006020820190508181036000830152612604816125c8565b9050919050565b7f4e487b7100000000000000000000000000000000000000000000000000000000600052601160045260246000fd5b600061264582611d9e565b91507fffffffffffffffffffffffffffffffffffffffffffffffffffffffffffffffff82036126775761267661260b565b5b600182019050919050565b7f4e487b7100000000000000000000000000000000000000000000000000000000600052603260045260246000fd5b7f6f70657261746f72206d757374206e6f74206265206d73672e73656e64657200600082015250565b60006126e7601f83611cf7565b91506126f2826126b1565b602082019050919050565b60006020820190508181036000830152612716816126da565b9050919050565b7f4e487b7100000000000000000000000000000000000000000000000000000000600052604160045260246000fd5b7f496e76616c696420416464726573733b2043616e6e6f74207472616e7366657260008201527f20746f2041646472657373203021000000000000000000000000000000000000602082015250565b60006127a8602e83611cf7565b91506127b38261274c565b604082019050919050565b600060208201905081810360008301526127d78161279b565b9050919050565b7f496e76616c696420416464726573733b2043616e6e6f74207472616e7366657260008201527f20746f20436f6e74726163742041646472657373210000000000000000000000602082015250565b600061283a603583611cf7565b9150612845826127de565b604082019050919050565b600060208201905081810360008301526128698161282d565b9050919050565b7f496e76616c696420416464726573733b2043616e6e6f74207472616e7366657260008201527f20746f206f776e20416464726573732100000000000000000000000000000000602082015250565b60006128cc603083611cf7565b91506128d782612870565b604082019050919050565b600060208201905081810360008301526128fb816128bf565b9050919050565b7f6d73672e73656e646572206973206e6f742074686520746f6b656e206f776e6560008201527f72206f6620746865206661746865722100000000000000000000000000000000602082015250565b600061295e603083611cf7565b915061296982612902565b604082019050919050565b6000602082019050818103600083015261298d81612951565b9050919050565b7f6d73672e73656e646572206973206e6f742074686520746f6b656e206f776e6560008201527f72206f6620746865206d6f746865722100000000000000000000000000000000602082015250565b60006129f0603083611cf7565b91506129fb82612994565b604082019050919050565b60006020820190508181036000830152612a1f816129e3565b9050919050565b6000612a3182611d9e565b915060008203612a4457612a4361260b565b5b600182039050919050565b6000612a5a82611d9e565b9150612a6583611d9e565b9250828203905081811115612a7d57612a7c61260b565b5b92915050565b600060a082019050612a986000830188611e33565b612aa56020830187611ec9565b612ab26040830186611ec9565b612abf6060830185611ec9565b612acc6080830184611ec9565b9695505050505050565b7f4e487b7100000000000000000000000000000000000000000000000000000000600052601260045260246000fd5b6000612b1082611d9e565b9150612b1b83611d9e565b925082612b2b57612b2a612ad6565b5b828204905092915050565b6000612b4182611d9e565b9150612b4c83611d9e565b925082612b5c57612b5b612ad6565b5b828206905092915050565b6000612b7282611d9e565b9150612b7d83611d9e565b9250817fffffffffffffffffffffffffffffffffffffffffffffffffffffffffffffffff0483118215151615612bb657612bb561260b565b5b828202905092915050565b6000612bcc82611d9e565b9150612bd783611d9e565b9250828201905080821115612bef57612bee61260b565b5b92915050565b600081519050919050565b600082825260208201905092915050565b6000612c1c82612bf5565b612c268185612c00565b9350612c36818560208601611d08565b612c3f81611d32565b840191505092915050565b6000608082019050612c5f6000830187611e33565b612c6c6020830186611e33565b612c796040830185611ec9565b8181036060830152612c8b8184612c11565b905095945050505050565b600081519050612ca581611c5d565b92915050565b600060208284031215612cc157612cc0611c27565b5b6000612ccf84828501612c96565b9150509291505056fea26469706673582212206934e15b38b7156192270e20c588c049ae8b876366e68f11709ecb12d00ba5f264736f6c63430008100033",
  "immutableReferences": {},
  "source": "// SPDX-License-Identifier: MIT\r\npragma solidity ^0.8.16;\r\npragma experimental ABIEncoderV2;\r\n\r\nimport \"./IERC721.sol\";\r\nimport \"./Ownable.sol\";\r\nimport \"./IERC721Receiver.sol\";\r\n\r\ncontract Bearcontract is IERC721, Ownable {\r\n\r\n    uint256 public constant CREATION_LIMIT_GEN0 = 10;\r\n    string public constant bearTicker = \"AcademyBear\";\r\n    string public constant bearSymbol = \"ABT\";\r\n\r\n    bytes4 internal constant ERC721_RECEIVED= bytes4(keccak256(\"onERC721Received(address,address,uint256,bytes)\"));\r\n    \r\n    //Interface IDs\r\n    bytes4 private constant _INTERFACE_ID_ERC721 = 0x80ac58cd;\r\n    bytes4 private constant _INTERFACE_ID_ERC165 = 0x01ffc9a7;\r\n\r\n    //Interface Support for ERC721 and ERC165\r\n    function supportsInterface(bytes4 _interfaceId) external view returns (bool) {\r\n        return (_interfaceId == _INTERFACE_ID_ERC721 || _interfaceId == _INTERFACE_ID_ERC165);\r\n    }\r\n\r\n    //Birth event for Bears\r\n    event Birth(\r\n        address owner, \r\n        uint256 bearId, \r\n        uint256 mumId, \r\n        uint256 dadId, \r\n        uint256 genes\r\n    );\r\n\r\n    //Struct of the Bears\r\n    struct Bear {\r\n        uint256 genes;\r\n        uint64 birthTime;\r\n        uint32 mumId;\r\n        uint32 dadId;\r\n        uint16 generation;\r\n    }\r\n\r\n    Bear[] bears;\r\n\r\n    mapping (uint256 => address) public bearIndexToOwner;\r\n    mapping (address => uint256) tokenOwnershipCount;\r\n    mapping (uint256 => address) public bearIndexToApproved;\r\n    mapping (address => mapping (address => bool)) private _operatorApprovals;\r\n\r\n    uint256 public gen0Counter;\r\n\r\n    //breeding new Bears\r\n    function breed(uint256 dadId, uint256 mumId) public returns (uint256) {\r\n        //check ownership\r\n        require(_owns(msg.sender, dadId) || getApproved(dadId) == msg.sender, \"msg.sender is not the token owner of the father!\");\r\n        require(_owns(msg.sender, mumId) || getApproved(mumId) == msg.sender, \"msg.sender is not the token owner of the mother!\");\r\n\r\n        //new generation is determined\r\n        (uint256 dadDna,,,,uint256 dadGen) = getBear(dadId);\r\n        (uint256 mumDna,,,,uint256 mumGen) = getBear(mumId);\r\n\r\n        uint256 newGen;\r\n\r\n        if(dadGen > mumGen) {\r\n            newGen = dadGen++;\r\n        }\r\n        else {\r\n            newGen = mumGen++;\r\n        }\r\n\r\n        //DNA String is made\r\n        uint256 newDna = _mixDna(dadDna, mumDna);\r\n\r\n        //create new bear\r\n        _createBear(newDna, mumId, dadId, newGen, msg.sender);\r\n    }\r\n\r\n    //Dna of parent bears gets mixed\r\n    function _mixDna(uint256 _dadDna, uint256 _mumDna) internal returns (uint256) {\r\n        uint256 firstDnaHalf = _dadDna / 100000000;\r\n        uint256 secondDnaHalf = _mumDna % 100000000;\r\n\r\n        uint256 newDna = firstDnaHalf * 100000000;\r\n        newDna = newDna + secondDnaHalf;\r\n        return newDna;\r\n    }\r\n\r\n    //Owner can create gen0 bears\r\n    function createBearGen0(uint256 genes) public onlyOwner returns (uint256){\r\n        require(gen0Counter <= CREATION_LIMIT_GEN0, \"Generation 0 supply already fully minted!\");\r\n\r\n        gen0Counter++;\r\n\r\n        //Gen0 are owned by the contract\r\n        return(_createBear(genes, 0, 0, 0, address(0)));\r\n    }\r\n\r\n    //create Bear\r\n    function _createBear( \r\n        uint256 _genes,\r\n        uint256 _mumId,\r\n        uint256 _dadId,\r\n        uint256 _generation,\r\n        address _owner\r\n    ) private returns (uint256) {\r\n        Bear memory _bear = Bear({\r\n            genes: _genes,\r\n            birthTime: uint64(block.timestamp),\r\n            mumId: uint32(_mumId),\r\n            dadId: uint32(_dadId),\r\n            generation: uint16(_generation)\r\n        });\r\n\r\n        bears.push(_bear);\r\n\r\n        uint256 newBearId = bears.length - 1;\r\n\r\n        emit Birth(_owner, newBearId, _mumId, _dadId, _genes);\r\n\r\n        _transfer(address(0), _owner, newBearId);\r\n\r\n        return newBearId;\r\n    }\r\n\r\n    function getBearByOwner(address owner) external view returns (uint[] memory) {\r\n        uint[] memory result = new uint[](tokenOwnershipCount[owner]);\r\n        uint counter = 0;\r\n        for (uint i = 0; i < bears.length; i++) {\r\n            if (bearIndexToOwner[i] == owner) {\r\n                result[counter] = i;\r\n                counter++;\r\n            }\r\n        }\r\n        return result;\r\n    }\r\n\r\n    //returns bear properties\r\n    function getBear(uint256 tokenId) public view returns (\r\n        uint256 genes,\r\n        uint256 birthTime,\r\n        uint256 mumId,\r\n        uint256 dadId,\r\n        uint256 generation\r\n    ){ \r\n        Bear storage bear = bears[tokenId];\r\n\r\n        genes = uint256 (bear.genes);\r\n        birthTime = uint256 (bear.birthTime);\r\n        mumId = uint256 (bear.mumId);\r\n        dadId = uint256 (bear.dadId);\r\n        generation = uint256 (bear.generation);\r\n    }\r\n\r\n    //Returns the number of tokens in ``owner``'s account.\r\n    function balanceOf(address owner) external view returns (uint256 balance) {\r\n        return tokenOwnershipCount[owner];\r\n    }\r\n\r\n    //Returns the total number of tokens in circulation.\r\n    function totalSupply() external view returns (uint256) {\r\n        return bears.length;\r\n    }\r\n\r\n    //Returns the name of the token.\r\n    function name() external view returns (string memory tokenName) {\r\n        tokenName = bearTicker;\r\n    }\r\n\r\n    //Returns the symbol of the token.\r\n    function symbol() external view returns (string memory tokenSymbol) {\r\n        tokenSymbol = bearSymbol;\r\n    }\r\n\r\n    //Returns the owner of the `tokenId` token.\r\n    function ownerOf(uint256 tokenId) external view returns (address) {\r\n        return bearIndexToOwner[tokenId];\r\n    }\r\n\r\n    //Transfers `tokenId` token from `msg.sender` to `to`\r\n    function transfer(address to, uint256 tokenId) external {\r\n        require(to != address(0), \"Invalid Address; Cannot transfer to Address 0!\");\r\n        require(to != address(this), \"Invalid Address; Cannot transfer to Contract Address!\");\r\n        require(_owns(msg.sender, tokenId), \"Invalid Address; Cannot transfer to own Address!\");\r\n\r\n        _transfer(msg.sender, to, tokenId);\r\n    }\r\n\r\n    function _transfer(address _from, address _to, uint256 _tokenId) internal {\r\n        tokenOwnershipCount[_to]++;\r\n        bearIndexToOwner[_tokenId] = _to;\r\n        \r\n        if(_from != address(0)) {\r\n            tokenOwnershipCount[_from]--;\r\n            delete bearIndexToApproved[_tokenId];\r\n        }\r\n\r\n    //Emitted when `tokenId` token is transfered from `from` to `to`.\r\n        emit Transfer(_from, _to, _tokenId);\r\n    }\r\n    \r\n    //Change or reaffirm the approved address for an NFT\r\n    function approve(address _to, uint256 _tokenId) public {\r\n        require(_owns(msg.sender, _tokenId), \"msg.sender is not the token owner!\");\r\n\r\n        _approve(_tokenId, _to);\r\n        emit Approval(msg.sender, _to, _tokenId);\r\n    }\r\n\r\n    function _owns(address _claimant, uint256 _tokenId) internal view returns (bool) {\r\n        return bearIndexToOwner[_tokenId] == _claimant;\r\n    }\r\n    \r\n    function _approve(uint256 _tokenId, address _approved) internal {\r\n        bearIndexToApproved[_tokenId] = _approved;\r\n    }\r\n\r\n    //Enable or disable approval for a third party (\"operator\") to manage all of `msg.sender`'s assets\r\n    function setApprovalForAll(address operator, bool approved) public {\r\n        require(operator != msg.sender, \"operator must not be msg.sender\");\r\n\r\n        _operatorApprovals[msg.sender][operator] = approved;\r\n\r\n    //Emitted when `owner` enables or disables (`approved`) `operator` to manage all of its assets.\r\n        emit ApprovalForAll(msg.sender, operator, approved);\r\n    }\r\n\r\n    //Get the approved address for a single NFT\r\n    function getApproved(uint256 tokenId) public view returns (address) {\r\n        require(tokenId < bears.length, \"tokenId does not exist\");\r\n        return bearIndexToOwner[tokenId];\r\n    }\r\n\r\n    //Query if an address is an authorized operator for another address\r\n    function isApprovedForAll(address owner, address operator) public view returns (bool) {\r\n        return _operatorApprovals[owner][operator];\r\n    }\r\n\r\n    // Transfers the ownership of an NFT from one address to another address, including data\r\n    function safeTransferFrom(address from, address to, uint256 tokenId, bytes calldata data) public {\r\n        require(to != address(0), \"Must not be sent to 0 address\");\r\n        require(msg.sender == from || isApprovedForAll(from, msg.sender) == true || getApproved(tokenId) == msg.sender, \"Not authorized to send transaction\");\r\n        require(_owns(from, tokenId), \"From-Address is not the token owner!\");\r\n        require(tokenId < bears.length, \"tokenId does not exist\");\r\n\r\n        _safeTransfer(from, to, tokenId, data);\r\n    }\r\n\r\n    // Transfers the ownership of an NFT from one address to another address\r\n    function safeTransferFrom(address from, address to, uint256 tokenId) public {\r\n        require(to != address(0), \"Must not be sent to 0 address\");\r\n        require(msg.sender == from || isApprovedForAll(from, msg.sender) == true || getApproved(tokenId) == msg.sender, \"Not authorized to send transaction\");\r\n        require(_owns(from, tokenId), \"From-Address is not the token owner!\");\r\n        require(tokenId < bears.length, \"tokenId does not exist\");\r\n\r\n        _safeTransfer(from, to, tokenId, \"\");\r\n    }\r\n\r\n    function _safeTransfer(address _from, address _to, uint256 _tokenId, bytes memory _data) internal {\r\n        _transfer(_from, _to, _tokenId);\r\n        require(_checkERC721Support(_from, _to, _tokenId, _data));\r\n    }\r\n\r\n    //Check if receiving contract supports ERC721\r\n    function _checkERC721Support(address _from, address _to, uint256 _tokenId, bytes memory _data) internal returns (bool) {\r\n        if(!_isContract(_to)) {\r\n            return true;\r\n        }\r\n        //Call onERC721Received in _to contract\r\n        bytes4 returnData = IERC721Receiver(_to).onERC721Received(msg.sender, _from, _tokenId, _data);\r\n\r\n        //Check return value\r\n        return returnData == ERC721_RECEIVED;\r\n    }\r\n\r\n    //Check to see if recipient is a contract\r\n    function _isContract(address _to) view internal returns (bool) {\r\n        uint32 size;\r\n        assembly{\r\n            size := extcodesize(_to)\r\n        }\r\n        return size > 0;\r\n    }\r\n\r\n    // Transfer ownership of an NFT\r\n    function transferFrom(address from, address to, uint256 tokenId) public {\r\n        require(to != address(0), \"Must not be sent to 0 address\");\r\n        require(_owns(msg.sender, tokenId) || isApprovedForAll(from, msg.sender) == true || getApproved(tokenId) == msg.sender, \"Not authorized to send transaction\");\r\n        require(_owns(from, tokenId), \"From-Address is not the token owner!\");\r\n        require(tokenId < bears.length, \"tokenId does not exist\");\r\n\r\n        _transfer(from, to, tokenId);\r\n    }\r\n}",
  "sourcePath": "C:\\Users\\Admin\\Webdev\\nft_marketplace\\academy-kitties-template\\contracts\\Bearcontract.sol",
  "compiler": {
    "name": "solc",
    "version": "0.8.16+commit.07a7930e.Emscripten.clang"
  },
  "schemaVersion": "3.4.7",
  "updatedAt": "2022-09-15T09:45:54.009Z",
  "devdoc": {
    "kind": "dev",
    "methods": {
      "balanceOf(address)": {
        "details": "Returns the number of tokens in ``owner``'s account."
      },
      "ownerOf(uint256)": {
        "details": "Returns the owner of the `tokenId` token. Requirements: - `tokenId` must exist."
      }
    },
    "version": 1
  },
  "userdoc": {
    "kind": "user",
    "methods": {},
    "version": 1
  }
}