{
  "contractName": "BearMarket",
  "abi": [
    {
      "inputs": [
        {
          "internalType": "address",
          "name": "_bearContractAddress",
          "type": "address"
        }
      ],
      "stateMutability": "nonpayable",
      "type": "constructor"
    },
    {
      "anonymous": false,
      "inputs": [
        {
          "indexed": false,
          "internalType": "string",
          "name": "TxType",
          "type": "string"
        },
        {
          "indexed": false,
          "internalType": "address",
          "name": "owner",
          "type": "address"
        },
        {
          "indexed": false,
          "internalType": "uint256",
          "name": "tokenId",
          "type": "uint256"
        }
      ],
      "name": "MarketTransaction",
      "type": "event"
    },
    {
      "inputs": [],
      "name": "owner",
      "outputs": [
        {
          "internalType": "address",
          "name": "",
          "type": "address"
        }
      ],
      "stateMutability": "view",
      "type": "function"
    },
    {
      "inputs": [
        {
          "internalType": "address",
          "name": "_bearContractAddress",
          "type": "address"
        }
      ],
      "name": "setBearContract",
      "outputs": [],
      "stateMutability": "nonpayable",
      "type": "function"
    },
    {
      "inputs": [
        {
          "internalType": "uint256",
          "name": "tokenId",
          "type": "uint256"
        }
      ],
      "name": "getOffer",
      "outputs": [
        {
          "internalType": "address",
          "name": "seller",
          "type": "address"
        },
        {
          "internalType": "uint256",
          "name": "price",
          "type": "uint256"
        },
        {
          "internalType": "uint256",
          "name": "index",
          "type": "uint256"
        },
        {
          "internalType": "uint256",
          "name": "_tokenId",
          "type": "uint256"
        },
        {
          "internalType": "bool",
          "name": "active",
          "type": "bool"
        }
      ],
      "stateMutability": "view",
      "type": "function"
    },
    {
      "inputs": [],
      "name": "getAllTokenOnSale",
      "outputs": [
        {
          "internalType": "uint256[]",
          "name": "listOfOffers",
          "type": "uint256[]"
        }
      ],
      "stateMutability": "view",
      "type": "function"
    },
    {
      "inputs": [
        {
          "internalType": "uint256",
          "name": "price",
          "type": "uint256"
        },
        {
          "internalType": "uint256",
          "name": "tokenId",
          "type": "uint256"
        }
      ],
      "name": "setOffer",
      "outputs": [],
      "stateMutability": "nonpayable",
      "type": "function"
    },
    {
      "inputs": [
        {
          "internalType": "uint256",
          "name": "tokenId",
          "type": "uint256"
        }
      ],
      "name": "removeOffer",
      "outputs": [],
      "stateMutability": "nonpayable",
      "type": "function"
    },
    {
      "inputs": [
        {
          "internalType": "uint256",
          "name": "tokenId",
          "type": "uint256"
        }
      ],
      "name": "buyBear",
      "outputs": [],
      "stateMutability": "payable",
      "type": "function"
    }
  ],
  "bytecode": "0x6080604052336000806101000a81548173ffffffffffffffffffffffffffffffffffffffff021916908373ffffffffffffffffffffffffffffffffffffffff1602179055503480156200005157600080fd5b5060405162000b6338038062000b638339818101604052810190620000779190620001e6565b62000088816200008f60201b60201c565b506200029b565b3373ffffffffffffffffffffffffffffffffffffffff16620000b66200015360201b60201c565b73ffffffffffffffffffffffffffffffffffffffff16146200010f576040517f08c379a0000000000000000000000000000000000000000000000000000000008152600401620001069062000279565b60405180910390fd5b80600160006101000a81548173ffffffffffffffffffffffffffffffffffffffff021916908373ffffffffffffffffffffffffffffffffffffffff16021790555050565b60008060009054906101000a900473ffffffffffffffffffffffffffffffffffffffff16905090565b600080fd5b600073ffffffffffffffffffffffffffffffffffffffff82169050919050565b6000620001ae8262000181565b9050919050565b620001c081620001a1565b8114620001cc57600080fd5b50565b600081519050620001e081620001b5565b92915050565b600060208284031215620001ff57620001fe6200017c565b5b60006200020f84828501620001cf565b91505092915050565b600082825260208201905092915050565b7f43616c6c6572206973206e6f7420746865206f776e6572000000000000000000600082015250565b60006200026160178362000218565b91506200026e8262000229565b602082019050919050565b60006020820190508181036000830152620002948162000252565b9050919050565b6108b880620002ab6000396000f3fe6080604052600436106100705760003560e01c806370e8c5ea1161004e57806370e8c5ea1461010a5780638da5cb5b14610126578063941b055b1461015157806395a0f9c71461017a57610070565b80634579268a1461007557806345b98e32146100b657806349b3709f146100df575b600080fd5b34801561008157600080fd5b5061009c6004803603810190610097919061040a565b6101a3565b6040516100ad9594939291906104a2565b60405180910390f35b3480156100c257600080fd5b506100dd60048036038101906100d89190610521565b61026c565b005b3480156100eb57600080fd5b506100f4610325565b604051610101919061060c565b60405180910390f35b610124600480360381019061011f919061040a565b61032a565b005b34801561013257600080fd5b5061013b610366565b604051610148919061062e565b60405180910390f35b34801561015d57600080fd5b5061017860048036038101906101739190610649565b61038f565b005b34801561018657600080fd5b506101a1600480360381019061019c919061040a565b6103cc565b005b6000806000806000806003600088815260200190815260200160002090508060040160009054906101000a900460ff16610212576040517f08c379a0000000000000000000000000000000000000000000000000000000008152600401610209906106e6565b60405180910390fd5b8060000160009054906101000a900473ffffffffffffffffffffffffffffffffffffffff168160010154826002015483600301548460040160009054906101000a900460ff16955095509550955095505091939590929450565b3373ffffffffffffffffffffffffffffffffffffffff1661028b610366565b73ffffffffffffffffffffffffffffffffffffffff16146102e1576040517f08c379a00000000000000000000000000000000000000000000000000000000081526004016102d890610752565b60405180910390fd5b80600160006101000a81548173ffffffffffffffffffffffffffffffffffffffff021916908373ffffffffffffffffffffffffffffffffffffffff16021790555050565b606090565b7fd99e4fad9ad6313b1feb588fa8e605e3a9873172f2024330c35dd2b4041a4386338260405161035b9291906107be565b60405180910390a150565b60008060009054906101000a900473ffffffffffffffffffffffffffffffffffffffff16905090565b7fd99e4fad9ad6313b1feb588fa8e605e3a9873172f2024330c35dd2b4041a438633826040516103c0929190610846565b60405180910390a15050565b50565b600080fd5b6000819050919050565b6103e7816103d4565b81146103f257600080fd5b50565b600081359050610404816103de565b92915050565b6000602082840312156104205761041f6103cf565b5b600061042e848285016103f5565b91505092915050565b600073ffffffffffffffffffffffffffffffffffffffff82169050919050565b600061046282610437565b9050919050565b61047281610457565b82525050565b610481816103d4565b82525050565b60008115159050919050565b61049c81610487565b82525050565b600060a0820190506104b76000830188610469565b6104c46020830187610478565b6104d16040830186610478565b6104de6060830185610478565b6104eb6080830184610493565b9695505050505050565b6104fe81610457565b811461050957600080fd5b50565b60008135905061051b816104f5565b92915050565b600060208284031215610537576105366103cf565b5b60006105458482850161050c565b91505092915050565b600081519050919050565b600082825260208201905092915050565b6000819050602082019050919050565b610583816103d4565b82525050565b6000610595838361057a565b60208301905092915050565b6000602082019050919050565b60006105b98261054e565b6105c38185610559565b93506105ce8361056a565b8060005b838110156105ff5781516105e68882610589565b97506105f1836105a1565b9250506001810190506105d2565b5085935050505092915050565b6000602082019050818103600083015261062681846105ae565b905092915050565b60006020820190506106436000830184610469565b92915050565b600080604083850312156106605761065f6103cf565b5b600061066e858286016103f5565b925050602061067f858286016103f5565b9150509250929050565b600082825260208201905092915050565b7f6e6f20616374697665206f66666572206f6e207468697320746f6b656e496400600082015250565b60006106d0601f83610689565b91506106db8261069a565b602082019050919050565b600060208201905081810360008301526106ff816106c3565b9050919050565b7f43616c6c6572206973206e6f7420746865206f776e6572000000000000000000600082015250565b600061073c601783610689565b915061074782610706565b602082019050919050565b6000602082019050818103600083015261076b8161072f565b9050919050565b7f4275792042656172000000000000000000000000000000000000000000000000600082015250565b60006107a8600883610689565b91506107b382610772565b602082019050919050565b600060608201905081810360008301526107d78161079b565b90506107e66020830185610469565b6107f36040830184610478565b9392505050565b7f437265617465204f666665720000000000000000000000000000000000000000600082015250565b6000610830600c83610689565b915061083b826107fa565b602082019050919050565b6000606082019050818103600083015261085f81610823565b905061086e6020830185610469565b61087b6040830184610478565b939250505056fea2646970667358221220a136d45acf0a09e3b5c146f6ad14511a5a1ac8c92945c2d81f76c7a361778df064736f6c63430008100033",
  "immutableReferences": {},
  "source": "// SPDX-License-Identifier: MIT\r\npragma solidity ^0.8.16;\r\npragma experimental ABIEncoderV2;\r\n\r\nimport \"./Bearcontract.sol\";\r\nimport \"./Ownable.sol\";\r\nimport \"./IBearMarketPlace.sol\";\r\n\r\ncontract BearMarket is Ownable, IBearMarketPlace {\r\n\r\n    Bearcontract private _bearcontract;\r\n\r\n    struct Offer {\r\n        address payable seller;\r\n        uint256 price;\r\n        uint256 index;\r\n        uint256 tokenId;\r\n        bool active;\r\n    }\r\n\r\n    Offer[] offers;\r\n\r\n    mapping(uint256 => Offer) tokenIdToOffer;\r\n\r\n\r\n    //Function and constructor to set the Bearcontract\r\n    function setBearContract(address _bearContractAddress) onlyOwner public {\r\n        _bearcontract = Bearcontract(_bearContractAddress);\r\n    }\r\n\r\n    constructor(address _bearContractAddress) public {\r\n        setBearContract(_bearContractAddress);\r\n    }\r\n\r\n    /**\r\n    * Get the details about a offer for tokenId. Throws an error if there is no active offer for tokenId.\r\n     */\r\n    function getOffer(uint256 tokenId) public view returns (address seller, uint256 price, uint256 index, uint256 _tokenId, bool active) {\r\n        Offer storage offer = tokenIdToOffer[tokenId];\r\n        require(offer.active, \"no active offer on this tokenId\");\r\n        return(\r\n            offer.seller,\r\n            offer.price,\r\n            offer.index,\r\n            offer.tokenId,\r\n            offer.active\r\n        );\r\n    }\r\n\r\n    /**\r\n    * Get all tokenId's that are currently for sale. Returns an empty array if none exist.\r\n     */\r\n    function getAllTokenOnSale() external view  returns(uint256[] memory listOfOffers) {\r\n\r\n    }\r\n\r\n    /**\r\n    * Creates a new offer for _tokenId for the price _price.\r\n    * Emits the MarketTransaction event with txType \"Create offer\"\r\n    * Requirement: Only the owner of _tokenId can create an offer.\r\n    * Requirement: There can only be one active offer for a token at a time.\r\n    * Requirement: Marketplace contract (this) needs to be an approved operator when the offer is created.\r\n     */\r\n    function setOffer(uint256 price, uint256 tokenId) public {\r\n        emit MarketTransaction(\"Create Offer\", msg.sender, tokenId);\r\n    }\r\n\r\n    /**\r\n    * Removes an existing offer.\r\n    * Emits the MarketTransaction event with txType \"Remove offer\"\r\n    * Requirement: Only the seller of _tokenId can remove an offer.\r\n     */\r\n    function removeOffer(uint256 tokenId) public {\r\n\r\n    }\r\n\r\n    /**\r\n    * Executes the purchase of tokenId.\r\n    * Sends the funds to the seller and transfers the token using transferFrom in Bearcontract.\r\n    * Emits the MarketTransaction event with txType \"Buy\".\r\n    * Requirement: The msg.value needs to equal the price of _tokenId\r\n    * Requirement: There must be an active offer for _tokenId\r\n     */\r\n    function buyBear(uint256 tokenId) public payable {\r\n        emit MarketTransaction(\"Buy Bear\", msg.sender, tokenId);\r\n    }\r\n}",
  "sourcePath": "C:\\Users\\Admin\\Webdev\\nft_marketplace\\academy-kitties-template\\contracts\\BearMarketplace.sol",
  "compiler": {
    "name": "solc",
    "version": "0.8.16+commit.07a7930e.Emscripten.clang"
  },
  "schemaVersion": "3.4.7",
  "updatedAt": "2022-09-26T08:52:32.232Z",
  "devdoc": {
    "kind": "dev",
    "methods": {},
    "version": 1
  },
  "userdoc": {
    "kind": "user",
    "methods": {
      "buyBear(uint256)": {
        "notice": "Executes the purchase of tokenId. Sends the funds to the seller and transfers the token using transferFrom in Bearcontract. Emits the MarketTransaction event with txType \"Buy\". Requirement: The msg.value needs to equal the price of _tokenId Requirement: There must be an active offer for _tokenId"
      },
      "getAllTokenOnSale()": {
        "notice": "Get all tokenId's that are currently for sale. Returns an empty array if none exist."
      },
      "getOffer(uint256)": {
        "notice": "Get the details about a offer for tokenId. Throws an error if there is no active offer for tokenId."
      },
      "removeOffer(uint256)": {
        "notice": "Removes an existing offer. Emits the MarketTransaction event with txType \"Remove offer\" Requirement: Only the seller of _tokenId can remove an offer."
      },
      "setBearContract(address)": {
        "notice": "Set the current KittyContract address and initialize the instance of Kittycontract. Requirement: Only the contract owner can call."
      },
      "setOffer(uint256,uint256)": {
        "notice": "Creates a new offer for _tokenId for the price _price. Emits the MarketTransaction event with txType \"Create offer\" Requirement: Only the owner of _tokenId can create an offer. Requirement: There can only be one active offer for a token at a time. Requirement: Marketplace contract (this) needs to be an approved operator when the offer is created."
      }
    },
    "version": 1
  }
}