{
  "contractName": "Bearcontract",
  "abi": [
    {
      "anonymous": false,
      "inputs": [
        {
          "indexed": true,
          "internalType": "address",
          "name": "owner",
          "type": "address"
        },
        {
          "indexed": true,
          "internalType": "address",
          "name": "approved",
          "type": "address"
        },
        {
          "indexed": true,
          "internalType": "uint256",
          "name": "tokenId",
          "type": "uint256"
        }
      ],
      "name": "Approval",
      "type": "event"
    },
    {
      "anonymous": false,
      "inputs": [
        {
          "indexed": false,
          "internalType": "address",
          "name": "owner",
          "type": "address"
        },
        {
          "indexed": false,
          "internalType": "uint256",
          "name": "bearId",
          "type": "uint256"
        },
        {
          "indexed": false,
          "internalType": "uint256",
          "name": "mumId",
          "type": "uint256"
        },
        {
          "indexed": false,
          "internalType": "uint256",
          "name": "dadId",
          "type": "uint256"
        },
        {
          "indexed": false,
          "internalType": "uint256",
          "name": "genes",
          "type": "uint256"
        }
      ],
      "name": "Birth",
      "type": "event"
    },
    {
      "anonymous": false,
      "inputs": [
        {
          "indexed": true,
          "internalType": "address",
          "name": "from",
          "type": "address"
        },
        {
          "indexed": true,
          "internalType": "address",
          "name": "to",
          "type": "address"
        },
        {
          "indexed": true,
          "internalType": "uint256",
          "name": "tokenId",
          "type": "uint256"
        }
      ],
      "name": "Transfer",
      "type": "event"
    },
    {
      "inputs": [],
      "name": "CREATION_LIMIT_GEN0",
      "outputs": [
        {
          "internalType": "uint256",
          "name": "",
          "type": "uint256"
        }
      ],
      "stateMutability": "view",
      "type": "function",
      "constant": true
    },
    {
      "inputs": [],
      "name": "bearSymbol",
      "outputs": [
        {
          "internalType": "string",
          "name": "",
          "type": "string"
        }
      ],
      "stateMutability": "view",
      "type": "function",
      "constant": true
    },
    {
      "inputs": [],
      "name": "bearTicker",
      "outputs": [
        {
          "internalType": "string",
          "name": "",
          "type": "string"
        }
      ],
      "stateMutability": "view",
      "type": "function",
      "constant": true
    },
    {
      "inputs": [],
      "name": "gen0Counter",
      "outputs": [
        {
          "internalType": "uint256",
          "name": "",
          "type": "uint256"
        }
      ],
      "stateMutability": "view",
      "type": "function",
      "constant": true
    },
    {
      "inputs": [],
      "name": "owner",
      "outputs": [
        {
          "internalType": "address",
          "name": "",
          "type": "address"
        }
      ],
      "stateMutability": "view",
      "type": "function",
      "constant": true
    },
    {
      "inputs": [
        {
          "internalType": "uint256",
          "name": "_genes",
          "type": "uint256"
        }
      ],
      "name": "createBearGen0",
      "outputs": [
        {
          "internalType": "uint256",
          "name": "",
          "type": "uint256"
        }
      ],
      "stateMutability": "nonpayable",
      "type": "function"
    },
    {
      "inputs": [],
      "name": "getBear",
      "outputs": [],
      "stateMutability": "nonpayable",
      "type": "function"
    },
    {
      "inputs": [
        {
          "internalType": "address",
          "name": "owner",
          "type": "address"
        }
      ],
      "name": "balanceOf",
      "outputs": [
        {
          "internalType": "uint256",
          "name": "balance",
          "type": "uint256"
        }
      ],
      "stateMutability": "view",
      "type": "function",
      "constant": true
    },
    {
      "inputs": [],
      "name": "totalSupply",
      "outputs": [
        {
          "internalType": "uint256",
          "name": "",
          "type": "uint256"
        }
      ],
      "stateMutability": "view",
      "type": "function",
      "constant": true
    },
    {
      "inputs": [],
      "name": "name",
      "outputs": [
        {
          "internalType": "string",
          "name": "tokenName",
          "type": "string"
        }
      ],
      "stateMutability": "view",
      "type": "function",
      "constant": true
    },
    {
      "inputs": [],
      "name": "symbol",
      "outputs": [
        {
          "internalType": "string",
          "name": "tokenSymbol",
          "type": "string"
        }
      ],
      "stateMutability": "view",
      "type": "function",
      "constant": true
    },
    {
      "inputs": [
        {
          "internalType": "uint256",
          "name": "tokenId",
          "type": "uint256"
        }
      ],
      "name": "ownerOf",
      "outputs": [
        {
          "internalType": "address",
          "name": "",
          "type": "address"
        }
      ],
      "stateMutability": "view",
      "type": "function",
      "constant": true
    },
    {
      "inputs": [
        {
          "internalType": "address",
          "name": "to",
          "type": "address"
        },
        {
          "internalType": "uint256",
          "name": "tokenId",
          "type": "uint256"
        }
      ],
      "name": "transfer",
      "outputs": [],
      "stateMutability": "nonpayable",
      "type": "function"
    }
  ],
  "bytecode": "0x6080604052336000806101000a81548173ffffffffffffffffffffffffffffffffffffffff021916908373ffffffffffffffffffffffffffffffffffffffff16021790555034801561005057600080fd5b5061111a806100606000396000f3fe608060405234801561001057600080fd5b50600436106100cf5760003560e01c80638da5cb5b1161008c578063b483433011610066578063b483433014610202578063cb2839dc14610220578063de636fa31461023e578063ef5e94aa1461025c576100cf565b80638da5cb5b146101aa57806395d89b41146101c8578063a9059cbb146101e6576100cf565b806306fdde03146100d457806318160ddd146100f25780634f9dc3531461011057806351ba65d2146101405780636352211e1461014a57806370a082311461017a575b600080fd5b6100dc61027a565b6040516100e99190610af4565b60405180910390f35b6100fa6102b7565b6040516101079190610b2f565b60405180910390f35b61012a60048036038101906101259190610b7b565b6102c4565b6040516101379190610b2f565b60405180910390f35b6101486103ae565b005b610164600480360381019061015f9190610b7b565b6103b0565b6040516101719190610be9565b60405180910390f35b610194600480360381019061018f9190610c30565b61048e565b6040516101a19190610b2f565b60405180910390f35b6101b26104d7565b6040516101bf9190610be9565b60405180910390f35b6101d0610500565b6040516101dd9190610af4565b60405180910390f35b61020060048036038101906101fb9190610c5d565b61053d565b005b61020a6106ca565b6040516102179190610b2f565b60405180910390f35b6102286106cf565b6040516102359190610af4565b60405180910390f35b610246610708565b6040516102539190610af4565b60405180910390f35b610264610741565b6040516102719190610b2f565b60405180910390f35b60606040518060400160405280600b81526020017f41636164656d7942656172000000000000000000000000000000000000000000815250905090565b6000600180549050905090565b60003373ffffffffffffffffffffffffffffffffffffffff166102e56104d7565b73ffffffffffffffffffffffffffffffffffffffff161461033b576040517f08c379a000000000000000000000000000000000000000000000000000000000815260040161033290610ce9565b60405180910390fd5b600a60045410610380576040517f08c379a000000000000000000000000000000000000000000000000000000000815260040161037790610d7b565b60405180910390fd5b6004600081548092919061039390610dca565b91905055506103a782600080600080610747565b9050919050565b565b60008073ffffffffffffffffffffffffffffffffffffffff166003600084815260200190815260200160002060009054906101000a900473ffffffffffffffffffffffffffffffffffffffff1673ffffffffffffffffffffffffffffffffffffffff1603610453576040517f08c379a000000000000000000000000000000000000000000000000000000000815260040161044a90610e5e565b60405180910390fd5b6003600083815260200190815260200160002060009054906101000a900473ffffffffffffffffffffffffffffffffffffffff169050919050565b6000600260008373ffffffffffffffffffffffffffffffffffffffff1673ffffffffffffffffffffffffffffffffffffffff168152602001908152602001600020549050919050565b60008060009054906101000a900473ffffffffffffffffffffffffffffffffffffffff16905090565b60606040518060400160405280600381526020017f4142540000000000000000000000000000000000000000000000000000000000815250905090565b600073ffffffffffffffffffffffffffffffffffffffff168273ffffffffffffffffffffffffffffffffffffffff16036105ac576040517f08c379a00000000000000000000000000000000000000000000000000000000081526004016105a390610ef0565b60405180910390fd5b3073ffffffffffffffffffffffffffffffffffffffff168273ffffffffffffffffffffffffffffffffffffffff160361061a576040517f08c379a000000000000000000000000000000000000000000000000000000000815260040161061190610f82565b60405180910390fd5b3373ffffffffffffffffffffffffffffffffffffffff166003600083815260200190815260200160002060009054906101000a900473ffffffffffffffffffffffffffffffffffffffff1673ffffffffffffffffffffffffffffffffffffffff16146106bb576040517f08c379a00000000000000000000000000000000000000000000000000000000081526004016106b290611014565b60405180910390fd5b6106c63383836108d3565b5050565b600a81565b6040518060400160405280600381526020017f414254000000000000000000000000000000000000000000000000000000000081525081565b6040518060400160405280600b81526020017f41636164656d794265617200000000000000000000000000000000000000000081525081565b60045481565b6000806040518060a001604052808881526020014267ffffffffffffffff1681526020018763ffffffff1681526020018663ffffffff1681526020018561ffff16815250905060018190806001815401808255809150506001900390600052602060002090600202016000909190919091506000820151816000015560208201518160010160006101000a81548167ffffffffffffffff021916908367ffffffffffffffff16021790555060408201518160010160086101000a81548163ffffffff021916908363ffffffff160217905550606082015181600101600c6101000a81548163ffffffff021916908363ffffffff16021790555060808201518160010160106101000a81548161ffff021916908361ffff16021790555050506000600180805490506108789190611034565b90507f0a5311bd2a6608f08a180df2ee7c5946819a649b204b554bb8e39825b2c50ad5848289898c6040516108b1959493929190611068565b60405180910390a16108c5600085836108d3565b809250505095945050505050565b600260008373ffffffffffffffffffffffffffffffffffffffff1673ffffffffffffffffffffffffffffffffffffffff168152602001908152602001600020600081548092919061092390610dca565b9190505550600073ffffffffffffffffffffffffffffffffffffffff168373ffffffffffffffffffffffffffffffffffffffff16146109b257600260008473ffffffffffffffffffffffffffffffffffffffff1673ffffffffffffffffffffffffffffffffffffffff16815260200190815260200160002060008154809291906109ac906110bb565b91905055505b816003600083815260200190815260200160002060006101000a81548173ffffffffffffffffffffffffffffffffffffffff021916908373ffffffffffffffffffffffffffffffffffffffff160217905550808273ffffffffffffffffffffffffffffffffffffffff168473ffffffffffffffffffffffffffffffffffffffff167fddf252ad1be2c89b69c2b068fc378daa952ba7f163c4a11628f55a4df523b3ef60405160405180910390a4505050565b600081519050919050565b600082825260208201905092915050565b60005b83811015610a9e578082015181840152602081019050610a83565b60008484015250505050565b6000601f19601f8301169050919050565b6000610ac682610a64565b610ad08185610a6f565b9350610ae0818560208601610a80565b610ae981610aaa565b840191505092915050565b60006020820190508181036000830152610b0e8184610abb565b905092915050565b6000819050919050565b610b2981610b16565b82525050565b6000602082019050610b446000830184610b20565b92915050565b600080fd5b610b5881610b16565b8114610b6357600080fd5b50565b600081359050610b7581610b4f565b92915050565b600060208284031215610b9157610b90610b4a565b5b6000610b9f84828501610b66565b91505092915050565b600073ffffffffffffffffffffffffffffffffffffffff82169050919050565b6000610bd382610ba8565b9050919050565b610be381610bc8565b82525050565b6000602082019050610bfe6000830184610bda565b92915050565b610c0d81610bc8565b8114610c1857600080fd5b50565b600081359050610c2a81610c04565b92915050565b600060208284031215610c4657610c45610b4a565b5b6000610c5484828501610c1b565b91505092915050565b60008060408385031215610c7457610c73610b4a565b5b6000610c8285828601610c1b565b9250506020610c9385828601610b66565b9150509250929050565b7f43616c6c6572206973206e6f7420746865206f776e6572000000000000000000600082015250565b6000610cd3601783610a6f565b9150610cde82610c9d565b602082019050919050565b60006020820190508181036000830152610d0281610cc6565b9050919050565b7f47656e65726174696f6e203020737570706c7920616c72656164792066756c6c60008201527f79206d696e746564210000000000000000000000000000000000000000000000602082015250565b6000610d65602983610a6f565b9150610d7082610d09565b604082019050919050565b60006020820190508181036000830152610d9481610d58565b9050919050565b7f4e487b7100000000000000000000000000000000000000000000000000000000600052601160045260246000fd5b6000610dd582610b16565b91507fffffffffffffffffffffffffffffffffffffffffffffffffffffffffffffffff8203610e0757610e06610d9b565b5b600182019050919050565b7f496e76616c696420746f6b656e20494400000000000000000000000000000000600082015250565b6000610e48601083610a6f565b9150610e5382610e12565b602082019050919050565b60006020820190508181036000830152610e7781610e3b565b9050919050565b7f496e76616c696420416464726573733b2043616e6e6f74207472616e7366657260008201527f20746f2041646472657373203021000000000000000000000000000000000000602082015250565b6000610eda602e83610a6f565b9150610ee582610e7e565b604082019050919050565b60006020820190508181036000830152610f0981610ecd565b9050919050565b7f496e76616c696420416464726573733b2043616e6e6f74207472616e7366657260008201527f20746f20436f6e74726163742041646472657373210000000000000000000000602082015250565b6000610f6c603583610a6f565b9150610f7782610f10565b604082019050919050565b60006020820190508181036000830152610f9b81610f5f565b9050919050565b7f496e76616c696420416464726573733b2043616e6e6f74207472616e7366657260008201527f20746f206f776e20416464726573732100000000000000000000000000000000602082015250565b6000610ffe603083610a6f565b915061100982610fa2565b604082019050919050565b6000602082019050818103600083015261102d81610ff1565b9050919050565b600061103f82610b16565b915061104a83610b16565b925082820390508181111561106257611061610d9b565b5b92915050565b600060a08201905061107d6000830188610bda565b61108a6020830187610b20565b6110976040830186610b20565b6110a46060830185610b20565b6110b16080830184610b20565b9695505050505050565b60006110c682610b16565b9150600082036110d9576110d8610d9b565b5b60018203905091905056fea2646970667358221220b853714661a3dbe4c9882371e026e69742c646d11b743a840843ec1e4db3dbaf64736f6c63430008100033",
  "immutableReferences": {},
  "source": "// SPDX-License-Identifier: MIT\r\npragma solidity ^0.8.16;\r\npragma experimental ABIEncoderV2;\r\n\r\nimport \"./IERC721.sol\";\r\nimport \"./Ownable.sol\";\r\n\r\ncontract Bearcontract is IERC721, Ownable {\r\n\r\n    uint256 public constant CREATION_LIMIT_GEN0 = 10;\r\n    string public constant bearTicker = \"AcademyBear\";\r\n    string public constant bearSymbol = \"ABT\";\r\n\r\n    event Birth(\r\n        address owner, \r\n        uint256 bearId, \r\n        uint256 mumId, \r\n        uint256 dadId, \r\n        uint256 genes\r\n    );\r\n\r\n    struct Bear {\r\n        uint256 genes;\r\n        uint64 birthTime;\r\n        uint32 mumId;\r\n        uint32 dadId;\r\n        uint16 generation;\r\n    }\r\n\r\n    Bear[] bears;\r\n\r\n    mapping(address => uint256) ownershipTokenCount;\r\n    mapping(uint256 => address) tokenOwner;\r\n\r\n    uint256 public gen0Counter;\r\n\r\n    function createBearGen0(uint256 _genes) public onlyOwner returns(uint256){\r\n        require(gen0Counter < CREATION_LIMIT_GEN0, \"Generation 0 supply already fully minted!\");\r\n\r\n        gen0Counter++;\r\n\r\n        //Gen0 are owned by the contract\r\n        return(_createBear(_genes, 0, 0, 0, address(0)));\r\n    }\r\n\r\n    function _createBear( \r\n        uint256 _genes,\r\n        uint256 _mumId,\r\n        uint256 _dadId,\r\n        uint256 _generation,\r\n        address _owner\r\n    ) private returns (uint256) {\r\n        Bear memory _bear = Bear({\r\n            genes: _genes,\r\n            birthTime: uint64(block.timestamp),\r\n            mumId: uint32(_mumId),\r\n            dadId: uint32(_dadId),\r\n            generation: uint16(_generation)\r\n        });\r\n\r\n        bears.push(_bear);\r\n\r\n        uint256 newBearId = bears.length - 1;\r\n\r\n        emit Birth(_owner, newBearId, _mumId, _dadId, _genes);\r\n\r\n        _transfer(address(0), _owner, newBearId);\r\n\r\n        return newBearId;\r\n    }\r\n\r\n    function getBear() public {\r\n\r\n    }\r\n\r\n    function balanceOf(address owner) external view returns (uint256 balance) {\r\n        return ownershipTokenCount[owner];\r\n    }\r\n\r\n    function totalSupply() external view returns (uint256) {\r\n        return bears.length;\r\n    }\r\n\r\n    function name() external view returns (string memory tokenName) {\r\n        tokenName = bearTicker;\r\n    }\r\n\r\n    function symbol() external view returns (string memory tokenSymbol) {\r\n        tokenSymbol = bearSymbol;\r\n    }\r\n\r\n    function ownerOf(uint256 tokenId) external view returns (address) {\r\n        require(tokenOwner[tokenId] != address(0), \"Invalid token ID\");\r\n        return tokenOwner[tokenId];\r\n    }\r\n\r\n    function transfer(address to, uint256 tokenId) external {\r\n        require(to != address(0), \"Invalid Address; Cannot transfer to Address 0!\");\r\n        require(to != address(this), \"Invalid Address; Cannot transfer to Contract Address!\");\r\n        require(tokenOwner[tokenId] == address(msg.sender), \"Invalid Address; Cannot transfer to own Address!\");\r\n\r\n        _transfer(msg.sender, to, tokenId);\r\n    }\r\n\r\n    function _transfer(address _from, address _to, uint256 _tokenId) internal {\r\n        ownershipTokenCount[_to]++;\r\n        \r\n        if(_from != address(0)) {\r\n            ownershipTokenCount[_from]--;\r\n        }\r\n\r\n        tokenOwner[_tokenId] = _to;\r\n\r\n        emit Transfer(_from, _to, _tokenId);\r\n    }\r\n}",
  "sourcePath": "C:\\Users\\Admin\\Webdev\\nft_marketplace\\academy-kitties-template\\contracts\\Bearcontract.sol",
  "compiler": {
    "name": "solc",
    "version": "0.8.16+commit.07a7930e.Emscripten.clang"
  },
  "schemaVersion": "3.4.7",
  "updatedAt": "2022-09-07T09:56:38.174Z",
  "networkType": "ethereum",
  "devdoc": {
    "kind": "dev",
    "methods": {
      "balanceOf(address)": {
        "details": "Returns the number of tokens in ``owner``'s account."
      },
      "ownerOf(uint256)": {
        "details": "Returns the owner of the `tokenId` token. Requirements: - `tokenId` must exist."
      }
    },
    "version": 1
  },
  "userdoc": {
    "kind": "user",
    "methods": {},
    "version": 1
  }
}