{
  "contractName": "Bearcontract",
  "abi": [
    {
      "anonymous": false,
      "inputs": [
        {
          "indexed": true,
          "internalType": "address",
          "name": "owner",
          "type": "address"
        },
        {
          "indexed": true,
          "internalType": "address",
          "name": "approved",
          "type": "address"
        },
        {
          "indexed": true,
          "internalType": "uint256",
          "name": "tokenId",
          "type": "uint256"
        }
      ],
      "name": "Approval",
      "type": "event"
    },
    {
      "anonymous": false,
      "inputs": [
        {
          "indexed": false,
          "internalType": "address",
          "name": "owner",
          "type": "address"
        },
        {
          "indexed": false,
          "internalType": "uint256",
          "name": "bearId",
          "type": "uint256"
        },
        {
          "indexed": false,
          "internalType": "uint256",
          "name": "mumId",
          "type": "uint256"
        },
        {
          "indexed": false,
          "internalType": "uint256",
          "name": "dadId",
          "type": "uint256"
        },
        {
          "indexed": false,
          "internalType": "uint256",
          "name": "genes",
          "type": "uint256"
        }
      ],
      "name": "Birth",
      "type": "event"
    },
    {
      "anonymous": false,
      "inputs": [
        {
          "indexed": true,
          "internalType": "address",
          "name": "from",
          "type": "address"
        },
        {
          "indexed": true,
          "internalType": "address",
          "name": "to",
          "type": "address"
        },
        {
          "indexed": true,
          "internalType": "uint256",
          "name": "tokenId",
          "type": "uint256"
        }
      ],
      "name": "Transfer",
      "type": "event"
    },
    {
      "inputs": [],
      "name": "CREATION_LIMIT_GEN0",
      "outputs": [
        {
          "internalType": "uint256",
          "name": "",
          "type": "uint256"
        }
      ],
      "stateMutability": "view",
      "type": "function",
      "constant": true
    },
    {
      "inputs": [],
      "name": "bearSymbol",
      "outputs": [
        {
          "internalType": "string",
          "name": "",
          "type": "string"
        }
      ],
      "stateMutability": "view",
      "type": "function",
      "constant": true
    },
    {
      "inputs": [],
      "name": "bearTicker",
      "outputs": [
        {
          "internalType": "string",
          "name": "",
          "type": "string"
        }
      ],
      "stateMutability": "view",
      "type": "function",
      "constant": true
    },
    {
      "inputs": [],
      "name": "gen0Counter",
      "outputs": [
        {
          "internalType": "uint256",
          "name": "",
          "type": "uint256"
        }
      ],
      "stateMutability": "view",
      "type": "function",
      "constant": true
    },
    {
      "inputs": [],
      "name": "owner",
      "outputs": [
        {
          "internalType": "address",
          "name": "",
          "type": "address"
        }
      ],
      "stateMutability": "view",
      "type": "function",
      "constant": true
    },
    {
      "inputs": [
        {
          "internalType": "uint256",
          "name": "_genes",
          "type": "uint256"
        }
      ],
      "name": "createBearGen0",
      "outputs": [
        {
          "internalType": "uint256",
          "name": "",
          "type": "uint256"
        }
      ],
      "stateMutability": "nonpayable",
      "type": "function"
    },
    {
      "inputs": [
        {
          "internalType": "uint256",
          "name": "tokenId",
          "type": "uint256"
        }
      ],
      "name": "getBear",
      "outputs": [
        {
          "internalType": "uint256",
          "name": "genes",
          "type": "uint256"
        },
        {
          "internalType": "uint256",
          "name": "birthTime",
          "type": "uint256"
        },
        {
          "internalType": "uint256",
          "name": "mumId",
          "type": "uint256"
        },
        {
          "internalType": "uint256",
          "name": "dadId",
          "type": "uint256"
        },
        {
          "internalType": "uint256",
          "name": "generation",
          "type": "uint256"
        }
      ],
      "stateMutability": "view",
      "type": "function",
      "constant": true
    },
    {
      "inputs": [
        {
          "internalType": "address",
          "name": "owner",
          "type": "address"
        }
      ],
      "name": "balanceOf",
      "outputs": [
        {
          "internalType": "uint256",
          "name": "balance",
          "type": "uint256"
        }
      ],
      "stateMutability": "view",
      "type": "function",
      "constant": true
    },
    {
      "inputs": [],
      "name": "totalSupply",
      "outputs": [
        {
          "internalType": "uint256",
          "name": "",
          "type": "uint256"
        }
      ],
      "stateMutability": "view",
      "type": "function",
      "constant": true
    },
    {
      "inputs": [],
      "name": "name",
      "outputs": [
        {
          "internalType": "string",
          "name": "tokenName",
          "type": "string"
        }
      ],
      "stateMutability": "view",
      "type": "function",
      "constant": true
    },
    {
      "inputs": [],
      "name": "symbol",
      "outputs": [
        {
          "internalType": "string",
          "name": "tokenSymbol",
          "type": "string"
        }
      ],
      "stateMutability": "view",
      "type": "function",
      "constant": true
    },
    {
      "inputs": [
        {
          "internalType": "uint256",
          "name": "tokenId",
          "type": "uint256"
        }
      ],
      "name": "ownerOf",
      "outputs": [
        {
          "internalType": "address",
          "name": "",
          "type": "address"
        }
      ],
      "stateMutability": "view",
      "type": "function",
      "constant": true
    },
    {
      "inputs": [
        {
          "internalType": "address",
          "name": "to",
          "type": "address"
        },
        {
          "internalType": "uint256",
          "name": "tokenId",
          "type": "uint256"
        }
      ],
      "name": "transfer",
      "outputs": [],
      "stateMutability": "nonpayable",
      "type": "function"
    }
  ],
  "bytecode": "0x6080604052336000806101000a81548173ffffffffffffffffffffffffffffffffffffffff021916908373ffffffffffffffffffffffffffffffffffffffff16021790555034801561005057600080fd5b5061127a806100606000396000f3fe608060405234801561001057600080fd5b50600436106100cf5760003560e01c80638da5cb5b1161008c578063b483433011610066578063b48343301461022c578063cb2839dc1461024a578063de636fa314610268578063ef5e94aa14610286576100cf565b80638da5cb5b146101d457806395d89b41146101f2578063a9059cbb14610210576100cf565b806306fdde03146100d457806318160ddd146100f25780634f9dc353146101105780636352211e1461014057806370a08231146101705780638724d112146101a0575b600080fd5b6100dc6102a4565b6040516100e99190610bd2565b60405180910390f35b6100fa6102e1565b6040516101079190610c0d565b60405180910390f35b61012a60048036038101906101259190610c59565b6102ee565b6040516101379190610c0d565b60405180910390f35b61015a60048036038101906101559190610c59565b6103d8565b6040516101679190610cc7565b60405180910390f35b61018a60048036038101906101859190610d0e565b6104b6565b6040516101979190610c0d565b60405180910390f35b6101ba60048036038101906101b59190610c59565b6104ff565b6040516101cb959493929190610d3b565b60405180910390f35b6101dc6105b5565b6040516101e99190610cc7565b60405180910390f35b6101fa6105de565b6040516102079190610bd2565b60405180910390f35b61022a60048036038101906102259190610d8e565b61061b565b005b6102346107a8565b6040516102419190610c0d565b60405180910390f35b6102526107ad565b60405161025f9190610bd2565b60405180910390f35b6102706107e6565b60405161027d9190610bd2565b60405180910390f35b61028e61081f565b60405161029b9190610c0d565b60405180910390f35b60606040518060400160405280600b81526020017f41636164656d7942656172000000000000000000000000000000000000000000815250905090565b6000600180549050905090565b60003373ffffffffffffffffffffffffffffffffffffffff1661030f6105b5565b73ffffffffffffffffffffffffffffffffffffffff1614610365576040517f08c379a000000000000000000000000000000000000000000000000000000000815260040161035c90610e1a565b60405180910390fd5b600a600454106103aa576040517f08c379a00000000000000000000000000000000000000000000000000000000081526004016103a190610eac565b60405180910390fd5b600460008154809291906103bd90610efb565b91905055506103d182600080600080610825565b9050919050565b60008073ffffffffffffffffffffffffffffffffffffffff166003600084815260200190815260200160002060009054906101000a900473ffffffffffffffffffffffffffffffffffffffff1673ffffffffffffffffffffffffffffffffffffffff160361047b576040517f08c379a000000000000000000000000000000000000000000000000000000000815260040161047290610f8f565b60405180910390fd5b6003600083815260200190815260200160002060009054906101000a900473ffffffffffffffffffffffffffffffffffffffff169050919050565b6000600260008373ffffffffffffffffffffffffffffffffffffffff1673ffffffffffffffffffffffffffffffffffffffff168152602001908152602001600020549050919050565b6000806000806000806001878154811061051c5761051b610faf565b5b90600052602060002090600202019050806000015495508060010160009054906101000a900467ffffffffffffffff1667ffffffffffffffff1694508060010160089054906101000a900463ffffffff1663ffffffff16935080600101600c9054906101000a900463ffffffff1663ffffffff1692508060010160109054906101000a900461ffff1661ffff1691505091939590929450565b60008060009054906101000a900473ffffffffffffffffffffffffffffffffffffffff16905090565b60606040518060400160405280600381526020017f4142540000000000000000000000000000000000000000000000000000000000815250905090565b600073ffffffffffffffffffffffffffffffffffffffff168273ffffffffffffffffffffffffffffffffffffffff160361068a576040517f08c379a000000000000000000000000000000000000000000000000000000000815260040161068190611050565b60405180910390fd5b3073ffffffffffffffffffffffffffffffffffffffff168273ffffffffffffffffffffffffffffffffffffffff16036106f8576040517f08c379a00000000000000000000000000000000000000000000000000000000081526004016106ef906110e2565b60405180910390fd5b3373ffffffffffffffffffffffffffffffffffffffff166003600083815260200190815260200160002060009054906101000a900473ffffffffffffffffffffffffffffffffffffffff1673ffffffffffffffffffffffffffffffffffffffff1614610799576040517f08c379a000000000000000000000000000000000000000000000000000000000815260040161079090611174565b60405180910390fd5b6107a43383836109b1565b5050565b600a81565b6040518060400160405280600381526020017f414254000000000000000000000000000000000000000000000000000000000081525081565b6040518060400160405280600b81526020017f41636164656d794265617200000000000000000000000000000000000000000081525081565b60045481565b6000806040518060a001604052808881526020014267ffffffffffffffff1681526020018763ffffffff1681526020018663ffffffff1681526020018561ffff16815250905060018190806001815401808255809150506001900390600052602060002090600202016000909190919091506000820151816000015560208201518160010160006101000a81548167ffffffffffffffff021916908367ffffffffffffffff16021790555060408201518160010160086101000a81548163ffffffff021916908363ffffffff160217905550606082015181600101600c6101000a81548163ffffffff021916908363ffffffff16021790555060808201518160010160106101000a81548161ffff021916908361ffff16021790555050506000600180805490506109569190611194565b90507f0a5311bd2a6608f08a180df2ee7c5946819a649b204b554bb8e39825b2c50ad5848289898c60405161098f9594939291906111c8565b60405180910390a16109a3600085836109b1565b809250505095945050505050565b600260008373ffffffffffffffffffffffffffffffffffffffff1673ffffffffffffffffffffffffffffffffffffffff1681526020019081526020016000206000815480929190610a0190610efb565b9190505550600073ffffffffffffffffffffffffffffffffffffffff168373ffffffffffffffffffffffffffffffffffffffff1614610a9057600260008473ffffffffffffffffffffffffffffffffffffffff1673ffffffffffffffffffffffffffffffffffffffff1681526020019081526020016000206000815480929190610a8a9061121b565b91905055505b816003600083815260200190815260200160002060006101000a81548173ffffffffffffffffffffffffffffffffffffffff021916908373ffffffffffffffffffffffffffffffffffffffff160217905550808273ffffffffffffffffffffffffffffffffffffffff168473ffffffffffffffffffffffffffffffffffffffff167fddf252ad1be2c89b69c2b068fc378daa952ba7f163c4a11628f55a4df523b3ef60405160405180910390a4505050565b600081519050919050565b600082825260208201905092915050565b60005b83811015610b7c578082015181840152602081019050610b61565b60008484015250505050565b6000601f19601f8301169050919050565b6000610ba482610b42565b610bae8185610b4d565b9350610bbe818560208601610b5e565b610bc781610b88565b840191505092915050565b60006020820190508181036000830152610bec8184610b99565b905092915050565b6000819050919050565b610c0781610bf4565b82525050565b6000602082019050610c226000830184610bfe565b92915050565b600080fd5b610c3681610bf4565b8114610c4157600080fd5b50565b600081359050610c5381610c2d565b92915050565b600060208284031215610c6f57610c6e610c28565b5b6000610c7d84828501610c44565b91505092915050565b600073ffffffffffffffffffffffffffffffffffffffff82169050919050565b6000610cb182610c86565b9050919050565b610cc181610ca6565b82525050565b6000602082019050610cdc6000830184610cb8565b92915050565b610ceb81610ca6565b8114610cf657600080fd5b50565b600081359050610d0881610ce2565b92915050565b600060208284031215610d2457610d23610c28565b5b6000610d3284828501610cf9565b91505092915050565b600060a082019050610d506000830188610bfe565b610d5d6020830187610bfe565b610d6a6040830186610bfe565b610d776060830185610bfe565b610d846080830184610bfe565b9695505050505050565b60008060408385031215610da557610da4610c28565b5b6000610db385828601610cf9565b9250506020610dc485828601610c44565b9150509250929050565b7f43616c6c6572206973206e6f7420746865206f776e6572000000000000000000600082015250565b6000610e04601783610b4d565b9150610e0f82610dce565b602082019050919050565b60006020820190508181036000830152610e3381610df7565b9050919050565b7f47656e65726174696f6e203020737570706c7920616c72656164792066756c6c60008201527f79206d696e746564210000000000000000000000000000000000000000000000602082015250565b6000610e96602983610b4d565b9150610ea182610e3a565b604082019050919050565b60006020820190508181036000830152610ec581610e89565b9050919050565b7f4e487b7100000000000000000000000000000000000000000000000000000000600052601160045260246000fd5b6000610f0682610bf4565b91507fffffffffffffffffffffffffffffffffffffffffffffffffffffffffffffffff8203610f3857610f37610ecc565b5b600182019050919050565b7f496e76616c696420746f6b656e20494400000000000000000000000000000000600082015250565b6000610f79601083610b4d565b9150610f8482610f43565b602082019050919050565b60006020820190508181036000830152610fa881610f6c565b9050919050565b7f4e487b7100000000000000000000000000000000000000000000000000000000600052603260045260246000fd5b7f496e76616c696420416464726573733b2043616e6e6f74207472616e7366657260008201527f20746f2041646472657373203021000000000000000000000000000000000000602082015250565b600061103a602e83610b4d565b915061104582610fde565b604082019050919050565b600060208201905081810360008301526110698161102d565b9050919050565b7f496e76616c696420416464726573733b2043616e6e6f74207472616e7366657260008201527f20746f20436f6e74726163742041646472657373210000000000000000000000602082015250565b60006110cc603583610b4d565b91506110d782611070565b604082019050919050565b600060208201905081810360008301526110fb816110bf565b9050919050565b7f496e76616c696420416464726573733b2043616e6e6f74207472616e7366657260008201527f20746f206f776e20416464726573732100000000000000000000000000000000602082015250565b600061115e603083610b4d565b915061116982611102565b604082019050919050565b6000602082019050818103600083015261118d81611151565b9050919050565b600061119f82610bf4565b91506111aa83610bf4565b92508282039050818111156111c2576111c1610ecc565b5b92915050565b600060a0820190506111dd6000830188610cb8565b6111ea6020830187610bfe565b6111f76040830186610bfe565b6112046060830185610bfe565b6112116080830184610bfe565b9695505050505050565b600061122682610bf4565b91506000820361123957611238610ecc565b5b60018203905091905056fea26469706673582212204f723db4e2886db17b522657da33f1e6c100bf5692c90ab587b34615b53ca29064736f6c63430008100033",
  "immutableReferences": {},
  "source": "// SPDX-License-Identifier: MIT\r\npragma solidity ^0.8.16;\r\npragma experimental ABIEncoderV2;\r\n\r\nimport \"./IERC721.sol\";\r\nimport \"./Ownable.sol\";\r\n\r\ncontract Bearcontract is IERC721, Ownable {\r\n\r\n    uint256 public constant CREATION_LIMIT_GEN0 = 10;\r\n    string public constant bearTicker = \"AcademyBear\";\r\n    string public constant bearSymbol = \"ABT\";\r\n\r\n    event Birth(\r\n        address owner, \r\n        uint256 bearId, \r\n        uint256 mumId, \r\n        uint256 dadId, \r\n        uint256 genes\r\n    );\r\n\r\n    struct Bear {\r\n        uint256 genes;\r\n        uint64 birthTime;\r\n        uint32 mumId;\r\n        uint32 dadId;\r\n        uint16 generation;\r\n    }\r\n\r\n    Bear[] bears;\r\n\r\n    mapping(address => uint256) ownershipTokenCount;\r\n    mapping(uint256 => address) tokenOwner;\r\n\r\n    uint256 public gen0Counter;\r\n\r\n    //Owner can create gen0 bears\r\n    function createBearGen0(uint256 _genes) public onlyOwner returns(uint256){\r\n        require(gen0Counter < CREATION_LIMIT_GEN0, \"Generation 0 supply already fully minted!\");\r\n\r\n        gen0Counter++;\r\n\r\n        //Gen0 are owned by the contract\r\n        return(_createBear(_genes, 0, 0, 0, address(0)));\r\n    }\r\n\r\n    //create Bear\r\n    function _createBear( \r\n        uint256 _genes,\r\n        uint256 _mumId,\r\n        uint256 _dadId,\r\n        uint256 _generation,\r\n        address _owner\r\n    ) private returns (uint256) {\r\n        Bear memory _bear = Bear({\r\n            genes: _genes,\r\n            birthTime: uint64(block.timestamp),\r\n            mumId: uint32(_mumId),\r\n            dadId: uint32(_dadId),\r\n            generation: uint16(_generation)\r\n        });\r\n\r\n        bears.push(_bear);\r\n\r\n        uint256 newBearId = bears.length - 1;\r\n\r\n        emit Birth(_owner, newBearId, _mumId, _dadId, _genes);\r\n\r\n        _transfer(address(0), _owner, newBearId);\r\n\r\n        return newBearId;\r\n    }\r\n\r\n    //returns bear properties\r\n    function getBear(uint256 tokenId) external view returns(\r\n        uint256 genes,\r\n        uint256 birthTime,\r\n        uint256 mumId,\r\n        uint256 dadId,\r\n        uint256 generation\r\n    ){ \r\n        Bear storage bear = bears[tokenId];\r\n\r\n        genes = uint256 (bear.genes);\r\n        birthTime = uint256 (bear.birthTime);\r\n        mumId = uint256 (bear.mumId);\r\n        dadId = uint256 (bear.dadId);\r\n        generation = uint256 (bear.generation);\r\n    }\r\n\r\n    function balanceOf(address owner) external view returns (uint256 balance) {\r\n        return ownershipTokenCount[owner];\r\n    }\r\n\r\n    function totalSupply() external view returns (uint256) {\r\n        return bears.length;\r\n    }\r\n\r\n    function name() external view returns (string memory tokenName) {\r\n        tokenName = bearTicker;\r\n    }\r\n\r\n    function symbol() external view returns (string memory tokenSymbol) {\r\n        tokenSymbol = bearSymbol;\r\n    }\r\n\r\n    function ownerOf(uint256 tokenId) external view returns (address) {\r\n        require(tokenOwner[tokenId] != address(0), \"Invalid token ID\");\r\n        return tokenOwner[tokenId];\r\n    }\r\n\r\n    function transfer(address to, uint256 tokenId) external {\r\n        require(to != address(0), \"Invalid Address; Cannot transfer to Address 0!\");\r\n        require(to != address(this), \"Invalid Address; Cannot transfer to Contract Address!\");\r\n        require(tokenOwner[tokenId] == address(msg.sender), \"Invalid Address; Cannot transfer to own Address!\");\r\n\r\n        _transfer(msg.sender, to, tokenId);\r\n    }\r\n\r\n    function _transfer(address _from, address _to, uint256 _tokenId) internal {\r\n        ownershipTokenCount[_to]++;\r\n        \r\n        if(_from != address(0)) {\r\n            ownershipTokenCount[_from]--;\r\n        }\r\n\r\n        tokenOwner[_tokenId] = _to;\r\n\r\n        emit Transfer(_from, _to, _tokenId);\r\n    }\r\n}",
  "sourcePath": "C:\\Users\\Admin\\Webdev\\nft_marketplace\\academy-kitties-template\\contracts\\Bearcontract.sol",
  "compiler": {
    "name": "solc",
    "version": "0.8.16+commit.07a7930e.Emscripten.clang"
  },
  "schemaVersion": "3.4.7",
  "updatedAt": "2022-09-07T13:46:47.785Z",
  "networkType": "ethereum",
  "devdoc": {
    "kind": "dev",
    "methods": {
      "balanceOf(address)": {
        "details": "Returns the number of tokens in ``owner``'s account."
      },
      "ownerOf(uint256)": {
        "details": "Returns the owner of the `tokenId` token. Requirements: - `tokenId` must exist."
      }
    },
    "version": 1
  },
  "userdoc": {
    "kind": "user",
    "methods": {},
    "version": 1
  }
}