{
  "contractName": "Bearcontract",
  "abi": [
    {
      "anonymous": false,
      "inputs": [
        {
          "indexed": true,
          "internalType": "address",
          "name": "owner",
          "type": "address"
        },
        {
          "indexed": true,
          "internalType": "address",
          "name": "approved",
          "type": "address"
        },
        {
          "indexed": true,
          "internalType": "uint256",
          "name": "tokenId",
          "type": "uint256"
        }
      ],
      "name": "Approval",
      "type": "event"
    },
    {
      "anonymous": false,
      "inputs": [
        {
          "indexed": true,
          "internalType": "address",
          "name": "owner",
          "type": "address"
        },
        {
          "indexed": true,
          "internalType": "address",
          "name": "operator",
          "type": "address"
        },
        {
          "indexed": false,
          "internalType": "bool",
          "name": "approved",
          "type": "bool"
        }
      ],
      "name": "ApprovalForAll",
      "type": "event"
    },
    {
      "anonymous": false,
      "inputs": [
        {
          "indexed": false,
          "internalType": "address",
          "name": "owner",
          "type": "address"
        },
        {
          "indexed": false,
          "internalType": "uint256",
          "name": "bearId",
          "type": "uint256"
        },
        {
          "indexed": false,
          "internalType": "uint256",
          "name": "mumId",
          "type": "uint256"
        },
        {
          "indexed": false,
          "internalType": "uint256",
          "name": "dadId",
          "type": "uint256"
        },
        {
          "indexed": false,
          "internalType": "uint256",
          "name": "genes",
          "type": "uint256"
        }
      ],
      "name": "Birth",
      "type": "event"
    },
    {
      "anonymous": false,
      "inputs": [
        {
          "indexed": true,
          "internalType": "address",
          "name": "from",
          "type": "address"
        },
        {
          "indexed": true,
          "internalType": "address",
          "name": "to",
          "type": "address"
        },
        {
          "indexed": true,
          "internalType": "uint256",
          "name": "tokenId",
          "type": "uint256"
        }
      ],
      "name": "Transfer",
      "type": "event"
    },
    {
      "inputs": [],
      "name": "CREATION_LIMIT_GEN0",
      "outputs": [
        {
          "internalType": "uint256",
          "name": "",
          "type": "uint256"
        }
      ],
      "stateMutability": "view",
      "type": "function"
    },
    {
      "inputs": [
        {
          "internalType": "uint256",
          "name": "",
          "type": "uint256"
        }
      ],
      "name": "bearIndexToApproved",
      "outputs": [
        {
          "internalType": "address",
          "name": "",
          "type": "address"
        }
      ],
      "stateMutability": "view",
      "type": "function"
    },
    {
      "inputs": [
        {
          "internalType": "uint256",
          "name": "",
          "type": "uint256"
        }
      ],
      "name": "bearIndexToOwner",
      "outputs": [
        {
          "internalType": "address",
          "name": "",
          "type": "address"
        }
      ],
      "stateMutability": "view",
      "type": "function"
    },
    {
      "inputs": [],
      "name": "bearSymbol",
      "outputs": [
        {
          "internalType": "string",
          "name": "",
          "type": "string"
        }
      ],
      "stateMutability": "view",
      "type": "function"
    },
    {
      "inputs": [],
      "name": "bearTicker",
      "outputs": [
        {
          "internalType": "string",
          "name": "",
          "type": "string"
        }
      ],
      "stateMutability": "view",
      "type": "function"
    },
    {
      "inputs": [],
      "name": "gen0Counter",
      "outputs": [
        {
          "internalType": "uint256",
          "name": "",
          "type": "uint256"
        }
      ],
      "stateMutability": "view",
      "type": "function"
    },
    {
      "inputs": [],
      "name": "owner",
      "outputs": [
        {
          "internalType": "address",
          "name": "",
          "type": "address"
        }
      ],
      "stateMutability": "view",
      "type": "function"
    },
    {
      "inputs": [
        {
          "internalType": "bytes4",
          "name": "_interfaceId",
          "type": "bytes4"
        }
      ],
      "name": "supportsInterface",
      "outputs": [
        {
          "internalType": "bool",
          "name": "",
          "type": "bool"
        }
      ],
      "stateMutability": "view",
      "type": "function"
    },
    {
      "inputs": [
        {
          "internalType": "uint256",
          "name": "_genes",
          "type": "uint256"
        }
      ],
      "name": "createBearGen0",
      "outputs": [
        {
          "internalType": "uint256",
          "name": "",
          "type": "uint256"
        }
      ],
      "stateMutability": "nonpayable",
      "type": "function"
    },
    {
      "inputs": [
        {
          "internalType": "address",
          "name": "_owner",
          "type": "address"
        }
      ],
      "name": "getBearByOwner",
      "outputs": [
        {
          "internalType": "uint256[]",
          "name": "",
          "type": "uint256[]"
        }
      ],
      "stateMutability": "view",
      "type": "function"
    },
    {
      "inputs": [
        {
          "internalType": "uint256",
          "name": "tokenId",
          "type": "uint256"
        }
      ],
      "name": "getBear",
      "outputs": [
        {
          "internalType": "uint256",
          "name": "genes",
          "type": "uint256"
        },
        {
          "internalType": "uint256",
          "name": "birthTime",
          "type": "uint256"
        },
        {
          "internalType": "uint256",
          "name": "mumId",
          "type": "uint256"
        },
        {
          "internalType": "uint256",
          "name": "dadId",
          "type": "uint256"
        },
        {
          "internalType": "uint256",
          "name": "generation",
          "type": "uint256"
        }
      ],
      "stateMutability": "view",
      "type": "function"
    },
    {
      "inputs": [
        {
          "internalType": "address",
          "name": "owner",
          "type": "address"
        }
      ],
      "name": "balanceOf",
      "outputs": [
        {
          "internalType": "uint256",
          "name": "balance",
          "type": "uint256"
        }
      ],
      "stateMutability": "view",
      "type": "function"
    },
    {
      "inputs": [],
      "name": "totalSupply",
      "outputs": [
        {
          "internalType": "uint256",
          "name": "",
          "type": "uint256"
        }
      ],
      "stateMutability": "view",
      "type": "function"
    },
    {
      "inputs": [],
      "name": "name",
      "outputs": [
        {
          "internalType": "string",
          "name": "tokenName",
          "type": "string"
        }
      ],
      "stateMutability": "view",
      "type": "function"
    },
    {
      "inputs": [],
      "name": "symbol",
      "outputs": [
        {
          "internalType": "string",
          "name": "tokenSymbol",
          "type": "string"
        }
      ],
      "stateMutability": "view",
      "type": "function"
    },
    {
      "inputs": [
        {
          "internalType": "uint256",
          "name": "tokenId",
          "type": "uint256"
        }
      ],
      "name": "ownerOf",
      "outputs": [
        {
          "internalType": "address",
          "name": "",
          "type": "address"
        }
      ],
      "stateMutability": "view",
      "type": "function"
    },
    {
      "inputs": [
        {
          "internalType": "address",
          "name": "to",
          "type": "address"
        },
        {
          "internalType": "uint256",
          "name": "tokenId",
          "type": "uint256"
        }
      ],
      "name": "transfer",
      "outputs": [],
      "stateMutability": "nonpayable",
      "type": "function"
    },
    {
      "inputs": [
        {
          "internalType": "address",
          "name": "_to",
          "type": "address"
        },
        {
          "internalType": "uint256",
          "name": "_tokenId",
          "type": "uint256"
        }
      ],
      "name": "approve",
      "outputs": [],
      "stateMutability": "nonpayable",
      "type": "function"
    },
    {
      "inputs": [
        {
          "internalType": "address",
          "name": "operator",
          "type": "address"
        },
        {
          "internalType": "bool",
          "name": "approved",
          "type": "bool"
        }
      ],
      "name": "setApprovalForAll",
      "outputs": [],
      "stateMutability": "nonpayable",
      "type": "function"
    },
    {
      "inputs": [
        {
          "internalType": "uint256",
          "name": "tokenId",
          "type": "uint256"
        }
      ],
      "name": "getApproved",
      "outputs": [
        {
          "internalType": "address",
          "name": "",
          "type": "address"
        }
      ],
      "stateMutability": "view",
      "type": "function"
    },
    {
      "inputs": [
        {
          "internalType": "address",
          "name": "owner",
          "type": "address"
        },
        {
          "internalType": "address",
          "name": "operator",
          "type": "address"
        }
      ],
      "name": "isApprovedForAll",
      "outputs": [
        {
          "internalType": "bool",
          "name": "",
          "type": "bool"
        }
      ],
      "stateMutability": "view",
      "type": "function"
    },
    {
      "inputs": [
        {
          "internalType": "address",
          "name": "from",
          "type": "address"
        },
        {
          "internalType": "address",
          "name": "to",
          "type": "address"
        },
        {
          "internalType": "uint256",
          "name": "tokenId",
          "type": "uint256"
        }
      ],
      "name": "safeTransferFrom",
      "outputs": [],
      "stateMutability": "nonpayable",
      "type": "function"
    },
    {
      "inputs": [
        {
          "internalType": "address",
          "name": "from",
          "type": "address"
        },
        {
          "internalType": "address",
          "name": "to",
          "type": "address"
        },
        {
          "internalType": "uint256",
          "name": "tokenId",
          "type": "uint256"
        },
        {
          "internalType": "bytes",
          "name": "data",
          "type": "bytes"
        }
      ],
      "name": "safeTransferFrom",
      "outputs": [],
      "stateMutability": "nonpayable",
      "type": "function"
    },
    {
      "inputs": [
        {
          "internalType": "address",
          "name": "from",
          "type": "address"
        },
        {
          "internalType": "address",
          "name": "to",
          "type": "address"
        },
        {
          "internalType": "uint256",
          "name": "tokenId",
          "type": "uint256"
        }
      ],
      "name": "transferFrom",
      "outputs": [],
      "stateMutability": "nonpayable",
      "type": "function"
    }
  ],
  "bytecode": "0x6080604052336000806101000a81548173ffffffffffffffffffffffffffffffffffffffff021916908373ffffffffffffffffffffffffffffffffffffffff16021790555034801561005057600080fd5b5061285d806100606000396000f3fe608060405234801561001057600080fd5b50600436106101585760003560e01c806395d89b41116100c3578063b88d4fde1161007c578063b88d4fde14610403578063cb2839dc1461041f578063de636fa31461043d578063e985e9c51461045b578063ef5e94aa1461048b578063f3feace3146104a957610158565b806395d89b411461032f578063a22cb4651461034d578063a43a745914610369578063a9059cbb14610399578063b4834330146103b5578063b7967374146103d357610158565b806342842e0e1161011557806342842e0e146102315780634f9dc3531461024d5780636352211e1461027d57806370a08231146102ad5780638724d112146102dd5780638da5cb5b1461031157610158565b806301ffc9a71461015d57806306fdde031461018d578063081812fc146101ab578063095ea7b3146101db57806318160ddd146101f757806323b872dd14610215575b600080fd5b61017760048036038101906101729190611a5b565b6104d9565b6040516101849190611aa3565b60405180910390f35b610195610579565b6040516101a29190611b4e565b60405180910390f35b6101c560048036038101906101c09190611ba6565b6105b6565b6040516101d29190611c14565b60405180910390f35b6101f560048036038101906101f09190611c5b565b61063a565b005b6101ff6106ec565b60405161020c9190611caa565b60405180910390f35b61022f600480360381019061022a9190611cc5565b6106f9565b005b61024b60048036038101906102469190611cc5565b6108a7565b005b61026760048036038101906102629190611ba6565b610a8a565b6040516102749190611caa565b60405180910390f35b61029760048036038101906102929190611ba6565b610b75565b6040516102a49190611c14565b60405180910390f35b6102c760048036038101906102c29190611d18565b610bb2565b6040516102d49190611caa565b60405180910390f35b6102f760048036038101906102f29190611ba6565b610bfb565b604051610308959493929190611d45565b60405180910390f35b610319610cb1565b6040516103269190611c14565b60405180910390f35b610337610cda565b6040516103449190611b4e565b60405180910390f35b61036760048036038101906103629190611dc4565b610d17565b005b610383600480360381019061037e9190611d18565b610e82565b6040516103909190611ec2565b60405180910390f35b6103b360048036038101906103ae9190611c5b565b610fd4565b005b6103bd611109565b6040516103ca9190611caa565b60405180910390f35b6103ed60048036038101906103e89190611ba6565b61110e565b6040516103fa9190611c14565b60405180910390f35b61041d60048036038101906104189190611f49565b611141565b005b61042761135b565b6040516104349190611b4e565b60405180910390f35b610445611394565b6040516104529190611b4e565b60405180910390f35b61047560048036038101906104709190611fd1565b6113cd565b6040516104829190611aa3565b60405180910390f35b610493611461565b6040516104a09190611caa565b60405180910390f35b6104c360048036038101906104be9190611ba6565b611467565b6040516104d09190611c14565b60405180910390f35b60006380ac58cd60e01b7bffffffffffffffffffffffffffffffffffffffffffffffffffffffff1916827bffffffffffffffffffffffffffffffffffffffffffffffffffffffff1916148061057257506301ffc9a760e01b7bffffffffffffffffffffffffffffffffffffffffffffffffffffffff1916827bffffffffffffffffffffffffffffffffffffffffffffffffffffffff1916145b9050919050565b60606040518060400160405280600b81526020017f41636164656d7942656172000000000000000000000000000000000000000000815250905090565b600060018054905082106105ff576040517f08c379a00000000000000000000000000000000000000000000000000000000081526004016105f69061205d565b60405180910390fd5b6002600083815260200190815260200160002060009054906101000a900473ffffffffffffffffffffffffffffffffffffffff169050919050565b610644338261149a565b610683576040517f08c379a000000000000000000000000000000000000000000000000000000000815260040161067a906120ef565b60405180910390fd5b61068d8183611506565b808273ffffffffffffffffffffffffffffffffffffffff163373ffffffffffffffffffffffffffffffffffffffff167f8c5be1e5ebec7d5bd14f71427d1e84f3dd0314c0f7b2291e5b200ac8c7c3b92560405160405180910390a45050565b6000600180549050905090565b600073ffffffffffffffffffffffffffffffffffffffff168273ffffffffffffffffffffffffffffffffffffffff1603610768576040517f08c379a000000000000000000000000000000000000000000000000000000000815260040161075f9061215b565b60405180910390fd5b610772338261149a565b8061078a57506001151561078684336113cd565b1515145b806107c857503373ffffffffffffffffffffffffffffffffffffffff166107b0826105b6565b73ffffffffffffffffffffffffffffffffffffffff16145b610807576040517f08c379a00000000000000000000000000000000000000000000000000000000081526004016107fe906121ed565b60405180910390fd5b610811838261149a565b610850576040517f08c379a00000000000000000000000000000000000000000000000000000000081526004016108479061227f565b60405180910390fd5b6001805490508110610897576040517f08c379a000000000000000000000000000000000000000000000000000000000815260040161088e9061205d565b60405180910390fd5b6108a283838361155c565b505050565b600073ffffffffffffffffffffffffffffffffffffffff168273ffffffffffffffffffffffffffffffffffffffff1603610916576040517f08c379a000000000000000000000000000000000000000000000000000000000815260040161090d9061215b565b60405180910390fd5b8273ffffffffffffffffffffffffffffffffffffffff163373ffffffffffffffffffffffffffffffffffffffff16148061095d57506001151561095984336113cd565b1515145b8061099b57503373ffffffffffffffffffffffffffffffffffffffff16610983826105b6565b73ffffffffffffffffffffffffffffffffffffffff16145b6109da576040517f08c379a00000000000000000000000000000000000000000000000000000000081526004016109d1906121ed565b60405180910390fd5b6109e4838261149a565b610a23576040517f08c379a0000000000000000000000000000000000000000000000000000000008152600401610a1a9061227f565b60405180910390fd5b6001805490508110610a6a576040517f08c379a0000000000000000000000000000000000000000000000000000000008152600401610a619061205d565b60405180910390fd5b610a8583838360405180602001604052806000815250611723565b505050565b60003373ffffffffffffffffffffffffffffffffffffffff16610aab610cb1565b73ffffffffffffffffffffffffffffffffffffffff1614610b01576040517f08c379a0000000000000000000000000000000000000000000000000000000008152600401610af8906122eb565b60405180910390fd5b600a6006541115610b47576040517f08c379a0000000000000000000000000000000000000000000000000000000008152600401610b3e9061237d565b60405180910390fd5b60066000815480929190610b5a906123cc565b9190505550610b6e82600080600080611749565b9050919050565b60006002600083815260200190815260200160002060009054906101000a900473ffffffffffffffffffffffffffffffffffffffff169050919050565b6000600360008373ffffffffffffffffffffffffffffffffffffffff1673ffffffffffffffffffffffffffffffffffffffff168152602001908152602001600020549050919050565b60008060008060008060018781548110610c1857610c17612414565b5b90600052602060002090600202019050806000015495508060010160009054906101000a900467ffffffffffffffff1667ffffffffffffffff1694508060010160089054906101000a900463ffffffff1663ffffffff16935080600101600c9054906101000a900463ffffffff1663ffffffff1692508060010160109054906101000a900461ffff1661ffff1691505091939590929450565b60008060009054906101000a900473ffffffffffffffffffffffffffffffffffffffff16905090565b60606040518060400160405280600381526020017f4142540000000000000000000000000000000000000000000000000000000000815250905090565b3373ffffffffffffffffffffffffffffffffffffffff168273ffffffffffffffffffffffffffffffffffffffff1603610d85576040517f08c379a0000000000000000000000000000000000000000000000000000000008152600401610d7c9061248f565b60405180910390fd5b80600560003373ffffffffffffffffffffffffffffffffffffffff1673ffffffffffffffffffffffffffffffffffffffff16815260200190815260200160002060008473ffffffffffffffffffffffffffffffffffffffff1673ffffffffffffffffffffffffffffffffffffffff16815260200190815260200160002060006101000a81548160ff0219169083151502179055508173ffffffffffffffffffffffffffffffffffffffff163373ffffffffffffffffffffffffffffffffffffffff167f17307eab39ab6107e8899845ad3d59bd9653f200f220920489ca2b5937696c3183604051610e769190611aa3565b60405180910390a35050565b60606000600360008473ffffffffffffffffffffffffffffffffffffffff1673ffffffffffffffffffffffffffffffffffffffff1681526020019081526020016000205467ffffffffffffffff811115610edf57610ede6124af565b5b604051908082528060200260200182016040528015610f0d5781602001602082028036833780820191505090505b5090506000805b600180549050811015610fc9578473ffffffffffffffffffffffffffffffffffffffff166002600083815260200190815260200160002060009054906101000a900473ffffffffffffffffffffffffffffffffffffffff1673ffffffffffffffffffffffffffffffffffffffff1603610fb65780838381518110610f9b57610f9a612414565b5b6020026020010181815250508180610fb2906123cc565b9250505b8080610fc1906123cc565b915050610f14565b508192505050919050565b600073ffffffffffffffffffffffffffffffffffffffff168273ffffffffffffffffffffffffffffffffffffffff1603611043576040517f08c379a000000000000000000000000000000000000000000000000000000000815260040161103a90612550565b60405180910390fd5b3073ffffffffffffffffffffffffffffffffffffffff168273ffffffffffffffffffffffffffffffffffffffff16036110b1576040517f08c379a00000000000000000000000000000000000000000000000000000000081526004016110a8906125e2565b60405180910390fd5b6110bb338261149a565b6110fa576040517f08c379a00000000000000000000000000000000000000000000000000000000081526004016110f190612674565b60405180910390fd5b61110533838361155c565b5050565b600a81565b60026020528060005260406000206000915054906101000a900473ffffffffffffffffffffffffffffffffffffffff1681565b600073ffffffffffffffffffffffffffffffffffffffff168473ffffffffffffffffffffffffffffffffffffffff16036111b0576040517f08c379a00000000000000000000000000000000000000000000000000000000081526004016111a79061215b565b60405180910390fd5b8473ffffffffffffffffffffffffffffffffffffffff163373ffffffffffffffffffffffffffffffffffffffff1614806111f75750600115156111f386336113cd565b1515145b8061123557503373ffffffffffffffffffffffffffffffffffffffff1661121d846105b6565b73ffffffffffffffffffffffffffffffffffffffff16145b611274576040517f08c379a000000000000000000000000000000000000000000000000000000000815260040161126b906121ed565b60405180910390fd5b61127e858461149a565b6112bd576040517f08c379a00000000000000000000000000000000000000000000000000000000081526004016112b49061227f565b60405180910390fd5b6001805490508310611304576040517f08c379a00000000000000000000000000000000000000000000000000000000081526004016112fb9061205d565b60405180910390fd5b61135485858585858080601f016020809104026020016040519081016040528093929190818152602001838380828437600081840152601f19601f82011690508083019250505050505050611723565b5050505050565b6040518060400160405280600381526020017f414254000000000000000000000000000000000000000000000000000000000081525081565b6040518060400160405280600b81526020017f41636164656d794265617200000000000000000000000000000000000000000081525081565b6000600560008473ffffffffffffffffffffffffffffffffffffffff1673ffffffffffffffffffffffffffffffffffffffff16815260200190815260200160002060008373ffffffffffffffffffffffffffffffffffffffff1673ffffffffffffffffffffffffffffffffffffffff16815260200190815260200160002060009054906101000a900460ff16905092915050565b60065481565b60046020528060005260406000206000915054906101000a900473ffffffffffffffffffffffffffffffffffffffff1681565b60008273ffffffffffffffffffffffffffffffffffffffff166002600084815260200190815260200160002060009054906101000a900473ffffffffffffffffffffffffffffffffffffffff1673ffffffffffffffffffffffffffffffffffffffff1614905092915050565b806004600084815260200190815260200160002060006101000a81548173ffffffffffffffffffffffffffffffffffffffff021916908373ffffffffffffffffffffffffffffffffffffffff1602179055505050565b600360008373ffffffffffffffffffffffffffffffffffffffff1673ffffffffffffffffffffffffffffffffffffffff16815260200190815260200160002060008154809291906115ac906123cc565b9190505550816002600083815260200190815260200160002060006101000a81548173ffffffffffffffffffffffffffffffffffffffff021916908373ffffffffffffffffffffffffffffffffffffffff160217905550600073ffffffffffffffffffffffffffffffffffffffff168373ffffffffffffffffffffffffffffffffffffffff16146116c357600360008473ffffffffffffffffffffffffffffffffffffffff1673ffffffffffffffffffffffffffffffffffffffff168152602001908152602001600020600081548092919061168790612694565b91905055506004600082815260200190815260200160002060006101000a81549073ffffffffffffffffffffffffffffffffffffffff02191690555b808273ffffffffffffffffffffffffffffffffffffffff168473ffffffffffffffffffffffffffffffffffffffff167fddf252ad1be2c89b69c2b068fc378daa952ba7f163c4a11628f55a4df523b3ef60405160405180910390a4505050565b61172e84848461155c565b61173a848484846118d5565b61174357600080fd5b50505050565b6000806040518060a001604052808881526020014267ffffffffffffffff1681526020018763ffffffff1681526020018663ffffffff1681526020018561ffff16815250905060018190806001815401808255809150506001900390600052602060002090600202016000909190919091506000820151816000015560208201518160010160006101000a81548167ffffffffffffffff021916908367ffffffffffffffff16021790555060408201518160010160086101000a81548163ffffffff021916908363ffffffff160217905550606082015181600101600c6101000a81548163ffffffff021916908363ffffffff16021790555060808201518160010160106101000a81548161ffff021916908361ffff160217905550505060006001808054905061187a91906126bd565b90507f0a5311bd2a6608f08a180df2ee7c5946819a649b204b554bb8e39825b2c50ad5848289898c6040516118b39594939291906126f1565b60405180910390a16118c76000858361155c565b809250505095945050505050565b60006118e0846119e0565b6118ed57600190506119d8565b60008473ffffffffffffffffffffffffffffffffffffffff1663150b7a02338887876040518563ffffffff1660e01b815260040161192e9493929190612799565b6020604051808303816000875af115801561194d573d6000803e3d6000fd5b505050506040513d601f19601f8201168201806040525081019061197191906127fa565b90507f150b7a023d4804d13e8c85fb27262cb750cf6ba9f9dd3bb30d90f482ceeb4b1f7bffffffffffffffffffffffffffffffffffffffffffffffffffffffff1916817bffffffffffffffffffffffffffffffffffffffffffffffffffffffff1916149150505b949350505050565b600080823b905060008163ffffffff1611915050919050565b600080fd5b600080fd5b60007fffffffff0000000000000000000000000000000000000000000000000000000082169050919050565b611a3881611a03565b8114611a4357600080fd5b50565b600081359050611a5581611a2f565b92915050565b600060208284031215611a7157611a706119f9565b5b6000611a7f84828501611a46565b91505092915050565b60008115159050919050565b611a9d81611a88565b82525050565b6000602082019050611ab86000830184611a94565b92915050565b600081519050919050565b600082825260208201905092915050565b60005b83811015611af8578082015181840152602081019050611add565b60008484015250505050565b6000601f19601f8301169050919050565b6000611b2082611abe565b611b2a8185611ac9565b9350611b3a818560208601611ada565b611b4381611b04565b840191505092915050565b60006020820190508181036000830152611b688184611b15565b905092915050565b6000819050919050565b611b8381611b70565b8114611b8e57600080fd5b50565b600081359050611ba081611b7a565b92915050565b600060208284031215611bbc57611bbb6119f9565b5b6000611bca84828501611b91565b91505092915050565b600073ffffffffffffffffffffffffffffffffffffffff82169050919050565b6000611bfe82611bd3565b9050919050565b611c0e81611bf3565b82525050565b6000602082019050611c296000830184611c05565b92915050565b611c3881611bf3565b8114611c4357600080fd5b50565b600081359050611c5581611c2f565b92915050565b60008060408385031215611c7257611c716119f9565b5b6000611c8085828601611c46565b9250506020611c9185828601611b91565b9150509250929050565b611ca481611b70565b82525050565b6000602082019050611cbf6000830184611c9b565b92915050565b600080600060608486031215611cde57611cdd6119f9565b5b6000611cec86828701611c46565b9350506020611cfd86828701611c46565b9250506040611d0e86828701611b91565b9150509250925092565b600060208284031215611d2e57611d2d6119f9565b5b6000611d3c84828501611c46565b91505092915050565b600060a082019050611d5a6000830188611c9b565b611d676020830187611c9b565b611d746040830186611c9b565b611d816060830185611c9b565b611d8e6080830184611c9b565b9695505050505050565b611da181611a88565b8114611dac57600080fd5b50565b600081359050611dbe81611d98565b92915050565b60008060408385031215611ddb57611dda6119f9565b5b6000611de985828601611c46565b9250506020611dfa85828601611daf565b9150509250929050565b600081519050919050565b600082825260208201905092915050565b6000819050602082019050919050565b611e3981611b70565b82525050565b6000611e4b8383611e30565b60208301905092915050565b6000602082019050919050565b6000611e6f82611e04565b611e798185611e0f565b9350611e8483611e20565b8060005b83811015611eb5578151611e9c8882611e3f565b9750611ea783611e57565b925050600181019050611e88565b5085935050505092915050565b60006020820190508181036000830152611edc8184611e64565b905092915050565b600080fd5b600080fd5b600080fd5b60008083601f840112611f0957611f08611ee4565b5b8235905067ffffffffffffffff811115611f2657611f25611ee9565b5b602083019150836001820283011115611f4257611f41611eee565b5b9250929050565b600080600080600060808688031215611f6557611f646119f9565b5b6000611f7388828901611c46565b9550506020611f8488828901611c46565b9450506040611f9588828901611b91565b935050606086013567ffffffffffffffff811115611fb657611fb56119fe565b5b611fc288828901611ef3565b92509250509295509295909350565b60008060408385031215611fe857611fe76119f9565b5b6000611ff685828601611c46565b925050602061200785828601611c46565b9150509250929050565b7f746f6b656e496420646f6573206e6f7420657869737400000000000000000000600082015250565b6000612047601683611ac9565b915061205282612011565b602082019050919050565b600060208201905081810360008301526120768161203a565b9050919050565b7f6d73672e73656e646572206973206e6f742074686520746f6b656e206f776e6560008201527f7221000000000000000000000000000000000000000000000000000000000000602082015250565b60006120d9602283611ac9565b91506120e48261207d565b604082019050919050565b60006020820190508181036000830152612108816120cc565b9050919050565b7f4d757374206e6f742062652073656e7420746f20302061646472657373000000600082015250565b6000612145601d83611ac9565b91506121508261210f565b602082019050919050565b6000602082019050818103600083015261217481612138565b9050919050565b7f4e6f7420617574686f72697a656420746f2073656e64207472616e736163746960008201527f6f6e000000000000000000000000000000000000000000000000000000000000602082015250565b60006121d7602283611ac9565b91506121e28261217b565b604082019050919050565b60006020820190508181036000830152612206816121ca565b9050919050565b7f46726f6d2d41646472657373206973206e6f742074686520746f6b656e206f7760008201527f6e65722100000000000000000000000000000000000000000000000000000000602082015250565b6000612269602483611ac9565b91506122748261220d565b604082019050919050565b600060208201905081810360008301526122988161225c565b9050919050565b7f43616c6c6572206973206e6f7420746865206f776e6572000000000000000000600082015250565b60006122d5601783611ac9565b91506122e08261229f565b602082019050919050565b60006020820190508181036000830152612304816122c8565b9050919050565b7f47656e65726174696f6e203020737570706c7920616c72656164792066756c6c60008201527f79206d696e746564210000000000000000000000000000000000000000000000602082015250565b6000612367602983611ac9565b91506123728261230b565b604082019050919050565b600060208201905081810360008301526123968161235a565b9050919050565b7f4e487b7100000000000000000000000000000000000000000000000000000000600052601160045260246000fd5b60006123d782611b70565b91507fffffffffffffffffffffffffffffffffffffffffffffffffffffffffffffffff82036124095761240861239d565b5b600182019050919050565b7f4e487b7100000000000000000000000000000000000000000000000000000000600052603260045260246000fd5b7f6f70657261746f72206d757374206e6f74206265206d73672e73656e64657200600082015250565b6000612479601f83611ac9565b915061248482612443565b602082019050919050565b600060208201905081810360008301526124a88161246c565b9050919050565b7f4e487b7100000000000000000000000000000000000000000000000000000000600052604160045260246000fd5b7f496e76616c696420416464726573733b2043616e6e6f74207472616e7366657260008201527f20746f2041646472657373203021000000000000000000000000000000000000602082015250565b600061253a602e83611ac9565b9150612545826124de565b604082019050919050565b600060208201905081810360008301526125698161252d565b9050919050565b7f496e76616c696420416464726573733b2043616e6e6f74207472616e7366657260008201527f20746f20436f6e74726163742041646472657373210000000000000000000000602082015250565b60006125cc603583611ac9565b91506125d782612570565b604082019050919050565b600060208201905081810360008301526125fb816125bf565b9050919050565b7f496e76616c696420416464726573733b2043616e6e6f74207472616e7366657260008201527f20746f206f776e20416464726573732100000000000000000000000000000000602082015250565b600061265e603083611ac9565b915061266982612602565b604082019050919050565b6000602082019050818103600083015261268d81612651565b9050919050565b600061269f82611b70565b9150600082036126b2576126b161239d565b5b600182039050919050565b60006126c882611b70565b91506126d383611b70565b92508282039050818111156126eb576126ea61239d565b5b92915050565b600060a0820190506127066000830188611c05565b6127136020830187611c9b565b6127206040830186611c9b565b61272d6060830185611c9b565b61273a6080830184611c9b565b9695505050505050565b600081519050919050565b600082825260208201905092915050565b600061276b82612744565b612775818561274f565b9350612785818560208601611ada565b61278e81611b04565b840191505092915050565b60006080820190506127ae6000830187611c05565b6127bb6020830186611c05565b6127c86040830185611c9b565b81810360608301526127da8184612760565b905095945050505050565b6000815190506127f481611a2f565b92915050565b6000602082840312156128105761280f6119f9565b5b600061281e848285016127e5565b9150509291505056fea2646970667358221220ff20a0b38fa6a0c530f1a7b66b4e62c47a21e3f67df4652963884dbf53b0316164736f6c63430008100033",
  "immutableReferences": {},
  "source": "// SPDX-License-Identifier: MIT\r\npragma solidity ^0.8.16;\r\npragma experimental ABIEncoderV2;\r\n\r\nimport \"./IERC721.sol\";\r\nimport \"./Ownable.sol\";\r\nimport \"./IERC721Receiver.sol\";\r\n\r\ncontract Bearcontract is IERC721, Ownable {\r\n\r\n    uint256 public constant CREATION_LIMIT_GEN0 = 10;\r\n    string public constant bearTicker = \"AcademyBear\";\r\n    string public constant bearSymbol = \"ABT\";\r\n\r\n    bytes4 internal constant ERC721_RECEIVED= bytes4(keccak256(\"onERC721Received(address,address,uint256,bytes)\"));\r\n    \r\n    //Interface IDs\r\n    bytes4 private constant _INTERFACE_ID_ERC721 = 0x80ac58cd;\r\n    bytes4 private constant _INTERFACE_ID_ERC165 = 0x01ffc9a7;\r\n\r\n    //Interface Support for ERC721 and ERC165\r\n    function supportsInterface(bytes4 _interfaceId) external view returns (bool) {\r\n        return (_interfaceId == _INTERFACE_ID_ERC721 || _interfaceId == _INTERFACE_ID_ERC165);\r\n    }\r\n\r\n    //Birth event for Bears\r\n    event Birth(\r\n        address owner, \r\n        uint256 bearId, \r\n        uint256 mumId, \r\n        uint256 dadId, \r\n        uint256 genes\r\n    );\r\n\r\n    //Struct of the Bears\r\n    struct Bear {\r\n        uint256 genes;\r\n        uint64 birthTime;\r\n        uint32 mumId;\r\n        uint32 dadId;\r\n        uint16 generation;\r\n    }\r\n\r\n    Bear[] bears;\r\n\r\n    mapping (uint256 => address) public bearIndexToOwner;\r\n    mapping (address => uint256) tokenOwnershipCount;\r\n    mapping (uint256 => address) public bearIndexToApproved;\r\n    mapping (address => mapping (address => bool)) private _operatorApprovals;\r\n\r\n    uint256 public gen0Counter;\r\n\r\n    //Owner can create gen0 bears\r\n    function createBearGen0(uint256 _genes) public onlyOwner returns (uint256){\r\n        require(gen0Counter <= CREATION_LIMIT_GEN0, \"Generation 0 supply already fully minted!\");\r\n\r\n        gen0Counter++;\r\n\r\n        //Gen0 are owned by the contract\r\n        return(_createBear(_genes, 0, 0, 0, address(0)));\r\n    }\r\n\r\n    //create Bear\r\n    function _createBear( \r\n        uint256 _genes,\r\n        uint256 _mumId,\r\n        uint256 _dadId,\r\n        uint256 _generation,\r\n        address _owner\r\n    ) private returns (uint256) {\r\n        Bear memory _bear = Bear({\r\n            genes: _genes,\r\n            birthTime: uint64(block.timestamp),\r\n            mumId: uint32(_mumId),\r\n            dadId: uint32(_dadId),\r\n            generation: uint16(_generation)\r\n        });\r\n\r\n        bears.push(_bear);\r\n\r\n        uint256 newBearId = bears.length - 1;\r\n\r\n        emit Birth(_owner, newBearId, _mumId, _dadId, _genes);\r\n\r\n        _transfer(address(0), _owner, newBearId);\r\n\r\n        return newBearId;\r\n    }\r\n\r\n    function getBearByOwner(address _owner) external view returns (uint[] memory) {\r\n        uint[] memory result = new uint[](tokenOwnershipCount[_owner]);\r\n        uint counter = 0;\r\n        for (uint i = 0; i < bears.length; i++) {\r\n            if (bearIndexToOwner[i] == _owner) {\r\n                result[counter] = i;\r\n                counter++;\r\n            }\r\n        }\r\n        return result;\r\n    }\r\n\r\n    //returns bear properties\r\n    function getBear(uint256 tokenId) external view returns (\r\n        uint256 genes,\r\n        uint256 birthTime,\r\n        uint256 mumId,\r\n        uint256 dadId,\r\n        uint256 generation\r\n    ){ \r\n        Bear storage bear = bears[tokenId];\r\n\r\n        genes = uint256 (bear.genes);\r\n        birthTime = uint256 (bear.birthTime);\r\n        mumId = uint256 (bear.mumId);\r\n        dadId = uint256 (bear.dadId);\r\n        generation = uint256 (bear.generation);\r\n    }\r\n\r\n    //Returns the number of tokens in ``owner``'s account.\r\n    function balanceOf(address owner) external view returns (uint256 balance) {\r\n        return tokenOwnershipCount[owner];\r\n    }\r\n\r\n    //Returns the total number of tokens in circulation.\r\n    function totalSupply() external view returns (uint256) {\r\n        return bears.length;\r\n    }\r\n\r\n    //Returns the name of the token.\r\n    function name() external view returns (string memory tokenName) {\r\n        tokenName = bearTicker;\r\n    }\r\n\r\n    //Returns the symbol of the token.\r\n    function symbol() external view returns (string memory tokenSymbol) {\r\n        tokenSymbol = bearSymbol;\r\n    }\r\n\r\n    //Returns the owner of the `tokenId` token.\r\n    function ownerOf(uint256 tokenId) external view returns (address) {\r\n        return bearIndexToOwner[tokenId];\r\n    }\r\n\r\n    //Transfers `tokenId` token from `msg.sender` to `to`\r\n    function transfer(address to, uint256 tokenId) external {\r\n        require(to != address(0), \"Invalid Address; Cannot transfer to Address 0!\");\r\n        require(to != address(this), \"Invalid Address; Cannot transfer to Contract Address!\");\r\n        require(_owns(msg.sender, tokenId), \"Invalid Address; Cannot transfer to own Address!\");\r\n\r\n        _transfer(msg.sender, to, tokenId);\r\n    }\r\n\r\n    function _transfer(address _from, address _to, uint256 _tokenId) internal {\r\n        tokenOwnershipCount[_to]++;\r\n        bearIndexToOwner[_tokenId] = _to;\r\n        \r\n        if(_from != address(0)) {\r\n            tokenOwnershipCount[_from]--;\r\n            delete bearIndexToApproved[_tokenId];\r\n        }\r\n\r\n    //Emitted when `tokenId` token is transfered from `from` to `to`.\r\n        emit Transfer(_from, _to, _tokenId);\r\n    }\r\n    \r\n    //Change or reaffirm the approved address for an NFT\r\n    function approve(address _to, uint256 _tokenId) public {\r\n        require(_owns(msg.sender, _tokenId), \"msg.sender is not the token owner!\");\r\n\r\n        _approve(_tokenId, _to);\r\n        emit Approval(msg.sender, _to, _tokenId);\r\n    }\r\n\r\n    function _owns(address _claimant, uint256 _tokenId) internal view returns (bool) {\r\n        return bearIndexToOwner[_tokenId] == _claimant;\r\n    }\r\n    \r\n    function _approve(uint256 _tokenId, address _approved) internal {\r\n        bearIndexToApproved[_tokenId] = _approved;\r\n    }\r\n\r\n    //Enable or disable approval for a third party (\"operator\") to manage all of `msg.sender`'s assets\r\n    function setApprovalForAll(address operator, bool approved) public {\r\n        require(operator != msg.sender, \"operator must not be msg.sender\");\r\n\r\n        _operatorApprovals[msg.sender][operator] = approved;\r\n\r\n    //Emitted when `owner` enables or disables (`approved`) `operator` to manage all of its assets.\r\n        emit ApprovalForAll(msg.sender, operator, approved);\r\n    }\r\n\r\n    //Get the approved address for a single NFT\r\n    function getApproved(uint256 tokenId) public view returns (address) {\r\n        require(tokenId < bears.length, \"tokenId does not exist\");\r\n        return bearIndexToOwner[tokenId];\r\n    }\r\n\r\n    //Query if an address is an authorized operator for another address\r\n    function isApprovedForAll(address owner, address operator) public view returns (bool) {\r\n        return _operatorApprovals[owner][operator];\r\n    }\r\n\r\n    // Transfers the ownership of an NFT from one address to another address, including data\r\n    function safeTransferFrom(address from, address to, uint256 tokenId, bytes calldata data) public {\r\n        require(to != address(0), \"Must not be sent to 0 address\");\r\n        require(msg.sender == from || isApprovedForAll(from, msg.sender) == true || getApproved(tokenId) == msg.sender, \"Not authorized to send transaction\");\r\n        require(_owns(from, tokenId), \"From-Address is not the token owner!\");\r\n        require(tokenId < bears.length, \"tokenId does not exist\");\r\n\r\n        _safeTransfer(from, to, tokenId, data);\r\n    }\r\n\r\n    // Transfers the ownership of an NFT from one address to another address\r\n    function safeTransferFrom(address from, address to, uint256 tokenId) public {\r\n        require(to != address(0), \"Must not be sent to 0 address\");\r\n        require(msg.sender == from || isApprovedForAll(from, msg.sender) == true || getApproved(tokenId) == msg.sender, \"Not authorized to send transaction\");\r\n        require(_owns(from, tokenId), \"From-Address is not the token owner!\");\r\n        require(tokenId < bears.length, \"tokenId does not exist\");\r\n\r\n        _safeTransfer(from, to, tokenId, \"\");\r\n    }\r\n\r\n    function _safeTransfer(address _from, address _to, uint256 _tokenId, bytes memory _data) internal {\r\n        _transfer(_from, _to, _tokenId);\r\n        require(_checkERC721Support(_from, _to, _tokenId, _data));\r\n    }\r\n\r\n    //Check if receiving contract supports ERC721\r\n    function _checkERC721Support(address _from, address _to, uint256 _tokenId, bytes memory _data) internal returns (bool) {\r\n        if(!_isContract(_to)) {\r\n            return true;\r\n        }\r\n        //Call onERC721Received in _to contract\r\n        bytes4 returnData = IERC721Receiver(_to).onERC721Received(msg.sender, _from, _tokenId, _data);\r\n\r\n        //Check return value\r\n        return returnData == ERC721_RECEIVED;\r\n    }\r\n\r\n    //Check to see if recipient is a contract\r\n    function _isContract(address _to) view internal returns (bool) {\r\n        uint32 size;\r\n        assembly{\r\n            size := extcodesize(_to)\r\n        }\r\n        return size > 0;\r\n    }\r\n\r\n    // Transfer ownership of an NFT\r\n    function transferFrom(address from, address to, uint256 tokenId) public {\r\n        require(to != address(0), \"Must not be sent to 0 address\");\r\n        require(_owns(msg.sender, tokenId) || isApprovedForAll(from, msg.sender) == true || getApproved(tokenId) == msg.sender, \"Not authorized to send transaction\");\r\n        require(_owns(from, tokenId), \"From-Address is not the token owner!\");\r\n        require(tokenId < bears.length, \"tokenId does not exist\");\r\n\r\n        _transfer(from, to, tokenId);\r\n    }\r\n}",
  "sourcePath": "C:\\Users\\Admin\\Webdev\\nft_marketplace\\academy-kitties-template\\contracts\\Bearcontract.sol",
  "compiler": {
    "name": "solc",
    "version": "0.8.16+commit.07a7930e.Emscripten.clang"
  },
  "schemaVersion": "3.4.7",
  "updatedAt": "2022-09-14T12:05:51.489Z",
  "devdoc": {
    "kind": "dev",
    "methods": {
      "balanceOf(address)": {
        "details": "Returns the number of tokens in ``owner``'s account."
      },
      "ownerOf(uint256)": {
        "details": "Returns the owner of the `tokenId` token. Requirements: - `tokenId` must exist."
      }
    },
    "version": 1
  },
  "userdoc": {
    "kind": "user",
    "methods": {},
    "version": 1
  }
}