{
  "contractName": "Bearcontract",
  "abi": [
    {
      "anonymous": false,
      "inputs": [
        {
          "indexed": true,
          "internalType": "address",
          "name": "owner",
          "type": "address"
        },
        {
          "indexed": true,
          "internalType": "address",
          "name": "approved",
          "type": "address"
        },
        {
          "indexed": true,
          "internalType": "uint256",
          "name": "tokenId",
          "type": "uint256"
        }
      ],
      "name": "Approval",
      "type": "event"
    },
    {
      "anonymous": false,
      "inputs": [
        {
          "indexed": true,
          "internalType": "address",
          "name": "owner",
          "type": "address"
        },
        {
          "indexed": true,
          "internalType": "address",
          "name": "operator",
          "type": "address"
        },
        {
          "indexed": false,
          "internalType": "bool",
          "name": "approved",
          "type": "bool"
        }
      ],
      "name": "ApprovalForAll",
      "type": "event"
    },
    {
      "anonymous": false,
      "inputs": [
        {
          "indexed": false,
          "internalType": "address",
          "name": "owner",
          "type": "address"
        },
        {
          "indexed": false,
          "internalType": "uint256",
          "name": "bearId",
          "type": "uint256"
        },
        {
          "indexed": false,
          "internalType": "uint256",
          "name": "mumId",
          "type": "uint256"
        },
        {
          "indexed": false,
          "internalType": "uint256",
          "name": "dadId",
          "type": "uint256"
        },
        {
          "indexed": false,
          "internalType": "uint256",
          "name": "genes",
          "type": "uint256"
        }
      ],
      "name": "Birth",
      "type": "event"
    },
    {
      "anonymous": false,
      "inputs": [
        {
          "indexed": true,
          "internalType": "address",
          "name": "from",
          "type": "address"
        },
        {
          "indexed": true,
          "internalType": "address",
          "name": "to",
          "type": "address"
        },
        {
          "indexed": true,
          "internalType": "uint256",
          "name": "tokenId",
          "type": "uint256"
        }
      ],
      "name": "Transfer",
      "type": "event"
    },
    {
      "inputs": [],
      "name": "CREATION_LIMIT_GEN0",
      "outputs": [
        {
          "internalType": "uint256",
          "name": "",
          "type": "uint256"
        }
      ],
      "stateMutability": "view",
      "type": "function"
    },
    {
      "inputs": [
        {
          "internalType": "uint256",
          "name": "",
          "type": "uint256"
        }
      ],
      "name": "bearIndexToApproved",
      "outputs": [
        {
          "internalType": "address",
          "name": "",
          "type": "address"
        }
      ],
      "stateMutability": "view",
      "type": "function"
    },
    {
      "inputs": [
        {
          "internalType": "uint256",
          "name": "",
          "type": "uint256"
        }
      ],
      "name": "bearIndexToOwner",
      "outputs": [
        {
          "internalType": "address",
          "name": "",
          "type": "address"
        }
      ],
      "stateMutability": "view",
      "type": "function"
    },
    {
      "inputs": [],
      "name": "bearSymbol",
      "outputs": [
        {
          "internalType": "string",
          "name": "",
          "type": "string"
        }
      ],
      "stateMutability": "view",
      "type": "function"
    },
    {
      "inputs": [],
      "name": "bearTicker",
      "outputs": [
        {
          "internalType": "string",
          "name": "",
          "type": "string"
        }
      ],
      "stateMutability": "view",
      "type": "function"
    },
    {
      "inputs": [],
      "name": "gen0Counter",
      "outputs": [
        {
          "internalType": "uint256",
          "name": "",
          "type": "uint256"
        }
      ],
      "stateMutability": "view",
      "type": "function"
    },
    {
      "inputs": [],
      "name": "owner",
      "outputs": [
        {
          "internalType": "address",
          "name": "",
          "type": "address"
        }
      ],
      "stateMutability": "view",
      "type": "function"
    },
    {
      "inputs": [
        {
          "internalType": "uint256",
          "name": "_genes",
          "type": "uint256"
        }
      ],
      "name": "createBearGen0",
      "outputs": [
        {
          "internalType": "uint256",
          "name": "",
          "type": "uint256"
        }
      ],
      "stateMutability": "nonpayable",
      "type": "function"
    },
    {
      "inputs": [
        {
          "internalType": "address",
          "name": "_owner",
          "type": "address"
        }
      ],
      "name": "getBearByOwner",
      "outputs": [
        {
          "internalType": "uint256[]",
          "name": "",
          "type": "uint256[]"
        }
      ],
      "stateMutability": "view",
      "type": "function"
    },
    {
      "inputs": [
        {
          "internalType": "uint256",
          "name": "tokenId",
          "type": "uint256"
        }
      ],
      "name": "getBear",
      "outputs": [
        {
          "internalType": "uint256",
          "name": "genes",
          "type": "uint256"
        },
        {
          "internalType": "uint256",
          "name": "birthTime",
          "type": "uint256"
        },
        {
          "internalType": "uint256",
          "name": "mumId",
          "type": "uint256"
        },
        {
          "internalType": "uint256",
          "name": "dadId",
          "type": "uint256"
        },
        {
          "internalType": "uint256",
          "name": "generation",
          "type": "uint256"
        }
      ],
      "stateMutability": "view",
      "type": "function"
    },
    {
      "inputs": [
        {
          "internalType": "address",
          "name": "owner",
          "type": "address"
        }
      ],
      "name": "balanceOf",
      "outputs": [
        {
          "internalType": "uint256",
          "name": "balance",
          "type": "uint256"
        }
      ],
      "stateMutability": "view",
      "type": "function"
    },
    {
      "inputs": [],
      "name": "totalSupply",
      "outputs": [
        {
          "internalType": "uint256",
          "name": "",
          "type": "uint256"
        }
      ],
      "stateMutability": "view",
      "type": "function"
    },
    {
      "inputs": [],
      "name": "name",
      "outputs": [
        {
          "internalType": "string",
          "name": "tokenName",
          "type": "string"
        }
      ],
      "stateMutability": "view",
      "type": "function"
    },
    {
      "inputs": [],
      "name": "symbol",
      "outputs": [
        {
          "internalType": "string",
          "name": "tokenSymbol",
          "type": "string"
        }
      ],
      "stateMutability": "view",
      "type": "function"
    },
    {
      "inputs": [
        {
          "internalType": "uint256",
          "name": "tokenId",
          "type": "uint256"
        }
      ],
      "name": "ownerOf",
      "outputs": [
        {
          "internalType": "address",
          "name": "",
          "type": "address"
        }
      ],
      "stateMutability": "view",
      "type": "function"
    },
    {
      "inputs": [
        {
          "internalType": "address",
          "name": "to",
          "type": "address"
        },
        {
          "internalType": "uint256",
          "name": "tokenId",
          "type": "uint256"
        }
      ],
      "name": "transfer",
      "outputs": [],
      "stateMutability": "nonpayable",
      "type": "function"
    },
    {
      "inputs": [
        {
          "internalType": "address",
          "name": "_to",
          "type": "address"
        },
        {
          "internalType": "uint256",
          "name": "_tokenId",
          "type": "uint256"
        }
      ],
      "name": "approve",
      "outputs": [],
      "stateMutability": "nonpayable",
      "type": "function"
    },
    {
      "inputs": [
        {
          "internalType": "address",
          "name": "operator",
          "type": "address"
        },
        {
          "internalType": "bool",
          "name": "approved",
          "type": "bool"
        }
      ],
      "name": "setApprovalForAll",
      "outputs": [],
      "stateMutability": "nonpayable",
      "type": "function"
    },
    {
      "inputs": [
        {
          "internalType": "uint256",
          "name": "tokenId",
          "type": "uint256"
        }
      ],
      "name": "getApproved",
      "outputs": [
        {
          "internalType": "address",
          "name": "",
          "type": "address"
        }
      ],
      "stateMutability": "view",
      "type": "function"
    },
    {
      "inputs": [
        {
          "internalType": "address",
          "name": "owner",
          "type": "address"
        },
        {
          "internalType": "address",
          "name": "operator",
          "type": "address"
        }
      ],
      "name": "isApprovedForAll",
      "outputs": [
        {
          "internalType": "bool",
          "name": "",
          "type": "bool"
        }
      ],
      "stateMutability": "view",
      "type": "function"
    },
    {
      "inputs": [
        {
          "internalType": "address",
          "name": "from",
          "type": "address"
        },
        {
          "internalType": "address",
          "name": "to",
          "type": "address"
        },
        {
          "internalType": "uint256",
          "name": "tokenId",
          "type": "uint256"
        }
      ],
      "name": "safeTransferFrom",
      "outputs": [],
      "stateMutability": "nonpayable",
      "type": "function"
    },
    {
      "inputs": [
        {
          "internalType": "address",
          "name": "from",
          "type": "address"
        },
        {
          "internalType": "address",
          "name": "to",
          "type": "address"
        },
        {
          "internalType": "uint256",
          "name": "tokenId",
          "type": "uint256"
        },
        {
          "internalType": "bytes",
          "name": "data",
          "type": "bytes"
        }
      ],
      "name": "safeTransferFrom",
      "outputs": [],
      "stateMutability": "nonpayable",
      "type": "function"
    },
    {
      "inputs": [
        {
          "internalType": "address",
          "name": "from",
          "type": "address"
        },
        {
          "internalType": "address",
          "name": "to",
          "type": "address"
        },
        {
          "internalType": "uint256",
          "name": "tokenId",
          "type": "uint256"
        }
      ],
      "name": "transferFrom",
      "outputs": [],
      "stateMutability": "nonpayable",
      "type": "function"
    }
  ],
  "bytecode": "0x6080604052336000806101000a81548173ffffffffffffffffffffffffffffffffffffffff021916908373ffffffffffffffffffffffffffffffffffffffff16021790555034801561005057600080fd5b50612740806100606000396000f3fe608060405234801561001057600080fd5b506004361061014d5760003560e01c806395d89b41116100c3578063b88d4fde1161007c578063b88d4fde146103c8578063cb2839dc146103e4578063de636fa314610402578063e985e9c514610420578063ef5e94aa14610450578063f3feace31461046e5761014d565b806395d89b41146102f4578063a22cb46514610312578063a43a74591461032e578063a9059cbb1461035e578063b48343301461037a578063b7967374146103985761014d565b806342842e0e1161011557806342842e0e146101f65780634f9dc353146102125780636352211e1461024257806370a08231146102725780638724d112146102a25780638da5cb5b146102d65761014d565b806306fdde0314610152578063081812fc14610170578063095ea7b3146101a057806318160ddd146101bc57806323b872dd146101da575b600080fd5b61015a61049e565b60405161016791906119ae565b60405180910390f35b61018a60048036038101906101859190611a10565b6104db565b6040516101979190611a7e565b60405180910390f35b6101ba60048036038101906101b59190611ac5565b61055f565b005b6101c4610611565b6040516101d19190611b14565b60405180910390f35b6101f460048036038101906101ef9190611b2f565b61061e565b005b610210600480360381019061020b9190611b2f565b6107cc565b005b61022c60048036038101906102279190611a10565b6109af565b6040516102399190611b14565b60405180910390f35b61025c60048036038101906102579190611a10565b610a9a565b6040516102699190611a7e565b60405180910390f35b61028c60048036038101906102879190611b82565b610ad7565b6040516102999190611b14565b60405180910390f35b6102bc60048036038101906102b79190611a10565b610b20565b6040516102cd959493929190611baf565b60405180910390f35b6102de610bd6565b6040516102eb9190611a7e565b60405180910390f35b6102fc610bff565b60405161030991906119ae565b60405180910390f35b61032c60048036038101906103279190611c3a565b610c3c565b005b61034860048036038101906103439190611b82565b610da7565b6040516103559190611d38565b60405180910390f35b61037860048036038101906103739190611ac5565b610ef9565b005b61038261102e565b60405161038f9190611b14565b60405180910390f35b6103b260048036038101906103ad9190611a10565b611033565b6040516103bf9190611a7e565b60405180910390f35b6103e260048036038101906103dd9190611dbf565b611066565b005b6103ec611280565b6040516103f991906119ae565b60405180910390f35b61040a6112b9565b60405161041791906119ae565b60405180910390f35b61043a60048036038101906104359190611e47565b6112f2565b6040516104479190611e96565b60405180910390f35b610458611386565b6040516104659190611b14565b60405180910390f35b61048860048036038101906104839190611a10565b61138c565b6040516104959190611a7e565b60405180910390f35b60606040518060400160405280600b81526020017f41636164656d7942656172000000000000000000000000000000000000000000815250905090565b60006001805490508210610524576040517f08c379a000000000000000000000000000000000000000000000000000000000815260040161051b90611efd565b60405180910390fd5b6002600083815260200190815260200160002060009054906101000a900473ffffffffffffffffffffffffffffffffffffffff169050919050565b61056933826113bf565b6105a8576040517f08c379a000000000000000000000000000000000000000000000000000000000815260040161059f90611f8f565b60405180910390fd5b6105b2818361142b565b808273ffffffffffffffffffffffffffffffffffffffff163373ffffffffffffffffffffffffffffffffffffffff167f8c5be1e5ebec7d5bd14f71427d1e84f3dd0314c0f7b2291e5b200ac8c7c3b92560405160405180910390a45050565b6000600180549050905090565b600073ffffffffffffffffffffffffffffffffffffffff168273ffffffffffffffffffffffffffffffffffffffff160361068d576040517f08c379a000000000000000000000000000000000000000000000000000000000815260040161068490611ffb565b60405180910390fd5b61069733826113bf565b806106af5750600115156106ab84336112f2565b1515145b806106ed57503373ffffffffffffffffffffffffffffffffffffffff166106d5826104db565b73ffffffffffffffffffffffffffffffffffffffff16145b61072c576040517f08c379a00000000000000000000000000000000000000000000000000000000081526004016107239061208d565b60405180910390fd5b61073683826113bf565b610775576040517f08c379a000000000000000000000000000000000000000000000000000000000815260040161076c9061211f565b60405180910390fd5b60018054905081106107bc576040517f08c379a00000000000000000000000000000000000000000000000000000000081526004016107b390611efd565b60405180910390fd5b6107c7838383611481565b505050565b600073ffffffffffffffffffffffffffffffffffffffff168273ffffffffffffffffffffffffffffffffffffffff160361083b576040517f08c379a000000000000000000000000000000000000000000000000000000000815260040161083290611ffb565b60405180910390fd5b8273ffffffffffffffffffffffffffffffffffffffff163373ffffffffffffffffffffffffffffffffffffffff16148061088257506001151561087e84336112f2565b1515145b806108c057503373ffffffffffffffffffffffffffffffffffffffff166108a8826104db565b73ffffffffffffffffffffffffffffffffffffffff16145b6108ff576040517f08c379a00000000000000000000000000000000000000000000000000000000081526004016108f69061208d565b60405180910390fd5b61090983826113bf565b610948576040517f08c379a000000000000000000000000000000000000000000000000000000000815260040161093f9061211f565b60405180910390fd5b600180549050811061098f576040517f08c379a000000000000000000000000000000000000000000000000000000000815260040161098690611efd565b60405180910390fd5b6109aa83838360405180602001604052806000815250611648565b505050565b60003373ffffffffffffffffffffffffffffffffffffffff166109d0610bd6565b73ffffffffffffffffffffffffffffffffffffffff1614610a26576040517f08c379a0000000000000000000000000000000000000000000000000000000008152600401610a1d9061218b565b60405180910390fd5b600a6006541115610a6c576040517f08c379a0000000000000000000000000000000000000000000000000000000008152600401610a639061221d565b60405180910390fd5b60066000815480929190610a7f9061226c565b9190505550610a938260008060008061166e565b9050919050565b60006002600083815260200190815260200160002060009054906101000a900473ffffffffffffffffffffffffffffffffffffffff169050919050565b6000600360008373ffffffffffffffffffffffffffffffffffffffff1673ffffffffffffffffffffffffffffffffffffffff168152602001908152602001600020549050919050565b60008060008060008060018781548110610b3d57610b3c6122b4565b5b90600052602060002090600202019050806000015495508060010160009054906101000a900467ffffffffffffffff1667ffffffffffffffff1694508060010160089054906101000a900463ffffffff1663ffffffff16935080600101600c9054906101000a900463ffffffff1663ffffffff1692508060010160109054906101000a900461ffff1661ffff1691505091939590929450565b60008060009054906101000a900473ffffffffffffffffffffffffffffffffffffffff16905090565b60606040518060400160405280600381526020017f4142540000000000000000000000000000000000000000000000000000000000815250905090565b3373ffffffffffffffffffffffffffffffffffffffff168273ffffffffffffffffffffffffffffffffffffffff1603610caa576040517f08c379a0000000000000000000000000000000000000000000000000000000008152600401610ca19061232f565b60405180910390fd5b80600560003373ffffffffffffffffffffffffffffffffffffffff1673ffffffffffffffffffffffffffffffffffffffff16815260200190815260200160002060008473ffffffffffffffffffffffffffffffffffffffff1673ffffffffffffffffffffffffffffffffffffffff16815260200190815260200160002060006101000a81548160ff0219169083151502179055508173ffffffffffffffffffffffffffffffffffffffff163373ffffffffffffffffffffffffffffffffffffffff167f17307eab39ab6107e8899845ad3d59bd9653f200f220920489ca2b5937696c3183604051610d9b9190611e96565b60405180910390a35050565b60606000600360008473ffffffffffffffffffffffffffffffffffffffff1673ffffffffffffffffffffffffffffffffffffffff1681526020019081526020016000205467ffffffffffffffff811115610e0457610e0361234f565b5b604051908082528060200260200182016040528015610e325781602001602082028036833780820191505090505b5090506000805b600180549050811015610eee578473ffffffffffffffffffffffffffffffffffffffff166002600083815260200190815260200160002060009054906101000a900473ffffffffffffffffffffffffffffffffffffffff1673ffffffffffffffffffffffffffffffffffffffff1603610edb5780838381518110610ec057610ebf6122b4565b5b6020026020010181815250508180610ed79061226c565b9250505b8080610ee69061226c565b915050610e39565b508192505050919050565b600073ffffffffffffffffffffffffffffffffffffffff168273ffffffffffffffffffffffffffffffffffffffff1603610f68576040517f08c379a0000000000000000000000000000000000000000000000000000000008152600401610f5f906123f0565b60405180910390fd5b3073ffffffffffffffffffffffffffffffffffffffff168273ffffffffffffffffffffffffffffffffffffffff1603610fd6576040517f08c379a0000000000000000000000000000000000000000000000000000000008152600401610fcd90612482565b60405180910390fd5b610fe033826113bf565b61101f576040517f08c379a000000000000000000000000000000000000000000000000000000000815260040161101690612514565b60405180910390fd5b61102a338383611481565b5050565b600a81565b60026020528060005260406000206000915054906101000a900473ffffffffffffffffffffffffffffffffffffffff1681565b600073ffffffffffffffffffffffffffffffffffffffff168473ffffffffffffffffffffffffffffffffffffffff16036110d5576040517f08c379a00000000000000000000000000000000000000000000000000000000081526004016110cc90611ffb565b60405180910390fd5b8473ffffffffffffffffffffffffffffffffffffffff163373ffffffffffffffffffffffffffffffffffffffff16148061111c57506001151561111886336112f2565b1515145b8061115a57503373ffffffffffffffffffffffffffffffffffffffff16611142846104db565b73ffffffffffffffffffffffffffffffffffffffff16145b611199576040517f08c379a00000000000000000000000000000000000000000000000000000000081526004016111909061208d565b60405180910390fd5b6111a385846113bf565b6111e2576040517f08c379a00000000000000000000000000000000000000000000000000000000081526004016111d99061211f565b60405180910390fd5b6001805490508310611229576040517f08c379a000000000000000000000000000000000000000000000000000000000815260040161122090611efd565b60405180910390fd5b61127985858585858080601f016020809104026020016040519081016040528093929190818152602001838380828437600081840152601f19601f82011690508083019250505050505050611648565b5050505050565b6040518060400160405280600381526020017f414254000000000000000000000000000000000000000000000000000000000081525081565b6040518060400160405280600b81526020017f41636164656d794265617200000000000000000000000000000000000000000081525081565b6000600560008473ffffffffffffffffffffffffffffffffffffffff1673ffffffffffffffffffffffffffffffffffffffff16815260200190815260200160002060008373ffffffffffffffffffffffffffffffffffffffff1673ffffffffffffffffffffffffffffffffffffffff16815260200190815260200160002060009054906101000a900460ff16905092915050565b60065481565b60046020528060005260406000206000915054906101000a900473ffffffffffffffffffffffffffffffffffffffff1681565b60008273ffffffffffffffffffffffffffffffffffffffff166002600084815260200190815260200160002060009054906101000a900473ffffffffffffffffffffffffffffffffffffffff1673ffffffffffffffffffffffffffffffffffffffff1614905092915050565b806004600084815260200190815260200160002060006101000a81548173ffffffffffffffffffffffffffffffffffffffff021916908373ffffffffffffffffffffffffffffffffffffffff1602179055505050565b600360008373ffffffffffffffffffffffffffffffffffffffff1673ffffffffffffffffffffffffffffffffffffffff16815260200190815260200160002060008154809291906114d19061226c565b9190505550816002600083815260200190815260200160002060006101000a81548173ffffffffffffffffffffffffffffffffffffffff021916908373ffffffffffffffffffffffffffffffffffffffff160217905550600073ffffffffffffffffffffffffffffffffffffffff168373ffffffffffffffffffffffffffffffffffffffff16146115e857600360008473ffffffffffffffffffffffffffffffffffffffff1673ffffffffffffffffffffffffffffffffffffffff16815260200190815260200160002060008154809291906115ac90612534565b91905055506004600082815260200190815260200160002060006101000a81549073ffffffffffffffffffffffffffffffffffffffff02191690555b808273ffffffffffffffffffffffffffffffffffffffff168473ffffffffffffffffffffffffffffffffffffffff167fddf252ad1be2c89b69c2b068fc378daa952ba7f163c4a11628f55a4df523b3ef60405160405180910390a4505050565b611653848484611481565b61165f848484846117fa565b61166857600080fd5b50505050565b6000806040518060a001604052808881526020014267ffffffffffffffff1681526020018763ffffffff1681526020018663ffffffff1681526020018561ffff16815250905060018190806001815401808255809150506001900390600052602060002090600202016000909190919091506000820151816000015560208201518160010160006101000a81548167ffffffffffffffff021916908367ffffffffffffffff16021790555060408201518160010160086101000a81548163ffffffff021916908363ffffffff160217905550606082015181600101600c6101000a81548163ffffffff021916908363ffffffff16021790555060808201518160010160106101000a81548161ffff021916908361ffff160217905550505060006001808054905061179f919061255d565b90507f0a5311bd2a6608f08a180df2ee7c5946819a649b204b554bb8e39825b2c50ad5848289898c6040516117d8959493929190612591565b60405180910390a16117ec60008583611481565b809250505095945050505050565b600061180584611905565b61181257600190506118fd565b60008473ffffffffffffffffffffffffffffffffffffffff1663150b7a02338887876040518563ffffffff1660e01b81526004016118539493929190612639565b6020604051808303816000875af1158015611872573d6000803e3d6000fd5b505050506040513d601f19601f8201168201806040525081019061189691906126dd565b90507f150b7a023d4804d13e8c85fb27262cb750cf6ba9f9dd3bb30d90f482ceeb4b1f7bffffffffffffffffffffffffffffffffffffffffffffffffffffffff1916817bffffffffffffffffffffffffffffffffffffffffffffffffffffffff1916149150505b949350505050565b600080823b905060008163ffffffff1611915050919050565b600081519050919050565b600082825260208201905092915050565b60005b8381101561195857808201518184015260208101905061193d565b60008484015250505050565b6000601f19601f8301169050919050565b60006119808261191e565b61198a8185611929565b935061199a81856020860161193a565b6119a381611964565b840191505092915050565b600060208201905081810360008301526119c88184611975565b905092915050565b600080fd5b600080fd5b6000819050919050565b6119ed816119da565b81146119f857600080fd5b50565b600081359050611a0a816119e4565b92915050565b600060208284031215611a2657611a256119d0565b5b6000611a34848285016119fb565b91505092915050565b600073ffffffffffffffffffffffffffffffffffffffff82169050919050565b6000611a6882611a3d565b9050919050565b611a7881611a5d565b82525050565b6000602082019050611a936000830184611a6f565b92915050565b611aa281611a5d565b8114611aad57600080fd5b50565b600081359050611abf81611a99565b92915050565b60008060408385031215611adc57611adb6119d0565b5b6000611aea85828601611ab0565b9250506020611afb858286016119fb565b9150509250929050565b611b0e816119da565b82525050565b6000602082019050611b296000830184611b05565b92915050565b600080600060608486031215611b4857611b476119d0565b5b6000611b5686828701611ab0565b9350506020611b6786828701611ab0565b9250506040611b78868287016119fb565b9150509250925092565b600060208284031215611b9857611b976119d0565b5b6000611ba684828501611ab0565b91505092915050565b600060a082019050611bc46000830188611b05565b611bd16020830187611b05565b611bde6040830186611b05565b611beb6060830185611b05565b611bf86080830184611b05565b9695505050505050565b60008115159050919050565b611c1781611c02565b8114611c2257600080fd5b50565b600081359050611c3481611c0e565b92915050565b60008060408385031215611c5157611c506119d0565b5b6000611c5f85828601611ab0565b9250506020611c7085828601611c25565b9150509250929050565b600081519050919050565b600082825260208201905092915050565b6000819050602082019050919050565b611caf816119da565b82525050565b6000611cc18383611ca6565b60208301905092915050565b6000602082019050919050565b6000611ce582611c7a565b611cef8185611c85565b9350611cfa83611c96565b8060005b83811015611d2b578151611d128882611cb5565b9750611d1d83611ccd565b925050600181019050611cfe565b5085935050505092915050565b60006020820190508181036000830152611d528184611cda565b905092915050565b600080fd5b600080fd5b600080fd5b60008083601f840112611d7f57611d7e611d5a565b5b8235905067ffffffffffffffff811115611d9c57611d9b611d5f565b5b602083019150836001820283011115611db857611db7611d64565b5b9250929050565b600080600080600060808688031215611ddb57611dda6119d0565b5b6000611de988828901611ab0565b9550506020611dfa88828901611ab0565b9450506040611e0b888289016119fb565b935050606086013567ffffffffffffffff811115611e2c57611e2b6119d5565b5b611e3888828901611d69565b92509250509295509295909350565b60008060408385031215611e5e57611e5d6119d0565b5b6000611e6c85828601611ab0565b9250506020611e7d85828601611ab0565b9150509250929050565b611e9081611c02565b82525050565b6000602082019050611eab6000830184611e87565b92915050565b7f746f6b656e496420646f6573206e6f7420657869737400000000000000000000600082015250565b6000611ee7601683611929565b9150611ef282611eb1565b602082019050919050565b60006020820190508181036000830152611f1681611eda565b9050919050565b7f6d73672e73656e646572206973206e6f742074686520746f6b656e206f776e6560008201527f7221000000000000000000000000000000000000000000000000000000000000602082015250565b6000611f79602283611929565b9150611f8482611f1d565b604082019050919050565b60006020820190508181036000830152611fa881611f6c565b9050919050565b7f4d757374206e6f742062652073656e7420746f20302061646472657373000000600082015250565b6000611fe5601d83611929565b9150611ff082611faf565b602082019050919050565b6000602082019050818103600083015261201481611fd8565b9050919050565b7f4e6f7420617574686f72697a656420746f2073656e64207472616e736163746960008201527f6f6e000000000000000000000000000000000000000000000000000000000000602082015250565b6000612077602283611929565b91506120828261201b565b604082019050919050565b600060208201905081810360008301526120a68161206a565b9050919050565b7f46726f6d2d41646472657373206973206e6f742074686520746f6b656e206f7760008201527f6e65722100000000000000000000000000000000000000000000000000000000602082015250565b6000612109602483611929565b9150612114826120ad565b604082019050919050565b60006020820190508181036000830152612138816120fc565b9050919050565b7f43616c6c6572206973206e6f7420746865206f776e6572000000000000000000600082015250565b6000612175601783611929565b91506121808261213f565b602082019050919050565b600060208201905081810360008301526121a481612168565b9050919050565b7f47656e65726174696f6e203020737570706c7920616c72656164792066756c6c60008201527f79206d696e746564210000000000000000000000000000000000000000000000602082015250565b6000612207602983611929565b9150612212826121ab565b604082019050919050565b60006020820190508181036000830152612236816121fa565b9050919050565b7f4e487b7100000000000000000000000000000000000000000000000000000000600052601160045260246000fd5b6000612277826119da565b91507fffffffffffffffffffffffffffffffffffffffffffffffffffffffffffffffff82036122a9576122a861223d565b5b600182019050919050565b7f4e487b7100000000000000000000000000000000000000000000000000000000600052603260045260246000fd5b7f6f70657261746f72206d757374206e6f74206265206d73672e73656e64657200600082015250565b6000612319601f83611929565b9150612324826122e3565b602082019050919050565b600060208201905081810360008301526123488161230c565b9050919050565b7f4e487b7100000000000000000000000000000000000000000000000000000000600052604160045260246000fd5b7f496e76616c696420416464726573733b2043616e6e6f74207472616e7366657260008201527f20746f2041646472657373203021000000000000000000000000000000000000602082015250565b60006123da602e83611929565b91506123e58261237e565b604082019050919050565b60006020820190508181036000830152612409816123cd565b9050919050565b7f496e76616c696420416464726573733b2043616e6e6f74207472616e7366657260008201527f20746f20436f6e74726163742041646472657373210000000000000000000000602082015250565b600061246c603583611929565b915061247782612410565b604082019050919050565b6000602082019050818103600083015261249b8161245f565b9050919050565b7f496e76616c696420416464726573733b2043616e6e6f74207472616e7366657260008201527f20746f206f776e20416464726573732100000000000000000000000000000000602082015250565b60006124fe603083611929565b9150612509826124a2565b604082019050919050565b6000602082019050818103600083015261252d816124f1565b9050919050565b600061253f826119da565b9150600082036125525761255161223d565b5b600182039050919050565b6000612568826119da565b9150612573836119da565b925082820390508181111561258b5761258a61223d565b5b92915050565b600060a0820190506125a66000830188611a6f565b6125b36020830187611b05565b6125c06040830186611b05565b6125cd6060830185611b05565b6125da6080830184611b05565b9695505050505050565b600081519050919050565b600082825260208201905092915050565b600061260b826125e4565b61261581856125ef565b935061262581856020860161193a565b61262e81611964565b840191505092915050565b600060808201905061264e6000830187611a6f565b61265b6020830186611a6f565b6126686040830185611b05565b818103606083015261267a8184612600565b905095945050505050565b60007fffffffff0000000000000000000000000000000000000000000000000000000082169050919050565b6126ba81612685565b81146126c557600080fd5b50565b6000815190506126d7816126b1565b92915050565b6000602082840312156126f3576126f26119d0565b5b6000612701848285016126c8565b9150509291505056fea264697066735822122098196f10d76a784f0d4af8535f94f56c9685c054a9a9d2dabfd829d234c32d7e64736f6c63430008100033",
  "immutableReferences": {},
  "source": "// SPDX-License-Identifier: MIT\r\npragma solidity ^0.8.16;\r\npragma experimental ABIEncoderV2;\r\n\r\nimport \"./IERC721.sol\";\r\nimport \"./Ownable.sol\";\r\nimport \"./IERC721Receiver.sol\";\r\n\r\ncontract Bearcontract is IERC721, Ownable {\r\n\r\n    uint256 public constant CREATION_LIMIT_GEN0 = 10;\r\n    string public constant bearTicker = \"AcademyBear\";\r\n    string public constant bearSymbol = \"ABT\";\r\n\r\n    bytes4 internal constant ERC721_RECEIVED= bytes4(keccak256(\"onERC721Received(address,address,uint256,bytes)\"));\r\n\r\n    event Birth(\r\n        address owner, \r\n        uint256 bearId, \r\n        uint256 mumId, \r\n        uint256 dadId, \r\n        uint256 genes\r\n    );\r\n\r\n    struct Bear {\r\n        uint256 genes;\r\n        uint64 birthTime;\r\n        uint32 mumId;\r\n        uint32 dadId;\r\n        uint16 generation;\r\n    }\r\n\r\n    Bear[] bears;\r\n\r\n    mapping (uint256 => address) public bearIndexToOwner;\r\n    mapping (address => uint256) tokenOwnershipCount;\r\n    mapping (uint256 => address) public bearIndexToApproved;\r\n    mapping (address => mapping (address => bool)) private _operatorApprovals;\r\n\r\n    uint256 public gen0Counter;\r\n\r\n    //Owner can create gen0 bears\r\n    function createBearGen0(uint256 _genes) public onlyOwner returns (uint256){\r\n        require(gen0Counter <= CREATION_LIMIT_GEN0, \"Generation 0 supply already fully minted!\");\r\n\r\n        gen0Counter++;\r\n\r\n        //Gen0 are owned by the contract\r\n        return(_createBear(_genes, 0, 0, 0, address(0)));\r\n    }\r\n\r\n    //create Bear\r\n    function _createBear( \r\n        uint256 _genes,\r\n        uint256 _mumId,\r\n        uint256 _dadId,\r\n        uint256 _generation,\r\n        address _owner\r\n    ) private returns (uint256) {\r\n        Bear memory _bear = Bear({\r\n            genes: _genes,\r\n            birthTime: uint64(block.timestamp),\r\n            mumId: uint32(_mumId),\r\n            dadId: uint32(_dadId),\r\n            generation: uint16(_generation)\r\n        });\r\n\r\n        bears.push(_bear);\r\n\r\n        uint256 newBearId = bears.length - 1;\r\n\r\n        emit Birth(_owner, newBearId, _mumId, _dadId, _genes);\r\n\r\n        _transfer(address(0), _owner, newBearId);\r\n\r\n        return newBearId;\r\n    }\r\n\r\n    function getBearByOwner(address _owner) external view returns (uint[] memory) {\r\n        uint[] memory result = new uint[](tokenOwnershipCount[_owner]);\r\n        uint counter = 0;\r\n        for (uint i = 0; i < bears.length; i++) {\r\n            if (bearIndexToOwner[i] == _owner) {\r\n                result[counter] = i;\r\n                counter++;\r\n            }\r\n        }\r\n        return result;\r\n    }\r\n\r\n    //returns bear properties\r\n    function getBear(uint256 tokenId) external view returns (\r\n        uint256 genes,\r\n        uint256 birthTime,\r\n        uint256 mumId,\r\n        uint256 dadId,\r\n        uint256 generation\r\n    ){ \r\n        Bear storage bear = bears[tokenId];\r\n\r\n        genes = uint256 (bear.genes);\r\n        birthTime = uint256 (bear.birthTime);\r\n        mumId = uint256 (bear.mumId);\r\n        dadId = uint256 (bear.dadId);\r\n        generation = uint256 (bear.generation);\r\n    }\r\n\r\n    //Returns the number of tokens in ``owner``'s account.\r\n    function balanceOf(address owner) external view returns (uint256 balance) {\r\n        return tokenOwnershipCount[owner];\r\n    }\r\n\r\n    //Returns the total number of tokens in circulation.\r\n    function totalSupply() external view returns (uint256) {\r\n        return bears.length;\r\n    }\r\n\r\n    //Returns the name of the token.\r\n    function name() external view returns (string memory tokenName) {\r\n        tokenName = bearTicker;\r\n    }\r\n\r\n    //Returns the symbol of the token.\r\n    function symbol() external view returns (string memory tokenSymbol) {\r\n        tokenSymbol = bearSymbol;\r\n    }\r\n\r\n    //Returns the owner of the `tokenId` token.\r\n    function ownerOf(uint256 tokenId) external view returns (address) {\r\n        return bearIndexToOwner[tokenId];\r\n    }\r\n\r\n    //Transfers `tokenId` token from `msg.sender` to `to`\r\n    function transfer(address to, uint256 tokenId) external {\r\n        require(to != address(0), \"Invalid Address; Cannot transfer to Address 0!\");\r\n        require(to != address(this), \"Invalid Address; Cannot transfer to Contract Address!\");\r\n        require(_owns(msg.sender, tokenId), \"Invalid Address; Cannot transfer to own Address!\");\r\n\r\n        _transfer(msg.sender, to, tokenId);\r\n    }\r\n\r\n    function _transfer(address _from, address _to, uint256 _tokenId) internal {\r\n        tokenOwnershipCount[_to]++;\r\n        bearIndexToOwner[_tokenId] = _to;\r\n        \r\n        if(_from != address(0)) {\r\n            tokenOwnershipCount[_from]--;\r\n            delete bearIndexToApproved[_tokenId];\r\n        }\r\n\r\n    //Emitted when `tokenId` token is transfered from `from` to `to`.\r\n        emit Transfer(_from, _to, _tokenId);\r\n    }\r\n    \r\n    //Change or reaffirm the approved address for an NFT\r\n    function approve(address _to, uint256 _tokenId) public {\r\n        require(_owns(msg.sender, _tokenId), \"msg.sender is not the token owner!\");\r\n\r\n        _approve(_tokenId, _to);\r\n        emit Approval(msg.sender, _to, _tokenId);\r\n    }\r\n\r\n    function _owns(address _claimant, uint256 _tokenId) internal view returns (bool) {\r\n        return bearIndexToOwner[_tokenId] == _claimant;\r\n    }\r\n    \r\n    function _approve(uint256 _tokenId, address _approved) internal {\r\n        bearIndexToApproved[_tokenId] = _approved;\r\n    }\r\n\r\n    //Enable or disable approval for a third party (\"operator\") to manage all of `msg.sender`'s assets\r\n    function setApprovalForAll(address operator, bool approved) public {\r\n        require(operator != msg.sender, \"operator must not be msg.sender\");\r\n\r\n        _operatorApprovals[msg.sender][operator] = approved;\r\n\r\n    //Emitted when `owner` enables or disables (`approved`) `operator` to manage all of its assets.\r\n        emit ApprovalForAll(msg.sender, operator, approved);\r\n    }\r\n\r\n    //Get the approved address for a single NFT\r\n    function getApproved(uint256 tokenId) public view returns (address) {\r\n        require(tokenId < bears.length, \"tokenId does not exist\");\r\n        return bearIndexToOwner[tokenId];\r\n    }\r\n\r\n    //Query if an address is an authorized operator for another address\r\n    function isApprovedForAll(address owner, address operator) public view returns (bool) {\r\n        return _operatorApprovals[owner][operator];\r\n    }\r\n\r\n    // Transfers the ownership of an NFT from one address to another address\r\n    function safeTransferFrom(address from, address to, uint256 tokenId, bytes calldata data) public {\r\n        require(to != address(0), \"Must not be sent to 0 address\");\r\n        require(msg.sender == from || isApprovedForAll(from, msg.sender) == true || getApproved(tokenId) == msg.sender, \"Not authorized to send transaction\");\r\n        require(_owns(from, tokenId), \"From-Address is not the token owner!\");\r\n        require(tokenId < bears.length, \"tokenId does not exist\");\r\n\r\n        _safeTransfer(from, to, tokenId, data);\r\n    }\r\n\r\n    // Transfers the ownership of an NFT from one address to another address\r\n    function safeTransferFrom(address from, address to, uint256 tokenId) public {\r\n        require(to != address(0), \"Must not be sent to 0 address\");\r\n        require(msg.sender == from || isApprovedForAll(from, msg.sender) == true || getApproved(tokenId) == msg.sender, \"Not authorized to send transaction\");\r\n        require(_owns(from, tokenId), \"From-Address is not the token owner!\");\r\n        require(tokenId < bears.length, \"tokenId does not exist\");\r\n\r\n        _safeTransfer(from, to, tokenId, \"\");\r\n    }\r\n\r\n    function _safeTransfer(address _from, address _to, uint256 _tokenId, bytes memory _data) internal {\r\n        _transfer(_from, _to, _tokenId);\r\n        require(_checkERC721Support(_from, _to, _tokenId, _data));\r\n    }\r\n\r\n    function _checkERC721Support(address _from, address _to, uint256 _tokenId, bytes memory _data) internal returns (bool) {\r\n        if(!_isContract(_to)) {\r\n            return true;\r\n        }\r\n        //Call onERC721Received in _to contract\r\n        bytes4 returnData = IERC721Receiver(_to).onERC721Received(msg.sender, _from, _tokenId, _data);\r\n\r\n        //Check return value\r\n        return returnData == ERC721_RECEIVED;\r\n    }\r\n\r\n    function _isContract(address _to) view internal returns (bool) {\r\n        uint32 size;\r\n        assembly{\r\n            size := extcodesize(_to)\r\n        }\r\n        return size > 0;\r\n    }\r\n\r\n    // Transfer ownership of an NFT\r\n    function transferFrom(address from, address to, uint256 tokenId) public {\r\n        require(to != address(0), \"Must not be sent to 0 address\");\r\n        require(_owns(msg.sender, tokenId) || isApprovedForAll(from, msg.sender) == true || getApproved(tokenId) == msg.sender, \"Not authorized to send transaction\");\r\n        require(_owns(from, tokenId), \"From-Address is not the token owner!\");\r\n        require(tokenId < bears.length, \"tokenId does not exist\");\r\n\r\n        _transfer(from, to, tokenId);\r\n    }\r\n}",
  "sourcePath": "C:\\Users\\Admin\\Webdev\\nft_marketplace\\academy-kitties-template\\contracts\\Bearcontract.sol",
  "compiler": {
    "name": "solc",
    "version": "0.8.16+commit.07a7930e.Emscripten.clang"
  },
  "schemaVersion": "3.4.7",
  "updatedAt": "2022-09-14T10:52:17.048Z",
  "devdoc": {
    "kind": "dev",
    "methods": {
      "balanceOf(address)": {
        "details": "Returns the number of tokens in ``owner``'s account."
      },
      "ownerOf(uint256)": {
        "details": "Returns the owner of the `tokenId` token. Requirements: - `tokenId` must exist."
      }
    },
    "version": 1
  },
  "userdoc": {
    "kind": "user",
    "methods": {},
    "version": 1
  }
}