{
  "contractName": "Bearcontract",
  "abi": [
    {
      "anonymous": false,
      "inputs": [
        {
          "indexed": true,
          "internalType": "address",
          "name": "owner",
          "type": "address"
        },
        {
          "indexed": true,
          "internalType": "address",
          "name": "approved",
          "type": "address"
        },
        {
          "indexed": true,
          "internalType": "uint256",
          "name": "tokenId",
          "type": "uint256"
        }
      ],
      "name": "Approval",
      "type": "event"
    },
    {
      "anonymous": false,
      "inputs": [
        {
          "indexed": true,
          "internalType": "address",
          "name": "owner",
          "type": "address"
        },
        {
          "indexed": true,
          "internalType": "address",
          "name": "operator",
          "type": "address"
        },
        {
          "indexed": false,
          "internalType": "bool",
          "name": "approved",
          "type": "bool"
        }
      ],
      "name": "ApprovalForAll",
      "type": "event"
    },
    {
      "anonymous": false,
      "inputs": [
        {
          "indexed": false,
          "internalType": "address",
          "name": "owner",
          "type": "address"
        },
        {
          "indexed": false,
          "internalType": "uint256",
          "name": "bearId",
          "type": "uint256"
        },
        {
          "indexed": false,
          "internalType": "uint256",
          "name": "mumId",
          "type": "uint256"
        },
        {
          "indexed": false,
          "internalType": "uint256",
          "name": "dadId",
          "type": "uint256"
        },
        {
          "indexed": false,
          "internalType": "uint256",
          "name": "genes",
          "type": "uint256"
        }
      ],
      "name": "Birth",
      "type": "event"
    },
    {
      "anonymous": false,
      "inputs": [
        {
          "indexed": true,
          "internalType": "address",
          "name": "from",
          "type": "address"
        },
        {
          "indexed": true,
          "internalType": "address",
          "name": "to",
          "type": "address"
        },
        {
          "indexed": true,
          "internalType": "uint256",
          "name": "tokenId",
          "type": "uint256"
        }
      ],
      "name": "Transfer",
      "type": "event"
    },
    {
      "inputs": [],
      "name": "CREATION_LIMIT_GEN0",
      "outputs": [
        {
          "internalType": "uint256",
          "name": "",
          "type": "uint256"
        }
      ],
      "stateMutability": "view",
      "type": "function",
      "constant": true
    },
    {
      "inputs": [
        {
          "internalType": "uint256",
          "name": "",
          "type": "uint256"
        }
      ],
      "name": "bearIndexToApproved",
      "outputs": [
        {
          "internalType": "address",
          "name": "",
          "type": "address"
        }
      ],
      "stateMutability": "view",
      "type": "function",
      "constant": true
    },
    {
      "inputs": [
        {
          "internalType": "uint256",
          "name": "",
          "type": "uint256"
        }
      ],
      "name": "bearIndexToOwner",
      "outputs": [
        {
          "internalType": "address",
          "name": "",
          "type": "address"
        }
      ],
      "stateMutability": "view",
      "type": "function",
      "constant": true
    },
    {
      "inputs": [],
      "name": "bearSymbol",
      "outputs": [
        {
          "internalType": "string",
          "name": "",
          "type": "string"
        }
      ],
      "stateMutability": "view",
      "type": "function",
      "constant": true
    },
    {
      "inputs": [],
      "name": "bearTicker",
      "outputs": [
        {
          "internalType": "string",
          "name": "",
          "type": "string"
        }
      ],
      "stateMutability": "view",
      "type": "function",
      "constant": true
    },
    {
      "inputs": [],
      "name": "gen0Counter",
      "outputs": [
        {
          "internalType": "uint256",
          "name": "",
          "type": "uint256"
        }
      ],
      "stateMutability": "view",
      "type": "function",
      "constant": true
    },
    {
      "inputs": [],
      "name": "owner",
      "outputs": [
        {
          "internalType": "address",
          "name": "",
          "type": "address"
        }
      ],
      "stateMutability": "view",
      "type": "function",
      "constant": true
    },
    {
      "inputs": [
        {
          "internalType": "bytes4",
          "name": "_interfaceId",
          "type": "bytes4"
        }
      ],
      "name": "supportsInterface",
      "outputs": [
        {
          "internalType": "bool",
          "name": "",
          "type": "bool"
        }
      ],
      "stateMutability": "view",
      "type": "function",
      "constant": true
    },
    {
      "inputs": [
        {
          "internalType": "uint256",
          "name": "dadId",
          "type": "uint256"
        },
        {
          "internalType": "uint256",
          "name": "mumId",
          "type": "uint256"
        }
      ],
      "name": "breed",
      "outputs": [
        {
          "internalType": "uint256",
          "name": "",
          "type": "uint256"
        }
      ],
      "stateMutability": "nonpayable",
      "type": "function"
    },
    {
      "inputs": [
        {
          "internalType": "uint256",
          "name": "genes",
          "type": "uint256"
        }
      ],
      "name": "createBearGen0",
      "outputs": [
        {
          "internalType": "uint256",
          "name": "",
          "type": "uint256"
        }
      ],
      "stateMutability": "nonpayable",
      "type": "function"
    },
    {
      "inputs": [
        {
          "internalType": "address",
          "name": "owner",
          "type": "address"
        }
      ],
      "name": "getBearByOwner",
      "outputs": [
        {
          "internalType": "uint256[]",
          "name": "",
          "type": "uint256[]"
        }
      ],
      "stateMutability": "view",
      "type": "function",
      "constant": true
    },
    {
      "inputs": [
        {
          "internalType": "uint256",
          "name": "tokenId",
          "type": "uint256"
        }
      ],
      "name": "getBear",
      "outputs": [
        {
          "internalType": "uint256",
          "name": "genes",
          "type": "uint256"
        },
        {
          "internalType": "uint256",
          "name": "birthTime",
          "type": "uint256"
        },
        {
          "internalType": "uint256",
          "name": "mumId",
          "type": "uint256"
        },
        {
          "internalType": "uint256",
          "name": "dadId",
          "type": "uint256"
        },
        {
          "internalType": "uint256",
          "name": "generation",
          "type": "uint256"
        }
      ],
      "stateMutability": "view",
      "type": "function",
      "constant": true
    },
    {
      "inputs": [
        {
          "internalType": "address",
          "name": "owner",
          "type": "address"
        }
      ],
      "name": "balanceOf",
      "outputs": [
        {
          "internalType": "uint256",
          "name": "balance",
          "type": "uint256"
        }
      ],
      "stateMutability": "view",
      "type": "function",
      "constant": true
    },
    {
      "inputs": [],
      "name": "totalSupply",
      "outputs": [
        {
          "internalType": "uint256",
          "name": "",
          "type": "uint256"
        }
      ],
      "stateMutability": "view",
      "type": "function",
      "constant": true
    },
    {
      "inputs": [],
      "name": "name",
      "outputs": [
        {
          "internalType": "string",
          "name": "tokenName",
          "type": "string"
        }
      ],
      "stateMutability": "view",
      "type": "function",
      "constant": true
    },
    {
      "inputs": [],
      "name": "symbol",
      "outputs": [
        {
          "internalType": "string",
          "name": "tokenSymbol",
          "type": "string"
        }
      ],
      "stateMutability": "view",
      "type": "function",
      "constant": true
    },
    {
      "inputs": [
        {
          "internalType": "uint256",
          "name": "tokenId",
          "type": "uint256"
        }
      ],
      "name": "ownerOf",
      "outputs": [
        {
          "internalType": "address",
          "name": "",
          "type": "address"
        }
      ],
      "stateMutability": "view",
      "type": "function",
      "constant": true
    },
    {
      "inputs": [
        {
          "internalType": "address",
          "name": "to",
          "type": "address"
        },
        {
          "internalType": "uint256",
          "name": "tokenId",
          "type": "uint256"
        }
      ],
      "name": "transfer",
      "outputs": [],
      "stateMutability": "nonpayable",
      "type": "function"
    },
    {
      "inputs": [
        {
          "internalType": "address",
          "name": "_to",
          "type": "address"
        },
        {
          "internalType": "uint256",
          "name": "_tokenId",
          "type": "uint256"
        }
      ],
      "name": "approve",
      "outputs": [],
      "stateMutability": "nonpayable",
      "type": "function"
    },
    {
      "inputs": [
        {
          "internalType": "address",
          "name": "operator",
          "type": "address"
        },
        {
          "internalType": "bool",
          "name": "approved",
          "type": "bool"
        }
      ],
      "name": "setApprovalForAll",
      "outputs": [],
      "stateMutability": "nonpayable",
      "type": "function"
    },
    {
      "inputs": [
        {
          "internalType": "uint256",
          "name": "tokenId",
          "type": "uint256"
        }
      ],
      "name": "getApproved",
      "outputs": [
        {
          "internalType": "address",
          "name": "",
          "type": "address"
        }
      ],
      "stateMutability": "view",
      "type": "function",
      "constant": true
    },
    {
      "inputs": [
        {
          "internalType": "address",
          "name": "owner",
          "type": "address"
        },
        {
          "internalType": "address",
          "name": "operator",
          "type": "address"
        }
      ],
      "name": "isApprovedForAll",
      "outputs": [
        {
          "internalType": "bool",
          "name": "",
          "type": "bool"
        }
      ],
      "stateMutability": "view",
      "type": "function",
      "constant": true
    },
    {
      "inputs": [
        {
          "internalType": "address",
          "name": "from",
          "type": "address"
        },
        {
          "internalType": "address",
          "name": "to",
          "type": "address"
        },
        {
          "internalType": "uint256",
          "name": "tokenId",
          "type": "uint256"
        }
      ],
      "name": "safeTransferFrom",
      "outputs": [],
      "stateMutability": "nonpayable",
      "type": "function"
    },
    {
      "inputs": [
        {
          "internalType": "address",
          "name": "from",
          "type": "address"
        },
        {
          "internalType": "address",
          "name": "to",
          "type": "address"
        },
        {
          "internalType": "uint256",
          "name": "tokenId",
          "type": "uint256"
        },
        {
          "internalType": "bytes",
          "name": "data",
          "type": "bytes"
        }
      ],
      "name": "safeTransferFrom",
      "outputs": [],
      "stateMutability": "nonpayable",
      "type": "function"
    },
    {
      "inputs": [
        {
          "internalType": "address",
          "name": "from",
          "type": "address"
        },
        {
          "internalType": "address",
          "name": "to",
          "type": "address"
        },
        {
          "internalType": "uint256",
          "name": "tokenId",
          "type": "uint256"
        }
      ],
      "name": "transferFrom",
      "outputs": [],
      "stateMutability": "nonpayable",
      "type": "function"
    }
  ],
  "bytecode": "0x6080604052336000806101000a81548173ffffffffffffffffffffffffffffffffffffffff021916908373ffffffffffffffffffffffffffffffffffffffff16021790555034801561005057600080fd5b50612e27806100606000396000f3fe608060405234801561001057600080fd5b50600436106101735760003560e01c806395d89b41116100de578063b88d4fde11610097578063de636fa311610071578063de636fa314610488578063e985e9c5146104a6578063ef5e94aa146104d6578063f3feace3146104f457610173565b8063b88d4fde1461041e578063cb2839dc1461043a578063d9ecad7b1461045857610173565b806395d89b411461034a578063a22cb46514610368578063a43a745914610384578063a9059cbb146103b4578063b4834330146103d0578063b7967374146103ee57610173565b806342842e0e1161013057806342842e0e1461024c5780634f9dc353146102685780636352211e1461029857806370a08231146102c85780638724d112146102f85780638da5cb5b1461032c57610173565b806301ffc9a71461017857806306fdde03146101a8578063081812fc146101c6578063095ea7b3146101f657806318160ddd1461021257806323b872dd14610230575b600080fd5b610192600480360381019061018d9190611da2565b610524565b60405161019f9190611dea565b60405180910390f35b6101b06105c4565b6040516101bd9190611e95565b60405180910390f35b6101e060048036038101906101db9190611eed565b610601565b6040516101ed9190611f5b565b60405180910390f35b610210600480360381019061020b9190611fa2565b610685565b005b61021a610737565b6040516102279190611ff1565b60405180910390f35b61024a6004803603810190610245919061200c565b610744565b005b6102666004803603810190610261919061200c565b6108f2565b005b610282600480360381019061027d9190611eed565b610ad5565b60405161028f9190611ff1565b60405180910390f35b6102b260048036038101906102ad9190611eed565b610bc0565b6040516102bf9190611f5b565b60405180910390f35b6102e260048036038101906102dd919061205f565b610bfd565b6040516102ef9190611ff1565b60405180910390f35b610312600480360381019061030d9190611eed565b610c46565b60405161032395949392919061208c565b60405180910390f35b610334610cfc565b6040516103419190611f5b565b60405180910390f35b610352610d25565b60405161035f9190611e95565b60405180910390f35b610382600480360381019061037d919061210b565b610d62565b005b61039e6004803603810190610399919061205f565b610ecd565b6040516103ab9190612209565b60405180910390f35b6103ce60048036038101906103c99190611fa2565b61101f565b005b6103d8611154565b6040516103e59190611ff1565b60405180910390f35b61040860048036038101906104039190611eed565b611159565b6040516104159190611f5b565b60405180910390f35b61043860048036038101906104339190612290565b61118c565b005b6104426113a6565b60405161044f9190611e95565b60405180910390f35b610472600480360381019061046d9190612318565b6113df565b60405161047f9190611ff1565b60405180910390f35b61049061156b565b60405161049d9190611e95565b60405180910390f35b6104c060048036038101906104bb9190612358565b6115a4565b6040516104cd9190611dea565b60405180910390f35b6104de611638565b6040516104eb9190611ff1565b60405180910390f35b61050e60048036038101906105099190611eed565b61163e565b60405161051b9190611f5b565b60405180910390f35b60006380ac58cd60e01b7bffffffffffffffffffffffffffffffffffffffffffffffffffffffff1916827bffffffffffffffffffffffffffffffffffffffffffffffffffffffff191614806105bd57506301ffc9a760e01b7bffffffffffffffffffffffffffffffffffffffffffffffffffffffff1916827bffffffffffffffffffffffffffffffffffffffffffffffffffffffff1916145b9050919050565b60606040518060400160405280600b81526020017f41636164656d7942656172000000000000000000000000000000000000000000815250905090565b6000600180549050821061064a576040517f08c379a0000000000000000000000000000000000000000000000000000000008152600401610641906123e4565b60405180910390fd5b6002600083815260200190815260200160002060009054906101000a900473ffffffffffffffffffffffffffffffffffffffff169050919050565b61068f3382611671565b6106ce576040517f08c379a00000000000000000000000000000000000000000000000000000000081526004016106c590612476565b60405180910390fd5b6106d881836116dd565b808273ffffffffffffffffffffffffffffffffffffffff163373ffffffffffffffffffffffffffffffffffffffff167f8c5be1e5ebec7d5bd14f71427d1e84f3dd0314c0f7b2291e5b200ac8c7c3b92560405160405180910390a45050565b6000600180549050905090565b600073ffffffffffffffffffffffffffffffffffffffff168273ffffffffffffffffffffffffffffffffffffffff16036107b3576040517f08c379a00000000000000000000000000000000000000000000000000000000081526004016107aa906124e2565b60405180910390fd5b6107bd3382611671565b806107d55750600115156107d184336115a4565b1515145b8061081357503373ffffffffffffffffffffffffffffffffffffffff166107fb82610601565b73ffffffffffffffffffffffffffffffffffffffff16145b610852576040517f08c379a000000000000000000000000000000000000000000000000000000000815260040161084990612574565b60405180910390fd5b61085c8382611671565b61089b576040517f08c379a000000000000000000000000000000000000000000000000000000000815260040161089290612606565b60405180910390fd5b60018054905081106108e2576040517f08c379a00000000000000000000000000000000000000000000000000000000081526004016108d9906123e4565b60405180910390fd5b6108ed838383611733565b505050565b600073ffffffffffffffffffffffffffffffffffffffff168273ffffffffffffffffffffffffffffffffffffffff1603610961576040517f08c379a0000000000000000000000000000000000000000000000000000000008152600401610958906124e2565b60405180910390fd5b8273ffffffffffffffffffffffffffffffffffffffff163373ffffffffffffffffffffffffffffffffffffffff1614806109a85750600115156109a484336115a4565b1515145b806109e657503373ffffffffffffffffffffffffffffffffffffffff166109ce82610601565b73ffffffffffffffffffffffffffffffffffffffff16145b610a25576040517f08c379a0000000000000000000000000000000000000000000000000000000008152600401610a1c90612574565b60405180910390fd5b610a2f8382611671565b610a6e576040517f08c379a0000000000000000000000000000000000000000000000000000000008152600401610a6590612606565b60405180910390fd5b6001805490508110610ab5576040517f08c379a0000000000000000000000000000000000000000000000000000000008152600401610aac906123e4565b60405180910390fd5b610ad0838383604051806020016040528060008152506118fa565b505050565b60003373ffffffffffffffffffffffffffffffffffffffff16610af6610cfc565b73ffffffffffffffffffffffffffffffffffffffff1614610b4c576040517f08c379a0000000000000000000000000000000000000000000000000000000008152600401610b4390612672565b60405180910390fd5b600a6006541115610b92576040517f08c379a0000000000000000000000000000000000000000000000000000000008152600401610b8990612704565b60405180910390fd5b60066000815480929190610ba590612753565b9190505550610bb982600080600080611920565b9050919050565b60006002600083815260200190815260200160002060009054906101000a900473ffffffffffffffffffffffffffffffffffffffff169050919050565b6000600360008373ffffffffffffffffffffffffffffffffffffffff1673ffffffffffffffffffffffffffffffffffffffff168152602001908152602001600020549050919050565b60008060008060008060018781548110610c6357610c6261279b565b5b90600052602060002090600202019050806000015495508060010160009054906101000a900467ffffffffffffffff1667ffffffffffffffff1694508060010160089054906101000a900463ffffffff1663ffffffff16935080600101600c9054906101000a900463ffffffff1663ffffffff1692508060010160109054906101000a900461ffff1661ffff1691505091939590929450565b60008060009054906101000a900473ffffffffffffffffffffffffffffffffffffffff16905090565b60606040518060400160405280600381526020017f4142540000000000000000000000000000000000000000000000000000000000815250905090565b3373ffffffffffffffffffffffffffffffffffffffff168273ffffffffffffffffffffffffffffffffffffffff1603610dd0576040517f08c379a0000000000000000000000000000000000000000000000000000000008152600401610dc790612816565b60405180910390fd5b80600560003373ffffffffffffffffffffffffffffffffffffffff1673ffffffffffffffffffffffffffffffffffffffff16815260200190815260200160002060008473ffffffffffffffffffffffffffffffffffffffff1673ffffffffffffffffffffffffffffffffffffffff16815260200190815260200160002060006101000a81548160ff0219169083151502179055508173ffffffffffffffffffffffffffffffffffffffff163373ffffffffffffffffffffffffffffffffffffffff167f17307eab39ab6107e8899845ad3d59bd9653f200f220920489ca2b5937696c3183604051610ec19190611dea565b60405180910390a35050565b60606000600360008473ffffffffffffffffffffffffffffffffffffffff1673ffffffffffffffffffffffffffffffffffffffff1681526020019081526020016000205467ffffffffffffffff811115610f2a57610f29612836565b5b604051908082528060200260200182016040528015610f585781602001602082028036833780820191505090505b5090506000805b600180549050811015611014578473ffffffffffffffffffffffffffffffffffffffff166002600083815260200190815260200160002060009054906101000a900473ffffffffffffffffffffffffffffffffffffffff1673ffffffffffffffffffffffffffffffffffffffff16036110015780838381518110610fe657610fe561279b565b5b6020026020010181815250508180610ffd90612753565b9250505b808061100c90612753565b915050610f5f565b508192505050919050565b600073ffffffffffffffffffffffffffffffffffffffff168273ffffffffffffffffffffffffffffffffffffffff160361108e576040517f08c379a0000000000000000000000000000000000000000000000000000000008152600401611085906128d7565b60405180910390fd5b3073ffffffffffffffffffffffffffffffffffffffff168273ffffffffffffffffffffffffffffffffffffffff16036110fc576040517f08c379a00000000000000000000000000000000000000000000000000000000081526004016110f390612969565b60405180910390fd5b6111063382611671565b611145576040517f08c379a000000000000000000000000000000000000000000000000000000000815260040161113c906129fb565b60405180910390fd5b611150338383611733565b5050565b600a81565b60026020528060005260406000206000915054906101000a900473ffffffffffffffffffffffffffffffffffffffff1681565b600073ffffffffffffffffffffffffffffffffffffffff168473ffffffffffffffffffffffffffffffffffffffff16036111fb576040517f08c379a00000000000000000000000000000000000000000000000000000000081526004016111f2906124e2565b60405180910390fd5b8473ffffffffffffffffffffffffffffffffffffffff163373ffffffffffffffffffffffffffffffffffffffff16148061124257506001151561123e86336115a4565b1515145b8061128057503373ffffffffffffffffffffffffffffffffffffffff1661126884610601565b73ffffffffffffffffffffffffffffffffffffffff16145b6112bf576040517f08c379a00000000000000000000000000000000000000000000000000000000081526004016112b690612574565b60405180910390fd5b6112c98584611671565b611308576040517f08c379a00000000000000000000000000000000000000000000000000000000081526004016112ff90612606565b60405180910390fd5b600180549050831061134f576040517f08c379a0000000000000000000000000000000000000000000000000000000008152600401611346906123e4565b60405180910390fd5b61139f85858585858080601f016020809104026020016040519081016040528093929190818152602001838380828437600081840152601f19601f820116905080830192505050505050506118fa565b5050505050565b6040518060400160405280600381526020017f414254000000000000000000000000000000000000000000000000000000000081525081565b60006113eb3384611671565b8061142957503373ffffffffffffffffffffffffffffffffffffffff1661141184610601565b73ffffffffffffffffffffffffffffffffffffffff16145b611468576040517f08c379a000000000000000000000000000000000000000000000000000000000815260040161145f90612a8d565b60405180910390fd5b6114723383611671565b806114b057503373ffffffffffffffffffffffffffffffffffffffff1661149883610601565b73ffffffffffffffffffffffffffffffffffffffff16145b6114ef576040517f08c379a00000000000000000000000000000000000000000000000000000000081526004016114e690612b1f565b60405180910390fd5b6000806114fb85610c46565b9450505050915060008061150e86610c46565b9450505050915060008184111561153357838061152a90612753565b94509050611543565b818061153e90612753565b925090505b600061154f8685611aac565b905061155e81898b8533611920565b5050505050505092915050565b6040518060400160405280600b81526020017f41636164656d794265617200000000000000000000000000000000000000000081525081565b6000600560008473ffffffffffffffffffffffffffffffffffffffff1673ffffffffffffffffffffffffffffffffffffffff16815260200190815260200160002060008373ffffffffffffffffffffffffffffffffffffffff1673ffffffffffffffffffffffffffffffffffffffff16815260200190815260200160002060009054906101000a900460ff16905092915050565b60065481565b60046020528060005260406000206000915054906101000a900473ffffffffffffffffffffffffffffffffffffffff1681565b60008273ffffffffffffffffffffffffffffffffffffffff166002600084815260200190815260200160002060009054906101000a900473ffffffffffffffffffffffffffffffffffffffff1673ffffffffffffffffffffffffffffffffffffffff1614905092915050565b806004600084815260200190815260200160002060006101000a81548173ffffffffffffffffffffffffffffffffffffffff021916908373ffffffffffffffffffffffffffffffffffffffff1602179055505050565b600360008373ffffffffffffffffffffffffffffffffffffffff1673ffffffffffffffffffffffffffffffffffffffff168152602001908152602001600020600081548092919061178390612753565b9190505550816002600083815260200190815260200160002060006101000a81548173ffffffffffffffffffffffffffffffffffffffff021916908373ffffffffffffffffffffffffffffffffffffffff160217905550600073ffffffffffffffffffffffffffffffffffffffff168373ffffffffffffffffffffffffffffffffffffffff161461189a57600360008473ffffffffffffffffffffffffffffffffffffffff1673ffffffffffffffffffffffffffffffffffffffff168152602001908152602001600020600081548092919061185e90612b3f565b91905055506004600082815260200190815260200160002060006101000a81549073ffffffffffffffffffffffffffffffffffffffff02191690555b808273ffffffffffffffffffffffffffffffffffffffff168473ffffffffffffffffffffffffffffffffffffffff167fddf252ad1be2c89b69c2b068fc378daa952ba7f163c4a11628f55a4df523b3ef60405160405180910390a4505050565b611905848484611733565b61191184848484611bf9565b61191a57600080fd5b50505050565b6000806040518060a001604052808881526020014267ffffffffffffffff1681526020018763ffffffff1681526020018663ffffffff1681526020018561ffff16815250905060018190806001815401808255809150506001900390600052602060002090600202016000909190919091506000820151816000015560208201518160010160006101000a81548167ffffffffffffffff021916908367ffffffffffffffff16021790555060408201518160010160086101000a81548163ffffffff021916908363ffffffff160217905550606082015181600101600c6101000a81548163ffffffff021916908363ffffffff16021790555060808201518160010160106101000a81548161ffff021916908361ffff1602179055505050600060018080549050611a519190612b68565b90507f0a5311bd2a6608f08a180df2ee7c5946819a649b204b554bb8e39825b2c50ad5848289898c604051611a8a959493929190612b9c565b60405180910390a1611a9e60008583611733565b809250505095945050505050565b6000611ab6611d1d565b600060ff42611ac59190612c1e565b9050600060019050600060079050600191505b60808211611b8c576000828460ff161614611b1e57606486611afa9190612c1e565b60ff16848260088110611b1057611b0f61279b565b5b602002018181525050611b4b565b606487611b2b9190612c1e565b60ff16848260088110611b4157611b4061279b565b5b6020020181815250505b606486611b589190612c4f565b9550606487611b679190612c4f565b9650600181611b769190612b68565b9050600282611b859190612c80565b9150611ad8565b60008092505b6008831015611beb57848360088110611bae57611bad61279b565b5b602002015181611bbe9190612cda565b905060078314611bd857606481611bd59190612c80565b90505b8280611be390612753565b935050611b92565b809550505050505092915050565b6000611c0484611d04565b611c115760019050611cfc565b60008473ffffffffffffffffffffffffffffffffffffffff1663150b7a02338887876040518563ffffffff1660e01b8152600401611c529493929190612d63565b6020604051808303816000875af1158015611c71573d6000803e3d6000fd5b505050506040513d601f19601f82011682018060405250810190611c959190612dc4565b90507f150b7a023d4804d13e8c85fb27262cb750cf6ba9f9dd3bb30d90f482ceeb4b1f7bffffffffffffffffffffffffffffffffffffffffffffffffffffffff1916817bffffffffffffffffffffffffffffffffffffffffffffffffffffffff1916149150505b949350505050565b600080823b905060008163ffffffff1611915050919050565b604051806101000160405280600890602082028036833780820191505090505090565b600080fd5b600080fd5b60007fffffffff0000000000000000000000000000000000000000000000000000000082169050919050565b611d7f81611d4a565b8114611d8a57600080fd5b50565b600081359050611d9c81611d76565b92915050565b600060208284031215611db857611db7611d40565b5b6000611dc684828501611d8d565b91505092915050565b60008115159050919050565b611de481611dcf565b82525050565b6000602082019050611dff6000830184611ddb565b92915050565b600081519050919050565b600082825260208201905092915050565b60005b83811015611e3f578082015181840152602081019050611e24565b60008484015250505050565b6000601f19601f8301169050919050565b6000611e6782611e05565b611e718185611e10565b9350611e81818560208601611e21565b611e8a81611e4b565b840191505092915050565b60006020820190508181036000830152611eaf8184611e5c565b905092915050565b6000819050919050565b611eca81611eb7565b8114611ed557600080fd5b50565b600081359050611ee781611ec1565b92915050565b600060208284031215611f0357611f02611d40565b5b6000611f1184828501611ed8565b91505092915050565b600073ffffffffffffffffffffffffffffffffffffffff82169050919050565b6000611f4582611f1a565b9050919050565b611f5581611f3a565b82525050565b6000602082019050611f706000830184611f4c565b92915050565b611f7f81611f3a565b8114611f8a57600080fd5b50565b600081359050611f9c81611f76565b92915050565b60008060408385031215611fb957611fb8611d40565b5b6000611fc785828601611f8d565b9250506020611fd885828601611ed8565b9150509250929050565b611feb81611eb7565b82525050565b60006020820190506120066000830184611fe2565b92915050565b60008060006060848603121561202557612024611d40565b5b600061203386828701611f8d565b935050602061204486828701611f8d565b925050604061205586828701611ed8565b9150509250925092565b60006020828403121561207557612074611d40565b5b600061208384828501611f8d565b91505092915050565b600060a0820190506120a16000830188611fe2565b6120ae6020830187611fe2565b6120bb6040830186611fe2565b6120c86060830185611fe2565b6120d56080830184611fe2565b9695505050505050565b6120e881611dcf565b81146120f357600080fd5b50565b600081359050612105816120df565b92915050565b6000806040838503121561212257612121611d40565b5b600061213085828601611f8d565b9250506020612141858286016120f6565b9150509250929050565b600081519050919050565b600082825260208201905092915050565b6000819050602082019050919050565b61218081611eb7565b82525050565b60006121928383612177565b60208301905092915050565b6000602082019050919050565b60006121b68261214b565b6121c08185612156565b93506121cb83612167565b8060005b838110156121fc5781516121e38882612186565b97506121ee8361219e565b9250506001810190506121cf565b5085935050505092915050565b6000602082019050818103600083015261222381846121ab565b905092915050565b600080fd5b600080fd5b600080fd5b60008083601f8401126122505761224f61222b565b5b8235905067ffffffffffffffff81111561226d5761226c612230565b5b60208301915083600182028301111561228957612288612235565b5b9250929050565b6000806000806000608086880312156122ac576122ab611d40565b5b60006122ba88828901611f8d565b95505060206122cb88828901611f8d565b94505060406122dc88828901611ed8565b935050606086013567ffffffffffffffff8111156122fd576122fc611d45565b5b6123098882890161223a565b92509250509295509295909350565b6000806040838503121561232f5761232e611d40565b5b600061233d85828601611ed8565b925050602061234e85828601611ed8565b9150509250929050565b6000806040838503121561236f5761236e611d40565b5b600061237d85828601611f8d565b925050602061238e85828601611f8d565b9150509250929050565b7f746f6b656e496420646f6573206e6f7420657869737400000000000000000000600082015250565b60006123ce601683611e10565b91506123d982612398565b602082019050919050565b600060208201905081810360008301526123fd816123c1565b9050919050565b7f6d73672e73656e646572206973206e6f742074686520746f6b656e206f776e6560008201527f7221000000000000000000000000000000000000000000000000000000000000602082015250565b6000612460602283611e10565b915061246b82612404565b604082019050919050565b6000602082019050818103600083015261248f81612453565b9050919050565b7f4d757374206e6f742062652073656e7420746f20302061646472657373000000600082015250565b60006124cc601d83611e10565b91506124d782612496565b602082019050919050565b600060208201905081810360008301526124fb816124bf565b9050919050565b7f4e6f7420617574686f72697a656420746f2073656e64207472616e736163746960008201527f6f6e000000000000000000000000000000000000000000000000000000000000602082015250565b600061255e602283611e10565b915061256982612502565b604082019050919050565b6000602082019050818103600083015261258d81612551565b9050919050565b7f46726f6d2d41646472657373206973206e6f742074686520746f6b656e206f7760008201527f6e65722100000000000000000000000000000000000000000000000000000000602082015250565b60006125f0602483611e10565b91506125fb82612594565b604082019050919050565b6000602082019050818103600083015261261f816125e3565b9050919050565b7f43616c6c6572206973206e6f7420746865206f776e6572000000000000000000600082015250565b600061265c601783611e10565b915061266782612626565b602082019050919050565b6000602082019050818103600083015261268b8161264f565b9050919050565b7f47656e65726174696f6e203020737570706c7920616c72656164792066756c6c60008201527f79206d696e746564210000000000000000000000000000000000000000000000602082015250565b60006126ee602983611e10565b91506126f982612692565b604082019050919050565b6000602082019050818103600083015261271d816126e1565b9050919050565b7f4e487b7100000000000000000000000000000000000000000000000000000000600052601160045260246000fd5b600061275e82611eb7565b91507fffffffffffffffffffffffffffffffffffffffffffffffffffffffffffffffff82036127905761278f612724565b5b600182019050919050565b7f4e487b7100000000000000000000000000000000000000000000000000000000600052603260045260246000fd5b7f6f70657261746f72206d757374206e6f74206265206d73672e73656e64657200600082015250565b6000612800601f83611e10565b915061280b826127ca565b602082019050919050565b6000602082019050818103600083015261282f816127f3565b9050919050565b7f4e487b7100000000000000000000000000000000000000000000000000000000600052604160045260246000fd5b7f496e76616c696420416464726573733b2043616e6e6f74207472616e7366657260008201527f20746f2041646472657373203021000000000000000000000000000000000000602082015250565b60006128c1602e83611e10565b91506128cc82612865565b604082019050919050565b600060208201905081810360008301526128f0816128b4565b9050919050565b7f496e76616c696420416464726573733b2043616e6e6f74207472616e7366657260008201527f20746f20436f6e74726163742041646472657373210000000000000000000000602082015250565b6000612953603583611e10565b915061295e826128f7565b604082019050919050565b6000602082019050818103600083015261298281612946565b9050919050565b7f496e76616c696420416464726573733b2043616e6e6f74207472616e7366657260008201527f20746f206f776e20416464726573732100000000000000000000000000000000602082015250565b60006129e5603083611e10565b91506129f082612989565b604082019050919050565b60006020820190508181036000830152612a14816129d8565b9050919050565b7f6d73672e73656e646572206973206e6f742074686520746f6b656e206f776e6560008201527f72206f6620746865206661746865722100000000000000000000000000000000602082015250565b6000612a77603083611e10565b9150612a8282612a1b565b604082019050919050565b60006020820190508181036000830152612aa681612a6a565b9050919050565b7f6d73672e73656e646572206973206e6f742074686520746f6b656e206f776e6560008201527f72206f6620746865206d6f746865722100000000000000000000000000000000602082015250565b6000612b09603083611e10565b9150612b1482612aad565b604082019050919050565b60006020820190508181036000830152612b3881612afc565b9050919050565b6000612b4a82611eb7565b915060008203612b5d57612b5c612724565b5b600182039050919050565b6000612b7382611eb7565b9150612b7e83611eb7565b9250828203905081811115612b9657612b95612724565b5b92915050565b600060a082019050612bb16000830188611f4c565b612bbe6020830187611fe2565b612bcb6040830186611fe2565b612bd86060830185611fe2565b612be56080830184611fe2565b9695505050505050565b7f4e487b7100000000000000000000000000000000000000000000000000000000600052601260045260246000fd5b6000612c2982611eb7565b9150612c3483611eb7565b925082612c4457612c43612bef565b5b828206905092915050565b6000612c5a82611eb7565b9150612c6583611eb7565b925082612c7557612c74612bef565b5b828204905092915050565b6000612c8b82611eb7565b9150612c9683611eb7565b9250817fffffffffffffffffffffffffffffffffffffffffffffffffffffffffffffffff0483118215151615612ccf57612cce612724565b5b828202905092915050565b6000612ce582611eb7565b9150612cf083611eb7565b9250828201905080821115612d0857612d07612724565b5b92915050565b600081519050919050565b600082825260208201905092915050565b6000612d3582612d0e565b612d3f8185612d19565b9350612d4f818560208601611e21565b612d5881611e4b565b840191505092915050565b6000608082019050612d786000830187611f4c565b612d856020830186611f4c565b612d926040830185611fe2565b8181036060830152612da48184612d2a565b905095945050505050565b600081519050612dbe81611d76565b92915050565b600060208284031215612dda57612dd9611d40565b5b6000612de884828501612daf565b9150509291505056fea2646970667358221220ffaa55fdfc4505b40ccf08e3840abe8146ed3f31208263b132913690042bae1c64736f6c63430008100033",
  "immutableReferences": {},
  "source": "// SPDX-License-Identifier: MIT\r\npragma solidity ^0.8.16;\r\npragma experimental ABIEncoderV2;\r\n\r\nimport \"./IERC721.sol\";\r\nimport \"./Ownable.sol\";\r\nimport \"./IERC721Receiver.sol\";\r\n\r\ncontract Bearcontract is IERC721, Ownable {\r\n\r\n    uint256 public constant CREATION_LIMIT_GEN0 = 10;\r\n    string public constant bearTicker = \"AcademyBear\";\r\n    string public constant bearSymbol = \"ABT\";\r\n\r\n    bytes4 internal constant ERC721_RECEIVED= bytes4(keccak256(\"onERC721Received(address,address,uint256,bytes)\"));\r\n    \r\n    //Interface IDs\r\n    bytes4 private constant _INTERFACE_ID_ERC721 = 0x80ac58cd;\r\n    bytes4 private constant _INTERFACE_ID_ERC165 = 0x01ffc9a7;\r\n\r\n    //Interface Support for ERC721 and ERC165\r\n    function supportsInterface(bytes4 _interfaceId) external view returns (bool) {\r\n        return (_interfaceId == _INTERFACE_ID_ERC721 || _interfaceId == _INTERFACE_ID_ERC165);\r\n    }\r\n\r\n    //Birth event for Bears\r\n    event Birth(\r\n        address owner, \r\n        uint256 bearId, \r\n        uint256 mumId, \r\n        uint256 dadId, \r\n        uint256 genes\r\n    );\r\n\r\n    //Struct of the Bears\r\n    struct Bear {\r\n        uint256 genes;\r\n        uint64 birthTime;\r\n        uint32 mumId;\r\n        uint32 dadId;\r\n        uint16 generation;\r\n    }\r\n\r\n    Bear[] bears;\r\n\r\n    mapping (uint256 => address) public bearIndexToOwner;\r\n    mapping (address => uint256) tokenOwnershipCount;\r\n    mapping (uint256 => address) public bearIndexToApproved;\r\n    mapping (address => mapping (address => bool)) private _operatorApprovals;\r\n\r\n    uint256 public gen0Counter;\r\n\r\n    //breeding new Bears\r\n    function breed(uint256 dadId, uint256 mumId) public returns (uint256) {\r\n        //check ownership\r\n        require(_owns(msg.sender, dadId) || getApproved(dadId) == msg.sender, \"msg.sender is not the token owner of the father!\");\r\n        require(_owns(msg.sender, mumId) || getApproved(mumId) == msg.sender, \"msg.sender is not the token owner of the mother!\");\r\n\r\n        //new generation is determined\r\n        (uint256 dadDna,,,,uint256 dadGen) = getBear(dadId);\r\n        (uint256 mumDna,,,,uint256 mumGen) = getBear(mumId);\r\n\r\n        uint256 newGen;\r\n\r\n        if(dadGen > mumGen) {\r\n            newGen = dadGen++;\r\n        }\r\n        else {\r\n            newGen = mumGen++;\r\n        }\r\n\r\n        //DNA String is made\r\n        uint256 newDna = _mixDna(dadDna, mumDna);\r\n\r\n        //create new bear\r\n        _createBear(newDna, mumId, dadId, newGen, msg.sender);\r\n    }\r\n\r\n    //Dna of parent bears gets mixed\r\n    function _mixDna(uint256 _dadDna, uint256 _mumDna) internal view returns (uint256) {\r\n        uint256[8] memory geneArray;\r\n        uint8 random = uint8(block.timestamp % 255);\r\n        uint256 i = 1;\r\n        uint256 index = 7;\r\n\r\n        //random gene generation\r\n        for (i = 1; i <= 128; i = i*2) {\r\n            if(random & i != 0){\r\n                geneArray[index] = uint8(_mumDna % 100);\r\n            }\r\n            else {\r\n                geneArray[index] = uint8(_dadDna % 100);\r\n            }\r\n            _mumDna = _mumDna / 100;\r\n            _dadDna = _dadDna / 100;\r\n            index = index - 1;\r\n        }\r\n\r\n        uint256 newDna;\r\n\r\n        //newDna gets data from geneArray \r\n        for (i = 0; i < 8; i++) {\r\n            newDna = newDna + geneArray[i];\r\n            if (i != 7) {            \r\n                newDna = newDna * 100;\r\n                }\r\n        }\r\n        return newDna;\r\n    }\r\n\r\n    //Owner can create gen0 bears\r\n    function createBearGen0(uint256 genes) public onlyOwner returns (uint256){\r\n        require(gen0Counter <= CREATION_LIMIT_GEN0, \"Generation 0 supply already fully minted!\");\r\n\r\n        gen0Counter++;\r\n\r\n        //Gen0 are owned by the contract\r\n        return(_createBear(genes, 0, 0, 0, address(0)));\r\n    }\r\n\r\n    //create Bear\r\n    function _createBear( \r\n        uint256 _genes,\r\n        uint256 _mumId,\r\n        uint256 _dadId,\r\n        uint256 _generation,\r\n        address _owner\r\n    ) private returns (uint256) {\r\n        Bear memory _bear = Bear({\r\n            genes: _genes,\r\n            birthTime: uint64(block.timestamp),\r\n            mumId: uint32(_mumId),\r\n            dadId: uint32(_dadId),\r\n            generation: uint16(_generation)\r\n        });\r\n\r\n        bears.push(_bear);\r\n\r\n        uint256 newBearId = bears.length - 1;\r\n\r\n        emit Birth(_owner, newBearId, _mumId, _dadId, _genes);\r\n\r\n        _transfer(address(0), _owner, newBearId);\r\n\r\n        return newBearId;\r\n    }\r\n\r\n    function getBearByOwner(address owner) external view returns (uint[] memory) {\r\n        uint[] memory result = new uint[](tokenOwnershipCount[owner]);\r\n        uint counter = 0;\r\n        for (uint i = 0; i < bears.length; i++) {\r\n            if (bearIndexToOwner[i] == owner) {\r\n                result[counter] = i;\r\n                counter++;\r\n            }\r\n        }\r\n        return result;\r\n    }\r\n\r\n    //returns bear properties\r\n    function getBear(uint256 tokenId) public view returns (\r\n        uint256 genes,\r\n        uint256 birthTime,\r\n        uint256 mumId,\r\n        uint256 dadId,\r\n        uint256 generation\r\n    ){ \r\n        Bear storage bear = bears[tokenId];\r\n\r\n        genes = uint256 (bear.genes);\r\n        birthTime = uint256 (bear.birthTime);\r\n        mumId = uint256 (bear.mumId);\r\n        dadId = uint256 (bear.dadId);\r\n        generation = uint256 (bear.generation);\r\n    }\r\n\r\n    //Returns the number of tokens in ``owner``'s account.\r\n    function balanceOf(address owner) external view returns (uint256 balance) {\r\n        return tokenOwnershipCount[owner];\r\n    }\r\n\r\n    //Returns the total number of tokens in circulation.\r\n    function totalSupply() external view returns (uint256) {\r\n        return bears.length;\r\n    }\r\n\r\n    //Returns the name of the token.\r\n    function name() external view returns (string memory tokenName) {\r\n        tokenName = bearTicker;\r\n    }\r\n\r\n    //Returns the symbol of the token.\r\n    function symbol() external view returns (string memory tokenSymbol) {\r\n        tokenSymbol = bearSymbol;\r\n    }\r\n\r\n    //Returns the owner of the `tokenId` token.\r\n    function ownerOf(uint256 tokenId) external view returns (address) {\r\n        return bearIndexToOwner[tokenId];\r\n    }\r\n\r\n    //Transfers `tokenId` token from `msg.sender` to `to`\r\n    function transfer(address to, uint256 tokenId) external {\r\n        require(to != address(0), \"Invalid Address; Cannot transfer to Address 0!\");\r\n        require(to != address(this), \"Invalid Address; Cannot transfer to Contract Address!\");\r\n        require(_owns(msg.sender, tokenId), \"Invalid Address; Cannot transfer to own Address!\");\r\n\r\n        _transfer(msg.sender, to, tokenId);\r\n    }\r\n\r\n    function _transfer(address _from, address _to, uint256 _tokenId) internal {\r\n        tokenOwnershipCount[_to]++;\r\n        bearIndexToOwner[_tokenId] = _to;\r\n        \r\n        if(_from != address(0)) {\r\n            tokenOwnershipCount[_from]--;\r\n            delete bearIndexToApproved[_tokenId];\r\n        }\r\n\r\n    //Emitted when `tokenId` token is transfered from `from` to `to`.\r\n        emit Transfer(_from, _to, _tokenId);\r\n    }\r\n    \r\n    //Change or reaffirm the approved address for an NFT\r\n    function approve(address _to, uint256 _tokenId) public {\r\n        require(_owns(msg.sender, _tokenId), \"msg.sender is not the token owner!\");\r\n\r\n        _approve(_tokenId, _to);\r\n        emit Approval(msg.sender, _to, _tokenId);\r\n    }\r\n\r\n    function _owns(address _claimant, uint256 _tokenId) internal view returns (bool) {\r\n        return bearIndexToOwner[_tokenId] == _claimant;\r\n    }\r\n    \r\n    function _approve(uint256 _tokenId, address _approved) internal {\r\n        bearIndexToApproved[_tokenId] = _approved;\r\n    }\r\n\r\n    //Enable or disable approval for a third party (\"operator\") to manage all of `msg.sender`'s assets\r\n    function setApprovalForAll(address operator, bool approved) public {\r\n        require(operator != msg.sender, \"operator must not be msg.sender\");\r\n\r\n        _operatorApprovals[msg.sender][operator] = approved;\r\n\r\n    //Emitted when `owner` enables or disables (`approved`) `operator` to manage all of its assets.\r\n        emit ApprovalForAll(msg.sender, operator, approved);\r\n    }\r\n\r\n    //Get the approved address for a single NFT\r\n    function getApproved(uint256 tokenId) public view returns (address) {\r\n        require(tokenId < bears.length, \"tokenId does not exist\");\r\n        return bearIndexToOwner[tokenId];\r\n    }\r\n\r\n    //Query if an address is an authorized operator for another address\r\n    function isApprovedForAll(address owner, address operator) public view returns (bool) {\r\n        return _operatorApprovals[owner][operator];\r\n    }\r\n\r\n    // Transfers the ownership of an NFT from one address to another address, including data\r\n    function safeTransferFrom(address from, address to, uint256 tokenId, bytes calldata data) public {\r\n        require(to != address(0), \"Must not be sent to 0 address\");\r\n        require(msg.sender == from || isApprovedForAll(from, msg.sender) == true || getApproved(tokenId) == msg.sender, \"Not authorized to send transaction\");\r\n        require(_owns(from, tokenId), \"From-Address is not the token owner!\");\r\n        require(tokenId < bears.length, \"tokenId does not exist\");\r\n\r\n        _safeTransfer(from, to, tokenId, data);\r\n    }\r\n\r\n    // Transfers the ownership of an NFT from one address to another address\r\n    function safeTransferFrom(address from, address to, uint256 tokenId) public {\r\n        require(to != address(0), \"Must not be sent to 0 address\");\r\n        require(msg.sender == from || isApprovedForAll(from, msg.sender) == true || getApproved(tokenId) == msg.sender, \"Not authorized to send transaction\");\r\n        require(_owns(from, tokenId), \"From-Address is not the token owner!\");\r\n        require(tokenId < bears.length, \"tokenId does not exist\");\r\n\r\n        _safeTransfer(from, to, tokenId, \"\");\r\n    }\r\n\r\n    function _safeTransfer(address _from, address _to, uint256 _tokenId, bytes memory _data) internal {\r\n        _transfer(_from, _to, _tokenId);\r\n        require(_checkERC721Support(_from, _to, _tokenId, _data));\r\n    }\r\n\r\n    //Check if receiving contract supports ERC721\r\n    function _checkERC721Support(address _from, address _to, uint256 _tokenId, bytes memory _data) internal returns (bool) {\r\n        if(!_isContract(_to)) {\r\n            return true;\r\n        }\r\n        //Call onERC721Received in _to contract\r\n        bytes4 returnData = IERC721Receiver(_to).onERC721Received(msg.sender, _from, _tokenId, _data);\r\n\r\n        //Check return value\r\n        return returnData == ERC721_RECEIVED;\r\n    }\r\n\r\n    //Check to see if recipient is a contract\r\n    function _isContract(address _to) internal view returns (bool) {\r\n        uint32 size;\r\n        assembly{\r\n            size := extcodesize(_to)\r\n        }\r\n        return size > 0;\r\n    }\r\n\r\n    // Transfer ownership of an NFT\r\n    function transferFrom(address from, address to, uint256 tokenId) public {\r\n        require(to != address(0), \"Must not be sent to 0 address\");\r\n        require(_owns(msg.sender, tokenId) || isApprovedForAll(from, msg.sender) == true || getApproved(tokenId) == msg.sender, \"Not authorized to send transaction\");\r\n        require(_owns(from, tokenId), \"From-Address is not the token owner!\");\r\n        require(tokenId < bears.length, \"tokenId does not exist\");\r\n\r\n        _transfer(from, to, tokenId);\r\n    }\r\n}",
  "sourcePath": "C:\\Users\\Admin\\Webdev\\nft_marketplace\\academy-kitties-template\\contracts\\Bearcontract.sol",
  "compiler": {
    "name": "solc",
    "version": "0.8.16+commit.07a7930e.Emscripten.clang"
  },
  "schemaVersion": "3.4.7",
  "updatedAt": "2022-09-20T07:57:32.175Z",
  "networkType": "ethereum",
  "devdoc": {
    "kind": "dev",
    "methods": {
      "balanceOf(address)": {
        "details": "Returns the number of tokens in ``owner``'s account."
      },
      "ownerOf(uint256)": {
        "details": "Returns the owner of the `tokenId` token. Requirements: - `tokenId` must exist."
      }
    },
    "version": 1
  },
  "userdoc": {
    "kind": "user",
    "methods": {},
    "version": 1
  }
}