{
  "contractName": "BearMarket",
  "abi": [
    {
      "inputs": [
        {
          "internalType": "address",
          "name": "_bearContractAddress",
          "type": "address"
        }
      ],
      "stateMutability": "nonpayable",
      "type": "constructor"
    },
    {
      "anonymous": false,
      "inputs": [
        {
          "indexed": false,
          "internalType": "string",
          "name": "TxType",
          "type": "string"
        },
        {
          "indexed": false,
          "internalType": "address",
          "name": "owner",
          "type": "address"
        },
        {
          "indexed": false,
          "internalType": "uint256",
          "name": "tokenId",
          "type": "uint256"
        }
      ],
      "name": "MarketTransaction",
      "type": "event"
    },
    {
      "inputs": [],
      "name": "owner",
      "outputs": [
        {
          "internalType": "address",
          "name": "",
          "type": "address"
        }
      ],
      "stateMutability": "view",
      "type": "function",
      "constant": true
    },
    {
      "inputs": [
        {
          "internalType": "address",
          "name": "_bearContractAddress",
          "type": "address"
        }
      ],
      "name": "setBearContract",
      "outputs": [],
      "stateMutability": "nonpayable",
      "type": "function"
    },
    {
      "inputs": [
        {
          "internalType": "uint256",
          "name": "tokenId",
          "type": "uint256"
        }
      ],
      "name": "getOffer",
      "outputs": [
        {
          "internalType": "address",
          "name": "seller",
          "type": "address"
        },
        {
          "internalType": "uint256",
          "name": "price",
          "type": "uint256"
        },
        {
          "internalType": "uint256",
          "name": "index",
          "type": "uint256"
        },
        {
          "internalType": "uint256",
          "name": "_tokenId",
          "type": "uint256"
        },
        {
          "internalType": "bool",
          "name": "active",
          "type": "bool"
        }
      ],
      "stateMutability": "view",
      "type": "function",
      "constant": true
    },
    {
      "inputs": [],
      "name": "getAllTokenOnSale",
      "outputs": [
        {
          "internalType": "uint256[]",
          "name": "listOfOffers",
          "type": "uint256[]"
        }
      ],
      "stateMutability": "view",
      "type": "function",
      "constant": true
    },
    {
      "inputs": [
        {
          "internalType": "uint256",
          "name": "price",
          "type": "uint256"
        },
        {
          "internalType": "uint256",
          "name": "tokenId",
          "type": "uint256"
        }
      ],
      "name": "setOffer",
      "outputs": [],
      "stateMutability": "nonpayable",
      "type": "function"
    },
    {
      "inputs": [
        {
          "internalType": "uint256",
          "name": "tokenId",
          "type": "uint256"
        }
      ],
      "name": "removeOffer",
      "outputs": [],
      "stateMutability": "nonpayable",
      "type": "function"
    },
    {
      "inputs": [
        {
          "internalType": "uint256",
          "name": "tokenId",
          "type": "uint256"
        }
      ],
      "name": "buyBear",
      "outputs": [],
      "stateMutability": "payable",
      "type": "function",
      "payable": true
    }
  ],
  "bytecode": "0x6080604052336000806101000a81548173ffffffffffffffffffffffffffffffffffffffff021916908373ffffffffffffffffffffffffffffffffffffffff1602179055503480156200005157600080fd5b5060405162001b6538038062001b658339818101604052810190620000779190620001e6565b62000088816200008f60201b60201c565b506200029b565b3373ffffffffffffffffffffffffffffffffffffffff16620000b66200015360201b60201c565b73ffffffffffffffffffffffffffffffffffffffff16146200010f576040517f08c379a0000000000000000000000000000000000000000000000000000000008152600401620001069062000279565b60405180910390fd5b80600160006101000a81548173ffffffffffffffffffffffffffffffffffffffff021916908373ffffffffffffffffffffffffffffffffffffffff16021790555050565b60008060009054906101000a900473ffffffffffffffffffffffffffffffffffffffff16905090565b600080fd5b600073ffffffffffffffffffffffffffffffffffffffff82169050919050565b6000620001ae8262000181565b9050919050565b620001c081620001a1565b8114620001cc57600080fd5b50565b600081519050620001e081620001b5565b92915050565b600060208284031215620001ff57620001fe6200017c565b5b60006200020f84828501620001cf565b91505092915050565b600082825260208201905092915050565b7f43616c6c6572206973206e6f7420746865206f776e6572000000000000000000600082015250565b60006200026160178362000218565b91506200026e8262000229565b602082019050919050565b60006020820190508181036000830152620002948162000252565b9050919050565b6118ba80620002ab6000396000f3fe6080604052600436106100705760003560e01c806370e8c5ea1161004e57806370e8c5ea1461010a5780638da5cb5b14610126578063941b055b1461015157806395a0f9c71461017a57610070565b80634579268a1461007557806345b98e32146100b657806349b3709f146100df575b600080fd5b34801561008157600080fd5b5061009c60048036038101906100979190610e8c565b6101a3565b6040516100ad959493929190610f24565b60405180910390f35b3480156100c257600080fd5b506100dd60048036038101906100d89190610fa3565b61026c565b005b3480156100eb57600080fd5b506100f4610325565b604051610101919061108e565b60405180910390f35b610124600480360381019061011f9190610e8c565b610484565b005b34801561013257600080fd5b5061013b6107d1565b60405161014891906110b0565b60405180910390f35b34801561015d57600080fd5b50610178600480360381019061017391906110cb565b6107fa565b005b34801561018657600080fd5b506101a1600480360381019061019c9190610e8c565b610b60565b005b6000806000806000806003600088815260200190815260200160002090508060040160009054906101000a900460ff16610212576040517f08c379a000000000000000000000000000000000000000000000000000000000815260040161020990611168565b60405180910390fd5b8060000160009054906101000a900473ffffffffffffffffffffffffffffffffffffffff168160010154826002015483600301548460040160009054906101000a900460ff16955095509550955095505091939590929450565b3373ffffffffffffffffffffffffffffffffffffffff1661028b6107d1565b73ffffffffffffffffffffffffffffffffffffffff16146102e1576040517f08c379a00000000000000000000000000000000000000000000000000000000081526004016102d8906111d4565b60405180910390fd5b80600160006101000a81548173ffffffffffffffffffffffffffffffffffffffff021916908373ffffffffffffffffffffffffffffffffffffffff16021790555050565b6060600060028054905090506000810361038b57600067ffffffffffffffff811115610354576103536111f4565b5b6040519080825280602002602001820160405280156103825781602001602082028036833780820191505090505b50915050610481565b60008167ffffffffffffffff8111156103a7576103a66111f4565b5b6040519080825280602002602001820160405280156103d55781602001602082028036833780820191505090505b50905060005b8281101561047a5760011515600282815481106103fb576103fa611223565b5b906000526020600020906005020160040160009054906101000a900460ff16151503610467576002818154811061043557610434611223565b5b90600052602060002090600502016003015482828151811061045a57610459611223565b5b6020026020010181815250505b808061047290611281565b9150506103db565b8193505050505b90565b6000600360008381526020019081526020016000206040518060a00160405290816000820160009054906101000a900473ffffffffffffffffffffffffffffffffffffffff1673ffffffffffffffffffffffffffffffffffffffff1673ffffffffffffffffffffffffffffffffffffffff1681526020016001820154815260200160028201548152602001600382015481526020016004820160009054906101000a900460ff16151515158152505090508060200151341461057b576040517f08c379a000000000000000000000000000000000000000000000000000000000815260040161057290611315565b60405180910390fd5b600115156003600084815260200190815260200160002060040160009054906101000a900460ff161515146105e5576040517f08c379a00000000000000000000000000000000000000000000000000000000081526004016105dc90611381565b60405180910390fd5b60036000838152602001908152602001600020600080820160006101000a81549073ffffffffffffffffffffffffffffffffffffffff02191690556001820160009055600282016000905560038201600090556004820160006101000a81549060ff021916905550506000600260036000858152602001908152602001600020600201548154811061067a57610679611223565b5b906000526020600020906005020160040160006101000a81548160ff0219169083151502179055506000816020015111156106ff57806000015173ffffffffffffffffffffffffffffffffffffffff166108fc82602001519081150290604051600060405180830381858888f193505050501580156106fd573d6000803e3d6000fd5b505b600160009054906101000a900473ffffffffffffffffffffffffffffffffffffffff1673ffffffffffffffffffffffffffffffffffffffff166323b872dd826000015133856040518463ffffffff1660e01b815260040161076293929190611400565b600060405180830381600087803b15801561077c57600080fd5b505af1158015610790573d6000803e3d6000fd5b505050507fd99e4fad9ad6313b1feb588fa8e605e3a9873172f2024330c35dd2b4041a438633836040516107c5929190611483565b60405180910390a15050565b60008060009054906101000a900473ffffffffffffffffffffffffffffffffffffffff16905090565b6108043382610d7d565b610843576040517f08c379a000000000000000000000000000000000000000000000000000000000815260040161083a9061150b565b60405180910390fd5b600015156003600083815260200190815260200160002060040160009054906101000a900460ff161515146108ad576040517f08c379a00000000000000000000000000000000000000000000000000000000081526004016108a490611577565b60405180910390fd5b600160009054906101000a900473ffffffffffffffffffffffffffffffffffffffff1673ffffffffffffffffffffffffffffffffffffffff1663e985e9c533306040518363ffffffff1660e01b815260040161090a929190611597565b602060405180830381865afa158015610927573d6000803e3d6000fd5b505050506040513d601f19601f8201168201806040525081019061094b91906115ec565b61098a576040517f08c379a00000000000000000000000000000000000000000000000000000000081526004016109819061168b565b60405180910390fd5b60006040518060a001604052803373ffffffffffffffffffffffffffffffffffffffff1681526020018481526020016002805490508152602001838152602001600115158152509050806003600084815260200190815260200160002060008201518160000160006101000a81548173ffffffffffffffffffffffffffffffffffffffff021916908373ffffffffffffffffffffffffffffffffffffffff16021790555060208201518160010155604082015181600201556060820151816003015560808201518160040160006101000a81548160ff021916908315150217905550905050600281908060018154018082558091505060019003906000526020600020906005020160009091909190915060008201518160000160006101000a81548173ffffffffffffffffffffffffffffffffffffffff021916908373ffffffffffffffffffffffffffffffffffffffff16021790555060208201518160010155604082015181600201556060820151816003015560808201518160040160006101000a81548160ff02191690831515021790555050507fd99e4fad9ad6313b1feb588fa8e605e3a9873172f2024330c35dd2b4041a43863383604051610b539291906116f7565b60405180910390a1505050565b6000600360008381526020019081526020016000206040518060a00160405290816000820160009054906101000a900473ffffffffffffffffffffffffffffffffffffffff1673ffffffffffffffffffffffffffffffffffffffff1673ffffffffffffffffffffffffffffffffffffffff1681526020016001820154815260200160028201548152602001600382015481526020016004820160009054906101000a900460ff16151515158152505090503373ffffffffffffffffffffffffffffffffffffffff16816000015173ffffffffffffffffffffffffffffffffffffffff1614610c83576040517f08c379a0000000000000000000000000000000000000000000000000000000008152600401610c7a9061177f565b60405180910390fd5b60036000838152602001908152602001600020600080820160006101000a81549073ffffffffffffffffffffffffffffffffffffffff02191690556001820160009055600282016000905560038201600090556004820160006101000a81549060ff0219169055505060006002600360008581526020019081526020016000206002015481548110610d1857610d17611223565b5b906000526020600020906005020160040160006101000a81548160ff0219169083151502179055507fd99e4fad9ad6313b1feb588fa8e605e3a9873172f2024330c35dd2b4041a43863383604051610d719291906117eb565b60405180910390a15050565b60008273ffffffffffffffffffffffffffffffffffffffff16600160009054906101000a900473ffffffffffffffffffffffffffffffffffffffff1673ffffffffffffffffffffffffffffffffffffffff16636352211e846040518263ffffffff1660e01b8152600401610df19190611827565b602060405180830381865afa158015610e0e573d6000803e3d6000fd5b505050506040513d601f19601f82011682018060405250810190610e329190611857565b73ffffffffffffffffffffffffffffffffffffffff1614905092915050565b600080fd5b6000819050919050565b610e6981610e56565b8114610e7457600080fd5b50565b600081359050610e8681610e60565b92915050565b600060208284031215610ea257610ea1610e51565b5b6000610eb084828501610e77565b91505092915050565b600073ffffffffffffffffffffffffffffffffffffffff82169050919050565b6000610ee482610eb9565b9050919050565b610ef481610ed9565b82525050565b610f0381610e56565b82525050565b60008115159050919050565b610f1e81610f09565b82525050565b600060a082019050610f396000830188610eeb565b610f466020830187610efa565b610f536040830186610efa565b610f606060830185610efa565b610f6d6080830184610f15565b9695505050505050565b610f8081610ed9565b8114610f8b57600080fd5b50565b600081359050610f9d81610f77565b92915050565b600060208284031215610fb957610fb8610e51565b5b6000610fc784828501610f8e565b91505092915050565b600081519050919050565b600082825260208201905092915050565b6000819050602082019050919050565b61100581610e56565b82525050565b60006110178383610ffc565b60208301905092915050565b6000602082019050919050565b600061103b82610fd0565b6110458185610fdb565b935061105083610fec565b8060005b83811015611081578151611068888261100b565b975061107383611023565b925050600181019050611054565b5085935050505092915050565b600060208201905081810360008301526110a88184611030565b905092915050565b60006020820190506110c56000830184610eeb565b92915050565b600080604083850312156110e2576110e1610e51565b5b60006110f085828601610e77565b925050602061110185828601610e77565b9150509250929050565b600082825260208201905092915050565b7f6e6f20616374697665206f66666572206f6e207468697320746f6b656e496400600082015250565b6000611152601f8361110b565b915061115d8261111c565b602082019050919050565b6000602082019050818103600083015261118181611145565b9050919050565b7f43616c6c6572206973206e6f7420746865206f776e6572000000000000000000600082015250565b60006111be60178361110b565b91506111c982611188565b602082019050919050565b600060208201905081810360008301526111ed816111b1565b9050919050565b7f4e487b7100000000000000000000000000000000000000000000000000000000600052604160045260246000fd5b7f4e487b7100000000000000000000000000000000000000000000000000000000600052603260045260246000fd5b7f4e487b7100000000000000000000000000000000000000000000000000000000600052601160045260246000fd5b600061128c82610e56565b91507fffffffffffffffffffffffffffffffffffffffffffffffffffffffffffffffff82036112be576112bd611252565b5b600182019050919050565b7f56616c756520646f6573206e6f74206d61746368207072696365210000000000600082015250565b60006112ff601b8361110b565b915061130a826112c9565b602082019050919050565b6000602082019050818103600083015261132e816112f2565b9050919050565b7f4e6f20616374697665206f726465722100000000000000000000000000000000600082015250565b600061136b60108361110b565b915061137682611335565b602082019050919050565b6000602082019050818103600083015261139a8161135e565b9050919050565b6000819050919050565b60006113c66113c16113bc84610eb9565b6113a1565b610eb9565b9050919050565b60006113d8826113ab565b9050919050565b60006113ea826113cd565b9050919050565b6113fa816113df565b82525050565b600060608201905061141560008301866113f1565b6114226020830185610eeb565b61142f6040830184610efa565b949350505050565b7f4275792042656172000000000000000000000000000000000000000000000000600082015250565b600061146d60088361110b565b915061147882611437565b602082019050919050565b6000606082019050818103600083015261149c81611460565b90506114ab6020830185610eeb565b6114b86040830184610efa565b9392505050565b7f596f7520617265206e6f742074686520746f6b656e206f776e65722100000000600082015250565b60006114f5601c8361110b565b9150611500826114bf565b602082019050919050565b60006020820190508181036000830152611524816114e8565b9050919050565b7f596f752063616e6e6f74206164642061207365636f6e64206f66666572210000600082015250565b6000611561601e8361110b565b915061156c8261152b565b602082019050919050565b6000602082019050818103600083015261159081611554565b9050919050565b60006040820190506115ac6000830185610eeb565b6115b96020830184610eeb565b9392505050565b6115c981610f09565b81146115d457600080fd5b50565b6000815190506115e6816115c0565b92915050565b60006020828403121561160257611601610e51565b5b6000611610848285016115d7565b91505092915050565b7f436f6e7472616374206e6565647320746f20626520617070726f76656420666f60008201527f7220616c6c210000000000000000000000000000000000000000000000000000602082015250565b600061167560268361110b565b915061168082611619565b604082019050919050565b600060208201905081810360008301526116a481611668565b9050919050565b7f437265617465204f666665720000000000000000000000000000000000000000600082015250565b60006116e1600c8361110b565b91506116ec826116ab565b602082019050919050565b60006060820190508181036000830152611710816116d4565b905061171f6020830185610eeb565b61172c6040830184610efa565b9392505050565b7f596f7520617265206e6f74207468652073656c6c657221000000000000000000600082015250565b600061176960178361110b565b915061177482611733565b602082019050919050565b600060208201905081810360008301526117988161175c565b9050919050565b7f52656d6f7665204f666665720000000000000000000000000000000000000000600082015250565b60006117d5600c8361110b565b91506117e08261179f565b602082019050919050565b60006060820190508181036000830152611804816117c8565b90506118136020830185610eeb565b6118206040830184610efa565b9392505050565b600060208201905061183c6000830184610efa565b92915050565b60008151905061185181610f77565b92915050565b60006020828403121561186d5761186c610e51565b5b600061187b84828501611842565b9150509291505056fea26469706673582212209414e6ff395772827e83ec1604f47808ac84dc35d874295997f02293bf5a8e8d64736f6c63430008100033",
  "immutableReferences": {},
  "source": "// SPDX-License-Identifier: MIT\r\npragma solidity ^0.8.16;\r\npragma experimental ABIEncoderV2;\r\n\r\nimport \"./Bearcontract.sol\";\r\nimport \"./Ownable.sol\";\r\nimport \"./IBearMarketPlace.sol\";\r\n\r\ncontract BearMarket is Ownable, IBearMarketPlace {\r\n\r\n    Bearcontract private _bearcontract;\r\n\r\n    struct Offer {\r\n        address payable seller;\r\n        uint256 price;\r\n        uint256 index;\r\n        uint256 tokenId;\r\n        bool active;\r\n    }\r\n\r\n    Offer[] offers;\r\n\r\n    mapping(uint256 => Offer) tokenIdToOffer;\r\n\r\n\r\n    //Function and constructor to set the Bearcontract\r\n    function setBearContract(address _bearContractAddress) onlyOwner public {\r\n        _bearcontract = Bearcontract(_bearContractAddress);\r\n    }\r\n\r\n    constructor(address _bearContractAddress) public {\r\n        setBearContract(_bearContractAddress);\r\n    }\r\n    \r\n    //Get the details about a offer for tokenId. Throws an error if there is no active offer for tokenId.\r\n    function getOffer(uint256 tokenId) public view returns (address seller, uint256 price, uint256 index, uint256 _tokenId, bool active) {\r\n        Offer storage offer = tokenIdToOffer[tokenId];\r\n        require(offer.active, \"no active offer on this tokenId\");\r\n        return(\r\n            offer.seller,\r\n            offer.price,\r\n            offer.index,\r\n            offer.tokenId,\r\n            offer.active\r\n        );\r\n    }\r\n    \r\n    //Get all tokenId's that are currently for sale. Returns an empty array if none exist.\r\n    function getAllTokenOnSale() external view  returns(uint256[] memory listOfOffers) {\r\n        uint256 totalOffers = offers.length;\r\n\r\n        if (totalOffers == 0) {\r\n            return new uint256[](0);\r\n        } else {\r\n            uint256[] memory result = new uint256[](totalOffers);\r\n\r\n            uint256 offerId;\r\n\r\n            for (offerId = 0; offerId < totalOffers; offerId++) {\r\n                if(offers[offerId].active == true){\r\n                    result[offerId] = offers[offerId].tokenId;\r\n                }\r\n            }\r\n            return result;\r\n        }\r\n    }\r\n    \r\n    //Creates a new offer for tokenId for the price price.\r\n    function setOffer(uint256 price, uint256 tokenId) public {\r\n        require(_ownsBear(msg.sender, tokenId), \"You are not the token owner!\");\r\n        require(tokenIdToOffer[tokenId].active == false, \"You cannot add a second offer!\");\r\n        require(_bearcontract.isApprovedForAll(msg.sender, address(this)), \"Contract needs to be approved for all!\");\r\n\r\n        Offer memory offer = Offer({\r\n            seller: payable (msg.sender),\r\n            price: price,\r\n            active: true,\r\n            tokenId: tokenId,\r\n            index: offers.length\r\n        });\r\n\r\n        tokenIdToOffer[tokenId] = offer;\r\n        offers.push(offer);\r\n\r\n        emit MarketTransaction(\"Create Offer\", msg.sender, tokenId);\r\n    }\r\n    \r\n    //Removes an existing offer.\r\n    function removeOffer(uint256 tokenId) public {\r\n        Offer memory offer = tokenIdToOffer[tokenId];\r\n\r\n        require(offer.seller == msg.sender, \"You are not the seller!\");\r\n\r\n        delete tokenIdToOffer[tokenId];\r\n        offers[tokenIdToOffer[tokenId].index].active = false;\r\n\r\n        emit MarketTransaction(\"Remove Offer\", msg.sender, tokenId);\r\n    }\r\n    \r\n    //Executes the purchase of tokenId.\r\n    function buyBear(uint256 tokenId) public payable {\r\n        Offer memory offer = tokenIdToOffer[tokenId];\r\n        require(msg.value == offer.price, \"Value does not match price!\");\r\n        require(tokenIdToOffer[tokenId].active == true, \"No active order!\");\r\n\r\n        delete tokenIdToOffer[tokenId];\r\n        offers[tokenIdToOffer[tokenId].index].active = false;\r\n\r\n        if (offer.price > 0){\r\n            offer.seller.transfer(offer.price);\r\n        }\r\n\r\n        _bearcontract.transferFrom(offer.seller, msg.sender, tokenId);\r\n\r\n        emit MarketTransaction(\"Buy Bear\", msg.sender, tokenId);\r\n    }\r\n\r\n    //Checks if current address is token owner\r\n    function _ownsBear(address _address, uint256 _tokenId) internal view returns (bool) {\r\n        return (_bearcontract.ownerOf(_tokenId) == _address);\r\n    }\r\n}",
  "sourcePath": "C:\\Users\\Admin\\Webdev\\nft_marketplace\\academy-kitties-template\\contracts\\BearMarketplace.sol",
  "compiler": {
    "name": "solc",
    "version": "0.8.16+commit.07a7930e.Emscripten.clang"
  },
  "schemaVersion": "3.4.7",
  "updatedAt": "2022-10-03T14:01:47.980Z",
  "networkType": "ethereum",
  "devdoc": {
    "kind": "dev",
    "methods": {},
    "version": 1
  },
  "userdoc": {
    "kind": "user",
    "methods": {
      "getAllTokenOnSale()": {
        "notice": "Get all tokenId's that are currently for sale. Returns an empty arror if none exist."
      },
      "setBearContract(address)": {
        "notice": "Set the current KittyContract address and initialize the instance of Kittycontract. Requirement: Only the contract owner can call."
      }
    },
    "version": 1
  }
}